:400000000080002011000000851E0000851E000008B5044B1A6803F53F5302331A6001F051FF00BFFA46004010B5054C237833B9044B13B10448AFF300800123237010BDE0
:400040005081FF1F00000000744F0000084B10B51BB108490848AFF300800848036803B910BD074B002BFBD0BDE81040184700BF000000005481FF1F744F0000C880FF1F6C
:400080000000000070B5ADF5256D62B6B34802F0D1FBB34802F012FBB24802F0A7FE02F0B1FA01F02FFD00F061FC01220DF5A5610F2001F0CFFA022269460F2001F0CAFAB9
:4000C0003C2001F0EBFA142000F04CFD4FF4FA721421642000F02AFF282000F0EFFC0024A14B1C60A149A24800F0D4FC00F0A0FC00E02C46132C00F28681DFE814F01400A8
:4001000025002B00460061008800E400EA001001160184018401840184011C0129015701610174017E019349934800F0B3FC8E4B1B68012B40F06D8100228B4B1A6064204F
:4001400002F0F2FA022585E18C498B4800F0A2FC00257FE1642002F0E7FA8949864800F099FC00F009FC012800F0558140F055817D4B1B68012B40F0528100227A4B1A6018
:40018000642002F0D1FA012564E17E497A4800F081FC00F0A7FE002840F04381724B1B68012B40F0408100F09DFE002840F03D8100226D4B1A60642002F0B6FA042549E121
:4001C00071496D4800F066FC69460DF5A56001F077FB012800F02B81012000F041FB6B4B1B693233984204DA0122684BDA61112530E1022000F034FB644B5B693233984271
:4002000080F217810222614BDA61112522E16049594800F03FFC012000F022FB10F1C80F02DA0122594B1A62584B1B6A012B1AD1012000F015FB10F1C70F16DB642002F038
:4002400073FA012000F00CFB282807DC4F4B02225A624FF4DC729A62062509E000F042FE28B9254604E0254602E0254600E01225022000F0F5FA10F1C80F02DA0122434B16
:40028000DA62424BDB6A012B40F0E480022000F0E7FA10F1C70FC0F2DD80642002F044FA022000F0DDFA282807DC384B01225A624FF4E1729A620625CCE000F013FE0028D3
:4002C00040F0B980C6E033492B4800F0E3FB0725C0E03149284800F0DDFB022000F0C0FA10F1C80F02DA0122284BDA62274BDB6A012B40F0A280254B586A00F00DFB10F102
:40030000C70FC0F29C80642002F00EFA1F4B586A00F0A6FA282800F3948008259AE01F49154800F0B7FB092594E01D49124800F0B1FB0E258EE01B490F4800F0ABFB0A4B35
:400340001B68002B7FD00022074B1A60012581E01549094800F09EFB02257BE0F50A0000790A0000A90E00001C82FF1F784F0000A8520000884F0000984F00009C4F0000F2
:40038000B04F0000CC4F0000DC4F00006C81FF1FF04F0000005000001450000034500000485000006450000078500000B449B54800F070FBB44B1B68012B46D0254649E0B5
:4003C000B249B04800F066FB4FF4FA721421642000F0ACFDAC4B1B68012B38D10022AA4B1A60012536E0AA49A64800F053FBA64B1B68012B2DD025462CE0A649A14800F041
:4004000049FB062526E0A4499E4800F043FB254620E025461EE003251CE00F251AE0254618E0102516E0254614E0254612E0052510E025460EE012250CE025460AE0254680
:4004400008E0132506E0254604E0012502E0254600E00125132C00F29981DFE814F0140026003E00500064006D007400A900AE0097019701970197019701FD0004015101E8
:40048000610176018201854A136B01331363012B06D10DF5A56001F0ABF9684601F0A8F97F49804800F0F6FA23E67F497D4800F0F1FA00F0F5FC794B00221A635A639A632B
:4004C000DA633C2001F0EAF84FF4FA721421642000F02CFD00F014FB0BE6704AD36B0133D363012B06D10DF5A56001F0BDF9684601F0BAF96D496B4800F0CCFAF9E500F0CD
:40050000CBFC664A536B01335363012B06D10DF5A56001F0BFF9684601F0BCF96449614800F0B8FAE5E500F0BBFC00F0D5FC61495C4800F0AFFADCE500F0AEFC5E495948E1
:4005400000F0A8FAD5E5554B5B6A012B15D100F0BBFC5A4B83FB0023C017C0EB63134F4C2364022000F072FB216C022000F024FB0DF5A56001F070FA15E0022B13D100F01C
:40058000A3FC4E4B83FB0023C017C0EB6313434C6364012000F05AFB616C012000F00CFB684601F059FA46493E4800F073FAA0E544493C4800F06EFA9BE5384B5B6A022B82
:4005C00014D1684601F034F900F07EFC3B4B83FB0023C017C0EB6313304C2364022000F035FB216C022000F0E7FA16E0012B14D10DF5A56001F01CF900F066FC2F4B83FB9E
:400600000023C017C0EB6313244C6364012000F01DFB616C012000F0CFFA204E726C2A4C84FB0230D317C3EBA00000EB80035900511A01F073FA40F2DC5002F075F8326C02
:4006400084FB0230D317C3EBA00000EB80035900511A01F063FA4CE51C49124800F01AFA00F03AFC45E500F087F9022830D1684601F0FAF80DF5A56001F0D2F93BE000BF04
:400680008C500000984F00001C82FF1FA4500000BC500000D0500000E45000006C81FF1FF45000000051000004510000185100003451000044510000585100001F85EB5166
:4006C00064510000785100006766666698510000032807D10DF5A56001F0C6F8684601F09FF908E0042806D10DF5A56001F098F9684601F095F92849284800F0CBF9F8E4F8
:4007000000F0CEFB00F0E8FB0DF5A56001F088F9684601F085F92249204800F0BBF9E8E4204BDB69012B04D10DF5A56001F078F904E0022B02D1684601F072F900F0CCFB96
:400740001949164800F0A6F9D3E40DF5A56001F067F9684601F064F91449104800F09AF9C7E413490D4800F095F90E4A536AD361012B04D10DF5A56001F052F9B9E4022BB6
:400780007FF4B7AC684601F04BF9B2E40949034800F080F9ADE400BFAC51000000510000C05100006C81FF1FD4510000EC510000005200001452000010B5012802D0022826
:4007C00023D045E00024234B9C60204602F008F80FE001F093FE012001F0BCFF002001F095FE28B101F0A4FE1A4A9368184490600134B4F57A7FECDB164B9B68164880FB27
:400800000320DB17C3EBA01010BD0024114BDC60012001F0E5FF0FE001F070FE012001F099FF002001F072FE28B101F081FE094AD3681844D0600134B4F57A7FECDB054BFC
:40084000DB68054880FB0320DB17C3EBA01010BD002010BDBC81FF1FD34D62100000000038B5012802D0022822D043E0244C002323610120FFF7A0FF2368C01A206100B2C7
:4008800001F062FE03F050F81BA3D3E9002303F0DBF903F05FFB024620611A4D1A49284603F03CFF2946194800F0F4F8206938BD134C002363610220FFF77EFF6368C01A22
:4008C000606100B201F040FE03F02EF80AA3D3E9002303F0B9F903F03DFB02466061094D0B49284603F01AFF29460A4800F0D2F8606938BD002038BD54E3A59BC420D03FFC
:40090000BC81FF1F5482FF1F245200004C520000505200007852000010B50446FFF74CFF114B9861012C03D11A68801A986105E0022C03D10C4B5A68801A98610A4CB4F997
:40094000180001F001FE02F0EFFF05A3D3E9002303F07AF903F0FEFAA06110BDAFF3008054E3A59BC420D03FBC81FF1F08B501F0B7FD01F025FF08BD10B50120FFF770FF7B
:4009800004460220FFF76CFFA4F11903984203DB04F11903984207DDA0F119039C4209DB00F119039C4205DC632839DD632C39DC042010BD844218DA7C2804DC7C2C02DCFF
:4009C0001A4BDB693BB14A280ADC4A2C08DC174BDB69012B04D10022144BDA61042010BD0122124BDA61022010BD84421CDD7C2804DC7C2C02DC0D4BDB693BB14A280ADC09
:400A00004A2C08DC094BDB69012B04D10022074BDA61042010BD0122044BDA61032010BD042010BD012010BD002010BDBC81FF1F10B50749074800F02DF80120FFF7BCFE15
:400A4000054C20600220FFF7B7FE606010BD00BF7C520000BC520000BC81FF1F08B5312802D0322804D008BD0120FFF7F9FE08BD0220FFF7F5FE08BD10B501F0D7FD044603
:400A800005E001F0CDFDFFF7E9FF013CE4B2002CF7D110BD70B506460D46074C214600F0FDFF012000F0ECFF2146304600F0F6FF284601F0D3FD70BD9852000030B585B09C
:400AC000054600240DE02346084A052101A803F0F3FD074901A800F0E1FF012000F0D0FF0134AC42EFDB05B030BD00BF9C520000985200000122014B1A6070471C82FF1F02
:400B000010B502F089F9262000F0C0F900F00EF9104800F051F90121002000F017F90E4C204600F049F9272000F0B0F900F0FEF80A4800F041F90121002000F007F92046F6
:400B400000F03AF9064B01221A605A6002F0ACF910BD00BFA0520000AC520000B4520000DC81FF1F10B5044601F0BEFE114802F0C7F9012090FBF4F0C0EB401300EB830053
:400B800000EB8000030198B202F05AF9002302221021262000F068F800F01EF9002302221021272000F060F800F016F9FFF7A8FF10BD00BF110C000030B587B004460D461D
:400BC00002F02AF9012C01D1262000E027200E4C84FB0534EA17C2EBA4046FF0090303FB045500F053F92B462246084901A803F095FD0121052000F0A9F801A800F0DCF871
:400C000002F052F907B030BD67666666C052000010B500F059F90B4C84FB0034C017C0EB6414094B1B68012B03D121460120FFF7C3FF054B5B68012B03D121460220FFF774
:400C4000BBFF10BD1F85EB51DC81FF1F012803D10022044B1A607047022802D10022014B5A607047DC81FF1F10B4064C20700648017006490A70064A13700822054B1A7097
:400C800010BC70478782FF1F8C82FF1F8D82FF1F8982FF1F8682FF1F10B50C46002101F09FFF204601F0F8FF01F0DAFF10BD00BF08B5044B19780143034B1878FFF7ECFFD7
:400CC00008BD00BF8682FF1F8782FF1F10B5044640F00400FFF7ECFF012001F03BFD04F0FB00FFF7E5FF322001F034FD10BD00BF10B50446FFF7DCFF2046FFF7E7FF10BDFD
:400D000038B50D4600F0F0030401E4B243EA0100FFF7EEFF44EA0500FFF7EAFF38BD00BF08B50021FFF7ECFF08BD00BF08B50120FFF7F6FF022001F0F7FC08BD08B5022068
:400D4000FFF7EEFF022001F0EFFC08BD30B585B005460C460C4B0FCB0DF1100E0EE90F000A4B1B78A34201D25C1EE4B204AB03EB840454F8100C284460F07F00C0B2FFF7E3
:400D8000CFFF05B030BD00BFCC5200008D82FF1F08B5054B187840F00400187040F00800FFF7BEFF08BD00BF8882FF1F08B50121FFF7A6FF08BD00BF70B5064603F0D2FC99
:400DC0000546002403E0305DFFF7F0FF0134EBB29C42F8D370BD00BF08B50022254B1A70254B1B78012B02D90821224A1170234A127832B1012B04D11E4A137843F00403C7
:400E00001370322001F090FC1D4B1878FFF750FF4FF47A7001F088FC3020FFF769FF41F2941001F097FC3020FFF762FF41F2941001F090FC3020FFF75BFF962001F08AFCB0
:400E40002020FFF755FF0B4B187840F02000FFF767FF04220B4B1A70FFF79AFFFFF766FF0222094B1A700620FFF75AFFFFF766FF08BD00BF8B82FF1F8D82FF1F8982FF1F8F
:400E80008682FF1F8882FF1F8A82FF1F014B1870704700BF8782FF1F08B501F07BFF08BD08B501F02DFF08BD08B5064B1B68B3F5966F03DA0133034A136008BDFFF7F0FF04
:400EC00008BD00BFE481FF1F024B1B68642000FB03F07047E481FF1F0022014B1A607047E481FF1F044B1B68B3F5966F01DB012070470020704700BFE481FF1F08B503F051
:400F00005BF901464FF07E5003F05EFA054903F0A7F9054903F0A4F903F068FB80B201F0C1F808BD00007A440000204138B50546144601EB8101480080B201F033F905EB62
:400F40008505680080B201F0ADF904EB8404600080B201F0F7FF38BD2DE9F04F83B08046894614461D460E9E0F9F0022764BDDE90C0102F0CFFF18B10022734BCDE90C2399
:400F8000002200232046294602F0B0FF58B1582303FB06F6BC19DDE90C0102F0DBFF6060B851A060C7E022462B46DDE90C0102F021FD04460D460022644B4046494602F0E3
:400FC00043FECDE9000100224FF0804302F0D8F900225F4B02F05AFB024621F0004300205B4902F053FB02460B462046294602F001FD8046894622462B46DDE90C0102F0CE
:4010000045FB82468B46DDE9000102F0A3FF042824D8DFE800F0032A0E151E0042464B46A046A94614461D4600220023CDE900231FE0CDE900894FF000084FF0000918E0A1
:40104000CDE9004544464D464FF000084FF000090FE0CDE90045002400250AE0CDE90089A046A9460024002503E000220023CDE9002352465B464046494602F009FB30A337
:40108000D3E9002302F0B6FC02F02AF98046894652465B462046294602F0FAFA28A3D3E9002302F0A7FC02F01BF904460D4652465B46DDE9000102F0EBFA21A3D3E90023B3
:4010C00002F098FC02F00CF9CDE90001002200234046494602F000FF18B14FF000084FF00009002200232046294602F0F5FE08B10024002500220023DDE9000102F0ECFE30
:4011000018B100220023CDE90023582303FB06F607EB060A2046294602F01CFFCAF804004046494602F016FFB851DDE9000102F011FFCAF8080003B0BDE8F08FAFF30080F8
:401140000000000000E06F400000E03F00004E400000F03F70B50646436C012B04D1012001F076FB00251BE0022B1CD1002001F06FFBF7E7582404FB0564208D00F022FF2B
:40118000A08D00F01FFF208E00F01CFFA08E00F019FF208F00F016FFA08F00F013FF0135336C9D42E6DB70BD08B500F067FF01F09FFE0A4B186808B1FFF7CCFF642001F019
:4011C000C9FA064B586808B1FFF7C4FF642001F0C1FA01F085FE00F09BFF08BDE881FF1FF0B591B0189D199C03940295DDE91667CDE90067FFF7B0FE582303FB05F3E5183F
:40120000E1586868AA68002311E010F0800F06D0062610AC04EB830444F8306C05E0042610AC04EB830444F8306C40000133072BEBDD059B9B01049803EB4023069803EBA8
:40124000C00307980344AB62099B9B01089803EB40230A9803EBC0030B980344EB62002311E011F0800F06D0062410A800EB830040F8304C05E0042410A800EB830040F814
:40128000304C49000133072BEBDD059B9B01049903EB4123069903EBC10307990B442B63099B9B01089903EB41230A9903EBC1030B990B446B63002311E012F0800F06D07E
:4012C000062010A901EB830141F8300C05E0042010A901EB830141F8300C52000133072BEBDD059B9B01049A03EB4223069A03EBC203079A1344AB63099B9B01089A03EBAD
:4013000042230A9A03EBC2030B9A1344EB6311B0F0BD00BF2DE9F04F85B08046894692469B46DDE90E45109F00260AE003970296CDE9004552465B4640464946FFF750FF0A
:4013400001363B6C9E42F1DB05B0BDE8F08F00BFF0B585B0464B9B68002B40D1444B1B68DA6C012A10D1D3E90667D3E904450293404B186802F0EAFACDE9000132463B46E9
:4013800020462946FFF7C6FF394B5B68DA6C012A10D1D3E90667D3E904450293354B186802F0D4FACDE9000132463B4620462946FFF7B0FF2F4C206802F0C8FA2AA3D3E917
:4013C000002302F063F902F0EDFD2060002103F0E5F8002845D00122254B9A6041E0012B3FD1234B1B68DA6C012A10D1D3E90667D3E9044502931F4B186802F0A7FACDE9CF
:40140000000132463B4620462946FFF783FF184B5B68DA6C012A10D1D3E90667D3E904450293144B186802F091FACDE9000132463B4620462946FFF76DFF0E4C206802F013
:4014400085FA09A3D3E9002302F022F902F0AAFD20604FF07C5103F097F810B10022044B9A6005B0F0BD00BF7B14AE47E17A843FE881FF1FCC80FF1F30B585B02B4BDB68FB
:4014800013B1012B29D04FE0284B1B681A6D012A0CD1D3E90645D3E9040102930022244BCDE9002322462B46FFF734FF1F4B5B681A6D012A0CD1D3E90645D3E904010293AD
:4014C00000221B4BCDE9002322462B46FFF722FF164AD3680133D36026E0144B1B681A6D012A0CD1D3E90645D3E90401029300220023CDE9002322462B46FFF70BFF0B4B78
:401500005B681A6D012A0CD1D3E90645D3E90401029300220023CDE9002322462B46FFF7F9FE0022014BDA6005B030BDE881FF1F0000F03F2DE9F04385B0404B1A68936C8E
:4015400023B93E494968896C002973D0012B08D1002000210292CDE9000102460B46FFF7D9FE364B5B689A6C012A08D1002000210293CDE9000102460B46FFF7CBFE2F4B52
:401580001C6938E02D4B1B689A6C012A16D11D6CAC4201DB651B00E02546582202FB0532D2E90689D2E9040103930295D2E90867CDE9006742464B46FFF712FE1F4B5B68E5
:4015C0009A6C012A16D11D6CAC4201DB651B00E02546582202FB0532D2E90689D2E9040103930295D2E90867CDE9006742464B46FFF7F6FD0134114B1A695B6913449C427A
:40160000C0DB0E4B1B684BB11B6C013B9A4201DA013200E00022094B1A610BE0074B5B6843B11B6C013B9A4201DA013200E00022024B1A6105B0BDE8F08300BFE881FF1F3B
:4016400010B5044601F01AFD0023A364E364236510BD00BF30B585B00D46012A02D10E4B196001E00C4B596028646A642846FFF7E7FF00240AE00020002103950294CDE9C9
:40168000000102460B46FFF7ABFD01342B6C9C42F1DB05B030BD00BFE881FF1F38B50546164800F05DFD164800F05AFE154800F0D7FD154801F0A4FC144801F0C9FC144C8D
:4016C0002068FFF7BDFF6068FFF7BAFF0023636123614FF07C510F4A1160A360A361E36000F0B6FC00F014FD00F092FD00F010FE01F05EFC2846FFF701FC38BDA911000033
:40170000351500005113000079140000051A0000E881FF1FCC80FF1F2DE9F04784B004460D4616461F46DDE90C89DDF838A05046FFF786FF0123CAF84C30CAE90445CAE955
:401740000667CAE90889CDF808A0CDE9008932463B4620462946FFF7DDFD04B0BDE8F0872DE9F04790469946DDE90867DDE90A45DDF830A00C4B58615046FFF761FF01238D
:40178000CAF84830002209E0582303FB02A3C3E90489C3E90667C3E908450132DAF840309A42F1DBBDE8F087E881FF1F2DE9F0478046894616461F46DDE90845DDF828A068
:4017C0005046FFF73DFF0123CAF85030002209E0582303FB02A3C3E90489C3E90667C3E908450132DAF840309A42F1DBBDE8F08700B585B0029008A3D3E90023CDE900232F
:401800000022094B06A1D1E90001FFF785FF05B05DF804FBAFF30080333333333333EB3F00000000003073400000F03F0000000010B584B00446FFF703FF029406A3D3E987
:401840000023CDE900230022054B00200549FFF761FD04B010BD00BF8FC2F5285C8FEA3F0000F03F0000084000B587B004900022064BCDE90223CDE900230022044B0320C4
:40188000FFF76EFF07B05DF804FB00BF0000F03F0040504010B584B00446FFF7D1FE0022044B0294CDE9002300200349FFF732FD04B010BD0000F03F00005D400000000036
:4018C0002DE9F04784B080468A46494B9B69052B00F28480DFE803F0030C2A435C7DFFF7AFFE5046FFF7ACFE01F012FC01F0A4FB0026404F0024404DCDF808800FF2E809F7
:40190000D9E90089CDE9008932463B4620462946FFF700FDCDF808A0CDE9008932463B4620462946FFF7F6FC002058E00024314D0026324F0290CDE9004522462B4630467D
:401940003946FFF7E7FCCDF808A0CDE9004522462B4630463946FFF7DDFC00203FE00024244D0026254F0290CDE9004522462B4630463946FFF7CEFCCDF808A0CDE9004519
:4019800022462B4630463946FFF7C4FC002026E00024184D00261A4F0290CDE9004522462B4630463946FFF7B5FCCDF808A0CDE9004522462B4630463946FFF7ABFC01F09F
:4019C0005DFB01F03FFB0A4A936901339361002005E00022064B9A61012000E0002004B0BDE8F087AFF300808FC2F5285C8FEA3FE881FF1F0000F03F000008400040504016
:401A000000005D4008B5044B9A6901329A6159681868FFF755FF08BDE881FF1F0000000000B585B0029008A3D3E90023CDE900230022074B00200749FFF7B8FE05B05DF87C
:401A400004FB00BFAFF300808FC2F5285C8FEA3F0000F03F0000084010B584B00446FFF7EFFD0022044B0294CDE9002300200349FFF750FC04B010BD0000F03F00005D408D
:401A800038B50546002403E0034800F0E7FD0134AC42F9DB38BD00BFDC52000038B505460C46084800F0DAFD284600F0D7FD064800F0D4FD204600F0D1FD044800F0CEFDE2
:401AC00038BD00BFE4520000E8520000EC52000008B5002001F02AFB01F06AFB102806D0202809D1064B187801F056FB08BD044B187901F051FB08BD01F04EFB08BD00BF83
:401B00009082FF1F08B5002001F010FB01F09AFB014801F0C5FB08BDD11A000008B50A4B186010F0010F01D18B0002E08B0043F0020311F0010F01D043F00103024A5360B8
:401B4000FF2001F0F3FA08BD9082FF1FFEE700BFF0B40022174611E050F82760F3B226F0FF0608E001EB420511F812406D78A5550132013BDBB2002BF4D10137272FEBD999
:401B8000F0BC704708B50A46002102F08CFD08BDF8B5144B1B78DBB2134E3478E4B2134F3D78EDB203F00701114A11701B090132137044F00303337045F003033B708022B9
:401BC0000C4B1A70C02203F21F231A70202203331A700A2000F0BEFD3D7034704422064B1A70F8BDCF010049F8460040F94600406E580040015900407658004008B502F0D0
:401C000047FD08BD38B50422344B1A80182334490B7033200231088002310B7077200231088002310B7040F65F100231088002310B702C492C48FFF7E1FF02222B4B1A708F
:401C400008224FF040231A70032103F500731970274B1B78DBB227490B70274B1A8041F25122023B1A80002419250CE0234B1B7803F0010343EA440404F003044FF4F07097
:401C800001F01EFB013D0DB1032CEFD115B90320FFF75CFF1A4B4FF480721A8007221A70002218490A704820023108701A700222033B1A7004220A331A70134A137843F078
:401CC0000F031370013A137843F001031370013A137843F08003137038BD00BF8040004082400040500F0048004100400043004008010049A14600402242004025420040AB
:401D00000440004006400040A2430040012807D8044B53F820201844017A13780B431370704700BF10530000012808D8044B53F820201844017A137823EA010313707047F6
:401D40001053000038B572B6394A137843F00403137000240BE0374863001A19510001440A46098AD068FFF70DFF0134E4B2072CF1D900240CE02F48A20011194B0003449C
:401D8000B3F84420196CD86BFFF738FF0134E4B2012CF0D928494FF09040FFF7D9FE274A274B1A60274A137843F0020313701032137843F002031370234C237843F04003F5
:401DC0002370A2F58632513A137843F01003137008221E491E48FFF711FF0A221D491E48FFF70CFF08221D491D48FFF707FF08221C491D48FFF702FF08221C491C48FFF767
:401E0000FDFE1C4A137843F0080313701A4D61232B70FFF7F7FE81232B700122174B1A70FFF7B6FE0E2221461548FFF7E7FE38BDE846004010530000A0000048040404649F
:401E4000D814014003500140A0430040240F0048025100402C0F0048C0510040380F0048F2510040400F004812510040480F00483251004022430040004800400400084075
:401E8000B043004008B502F0D7FB03680C2B00D1FEE7FEE708B5094B1A681044084BC31A802B02DC054B186005E002F0C5FB0C2303604FF0FF32104608BD00BFD080FF1FE8
:401EC000C082FF1F08B5104E104D16E029686B68AC68002204E051F8040B43F8040B0432A242F8D1E868002203E0002143F8041B04328242F9D11035013E002EE6D102F022
:401F0000A1FBFEF7BFF8FEE701000000D453000008B5104A104B1A60104A136843F40073136000230AE0032B03D80D4A52F8231000E00C490C4A42F8231001332F2BF2D933
:401F40000A4B1A780A4B1A70074A0A4B1A60FFF7F9FE08BD0004FA050CED00E014ED00E000000000851E00000080FF1FBC760040C080FF1F08ED00E008B501F0A9F90A4A82
:401F8000137843F020031370033A137843F0100313700C3A137843F01003137001F09CF900F09AFB08BD00BF9F640040014B1878704700BF6C640040014B1878704700BF0C
:401FC00060640040034B1B7813F0040FFAD0024B188070476C6400404064004008B501E00E4B1B880E4B1B7813F0200FF8D101F06FF90C4B1A7842F001021A701A7802F086
:40200000FE021A7001331A7842F001021A701A7802F0FE021A7001F05FF908BD50640040606400409064004008B51722064B1A70FFF7D4FFFFF7BAFFFFF7BEFF0023034ADD
:4020400013700C3A137008BD8F6400408C64004008B5054B1B7823B9FFF7E6FF0122024B1A70FFF789FF08BD0482FF1F024A137843F080031370704774650040024A1378FD
:4020800003F07F031370704774650040014B1870704700BF84650040014B1878704700BF64650040014B1880704700BF486A0040014B188880B27047886A0040014B188053
:4020C000704700BF086A004008B501E0FFF7F0FFFFF7E2FF10F0080FF8D108BD08B540F2E730FFF7DFFF40F2E730FFF7E7FF01F0EFF8064A137843F01003137001F0ECF869
:40210000FFF7E2FF0120FFF7C1FF08BD9465004008B5054B1B7823B9FFF7E0FF0122024B1A70FFF7A3FF08BD0582FF1F014B1B681865704708ED00E04001C0B2014B187047
:40214000704700BF04E400E01022014B1A60704700E100E01022014B1A60704780E100E010B50446FFF7F6FF2046FFF7DFFF0720FFF7E2FFFFF7E8FF10BD00BF024A13784F
:4021800043F080031370704775640040014B1870704700BF87640040014B1878704700BF67640040014B1880704700BF4C680040014B188880B270478C680040014B188009
:4021C000704700BF0C68004008B501E0FFF7F0FFFFF7E2FF10F0080FF8D108BD08B542F20F70FFF7DFFF42F20F70FFF7E7FF01F06FF8064A137843F01003137001F06CF892
:40220000FFF7E2FF0120FFF7C1FF08BD9764004008B5054B1B7823B9FFF7E0FF0122024B1A70FFF7ABFF08BD0682FF1F014B1B68D864704708ED00E04001C0B2014B18707C
:40224000704700BF03E400E00822014B1A60704700E100E00822014B1A60704780E100E010B50446FFF7F6FF2046FFF7DFFF0720FFF7E2FFFFF7E8FF10BD00BF024A13785F
:4022800043F080031370704777640040014B1870704700BF85640040014B1878704700BF65640040014B1880704700BF48680040014B188880B2704788680040014B188012
:4022C000704700BF0868004008B501E0FFF7F0FFFFF7E2FF10F0080FF8D108BD08B542F20F70FFF7DFFF42F20F70FFF7E7FF00F0EFFF064A137843F01003137000F0ECFF89
:40230000FFF7E2FF0120FFF7C1FF08BD9564004008B5054B1B7823B9FFF7E0FF0122024B1A70FFF7ABFF08BD0782FF1F014B1B685865704708ED00E04001C0B2014B1870FB
:40234000704700BF05E400E02022014B1A60704700E100E02022014B1A60704780E100E010B50446FFF7F6FF2046FFF7DFFF0720FFF7E2FFFFF7E8FF10BD00BF08B50A2814
:402380000FD00C2802D0082806D102E04FF4805209E04FF4807206E0002000F0C3F9002201E04FF480620021084B198042F2107303FB02F313F5806301D503F2FF73DB1276
:4023C000034A13600022034B1A8008BD9882FF1F9C82FF1F9A82FF1F10B500F079FF04461E4A137843F0010313701032137843F0010313701A3A137843F00103137010321A
:40240000137843F00103137002F5AA521232137843F0030313701822114B1A70013B1A7842F040021A701A7802F0FC021A70C822053B1A700222A3F597530C3B1A70094A63
:40244000137843F0080313700A2000F083F90122054B1A60204600F03FFF10BDAB43004006590040275B004080E200E010B504460A280DD00C2802D0082804D101E0C2226D
:4024800007E0422205E0002000F04CF9C22200E08222034B1A702046FFF770FF10BD00BF0259004008B5102000F024F90621002000F06EF90749002000F056F9064A137843
:4024C00043F0060313700C20FFF7D0FF0022034B1A8008BDA125000001590040A082FF1F08B5054B1B7823B9FFF7DCFF0122024B1A70FFF771FF08BD0882FF1F024A1378CC
:4025000043F00103137070470059004010B5074B1B7813F0010401D10028F8D024B1012000F018F9014B1B78204610BD01590040034B188880B2034B1B88C01A00B2704726
:40254000A05B00409A82FF1F10B4124B1B881BB233B1104B1B881BB203EB83035C0001E00D4B1C680D4B1988411A09B242F2107303FB01F2002903DD04EBD470401003E0F3
:4025800004EBD47040104042831893FBF4F000B210BC70479882FF1F9C82FF1FA082FF1F704700BF7222084B1A702022023B1A700622A3F265131A70472210331A70002219
:4025C0004F331A70704700BF8A65004010B500F07FFE04460A4A137843F020031370023A137843F010031370A2F58372137843F01003137000F088F8204600F06DFE10BD88
:402600009A65004008B5054B1B7823B9FFF7CAFF0122024B1A70FFF7D9FF08BD0982FF1F014B1878704700BF4B650040044B1B7813F0200F01D0012070470020704700BF55
:4026400068650040034B1B7813F0040FFAD1024B18707047626400404264004038B5074B1B782BB938BDFFF7EDFF0134A4B201E005460024285D0028F5D138BD0982FF1F9A
:40268000014B1B689866704708ED00E04001C0B2014B1870704700BF0AE400E04FF48062014B1A60704700BF00E100E04FF48062014B1A60704700BF80E100E010B5044623
:4026C000FFF7F4FF2046FFF7DBFF0720FFF7DEFFFFF7E4FF10BD00BF054A137843F0010313701032137843F001031370704700BFA2430040034B1A7800F0F8001043187003
:40270000704700BF02410040054A137843F0020313701032137843F002031370704700BFA243004001BE704710B5044605E0084B186800F0C5FDA4F50044B4F5004FF6D856
:40274000034B586800FB04F000F0BAFD10BD00BFD480FF1F08B5034B1B7A00FB03F000F0AFFD08BDD480FF1F70B504460E46074B1D681F2802D90020FFF7D4FF04F01F049A
:40278000103455F8240045F8246070BD08ED00E038B504460D46072902D90020FFF7C2FF1F2C02D90020FFF7BDFF04F01F0000F1604000F564406D01EDB2057038BD00BFCA
:4027C00010B5002404E02046FFF7AEFA0134E4B2012CF8D9FF22014B1A7010BDE480FF1F10B50446054B1878FF2801D0FFF79CFA2046FFF78BFA014B1C7010BDE480FF1F7E
:40280000014B1B689865704708ED00E04001C0B2014B1870704700BF06E400E04022014B1A60704700E100E04022014B1A60704780E100E010B50446FFF7F6FF2046FFF763
:40284000DFFF0720FFF7E2FFFFF7E8FF10BD00BF014B1870704700BF7264004038B50222114B1A7081220E3B1A70082202331A700F2511331D70002401331C704FF40042EF
:402880000A4B1A6003212846FFF782FF08492846FFF76AFF1022074B1A70074B1C70074B1C70074B1C7038BDD649004080E100E011290000A282FF1FA682FF1FA882FF1FDB
:4028C000A482FF1F08B500F003FD064A137843F0040313701032137843F00403137000F0FBFC08BDA543004008B5074B1B7823B9FFF7B4FF0122044B1A70FFF7E3FF4FF4B3
:402900000042024B1A6008BD0B82FF1F00E100E038B5A54B1C78A54B1B7813F0400F00F03A81E4B214F0010F00F01D819F4B1B78453B052B00F21481DFE813F0060082002E
:40294000120112010600DF0004F0DF0504F00A04082C42D1954B1B78DBB2452B35D1944B1B7813F0FF0F10D0924B1B681B78DBB2914A137004228C4B1A7001228F4B1A7066
:4029800046228A4B1A702C46EDE08D4B1B7813F0020F0DD08B4A137843F00A0313706022824B1A704FF40042874B1A602C46DAE0864A137843F0100313701022844B1A700D
:4029C0000422023B1A702C46CDE00022764B1A704A22764B1A702C46C5E00A2C2BD1794A137843F0A0031370754B1B7813F0020F14D06E4B1B7813F0080F01D0092300E029
:402A00000A23704A11780B4313706022674B1A704FF400426C4B1A602C46A4E06B4A137843F0100313701022694B1A700422023B1A702C4697E00020FFF774FE2C4692E030
:402A400014F0020F36D15D4B1A78D2B2584B1B78DBB29A4210D2594A1378DBB255490968CB5CDBB254490B7004214F4B197013780133DBB2137076E0514B1B7813F0020FB5
:402A80000CD0504A137843F00A0313706022474B1A704FF400424C4B1A6064E04B4A137843F0100313701022494B1A700422023B1A7058E0424B1B7813F0020F0CD0414AE1
:402AC000137843F09A0313706022384B1A704FF400423D4B1A6046E03C4A137843F01003137010223A4B1A700422023B1A70354A137843F09003137035E0364A1378DBB2B4
:402B0000354908682C490978C9B2C15413780133DBB213701278D2B2304B1B78DBB29A4203D21022204B1A701DE0254B1B7813F0020F0CD0234A137843F0090313706022A5
:402B40001A4B1A704FF400421F4B1A600BE01F4A137843F0100313700022134B1A7002E00020FFF7DFFD14F0200F1CD00F4B1B7813F0080F01D0012300E00223114A117873
:402B80000B431370114A137803F0EF0313701022064B1A7038BD054B1B7813F0100F02D11022024B1A7038BDD7490040A282FF1FA782FF1FAC82FF1FD8490040A482FF1F44
:402BC000A582FF1FA682FF1F80E100E0D6490040D9490040A882FF1FB082FF1FB482FF1F1A4B1B78DBB2102B29D1194B1B7813F0080F26D14FF40042164B1A604000C0B288
:402C000029B140F001004922104B1A7002E045220E4B1A70104B1870012201331A700F4B1B7813F0010FFAD00C4B1B7803F00A030A2B08D11022054B1A700320704702207F
:402C40007047012070470020704700BFA282FF1FD949004080E100E0D8490040D74900400A4B1B7813F0040F0ED01023074A13700421023A1170064A1370064B1B7813F00A
:402C8000210FFAD00020704702207047D9490040A282FF1FD7490040114B1B7813F0040F1BD0104B18700422013B1A7046220E4B1A700E4B1B7813F0010FFAD00B4B1B78AA
:402CC00013F0020F04D16022074B1A70002070476022054B1A70032070470220704700BFD9490040D8490040A282FF1FD7490040024A137843F08003137070477A6400409E
:402D0000024A137803F07F03137070477A640040014B1870704700BF8D640040014B1878704700BF6D640040014B1880704700BF58680040014B188880B2704798680040A2
:402D4000014B1880704700BF1868004008B501E0FFF7F0FFFFF7E2FF10F0080FF8D108BD08B540F2E730FFF7DFFF40F2E730FFF7E7FF00F0ADFA064A137843F01003137000
:402D800000F0AAFAFFF7E2FF0020FFF7C1FF08BD9D64004008B5054B1B7823B9FFF7E0FF0122024B1A70FFF7A3FF08BD0C82FF1F014B1B685866704708ED00E04001C0B2AC
:402DC000014B1870704700BF09E400E04FF40072014B1A60704700BF00E100E04FF40072014B1A60704700BF80E100E010B50446FFF7F4FF2046FFF7DBFF0020FFF7DEFFB7
:402E0000FFF7E4FF10BD00BF024A137843F08003137070477B640040024A137803F07F03137070477B640040014B1870704700BF8B640040014B1878704700BF6B640040C8
:402E4000014B1880704700BF54680040014B188880B2704794680040014B1880704700BF1468004008B501E0FFF7F0FFFFF7E2FF10F0080FF8D108BD08B5A520FFF7E0FF7F
:402E8000A520FFF7E9FF00F023FA064A137843F01003137000F020FAFFF7E4FF0020FFF7C3FF08BD9B64004008B5054B1B7823B9FFF7E2FF0122024B1A70FFF7A5FF08BD53
:402EC0000D82FF1F014B1B681866704708ED00E04001C0B2014B1870704700BF08E400E04FF48072014B1A60704700BF00E100E04FF48072014B1A60704700BF80E100E09F
:402F000010B50446FFF7F4FF2046FFF7DBFF0220FFF7DEFFFFF7E4FF10BD00BF024A137843F080031370704778640040014B1870704700BF89650040014B1878704700BF5C
:402F400069650040014B1880704700BF506A0040014B188880B27047906A0040014B1880704700BF106A004008B501E0FFF7F0FFFFF7E2FF10F0080FF8D108BD08B542F2DC
:402F80000F70FFF7DFFF42F20F70FFF7E7FF00F09FF9064A137843F01003137000F09CF9FFF7E2FF0120FFF7C1FF08BD9965004008B5054B1B7823B9FFF7E0FF0122024B0C
:402FC0001A70FFF7ABFF08BD0E82FF1F014B1B689864704708ED00E04001C0B2014B1870704700BF02E400E00422014B1A60704700E100E00422014B1A60704780E100E0D2
:4030000010B50446FFF7F6FF2046FFF7DFFF0720FFF7E2FFFFF7E8FF10BD00BF014B1B68D865704708ED00E04001C0B2014B1870704700BF07E400E08022014B1A60704776
:4030400000E100E08022014B1A60704780E100E010B50446FFF7F6FF2046FFF7DFFF0520FFF7E2FFFFF7E8FF10BD00BF024A137843F080031370704779640040024A1378DB
:4030800003F07F031370704779640040014B1870704700BF89640040014B1878704700BF69640040014B1880704700BF50680040014B188880B2704790680040014B18802B
:4030C000704700BF1068004008B501E0FFF7F0FFFFF7E2FF10F0080FF8D108BD08B542F20F70FFF7DFFF42F20F70FFF7E7FF00F0EFF8064A137843F01003137000F0ECF881
:40310000FFF7E2FF0120FFF7C1FF08BD9964004008B5054B1B7823B9FFF7E0FF0122024B1A70FFF7A3FF08BD0F82FF1F044A137803F0DF03400100F02000184310707047F7
:403140003051004008B500F0C3F80B4A137843F020031370FF3A137843F01003137002F20112137843F01003137000F0B5F80222024B1A6008BD00BF9565004000E100E07E
:40318000014B1878704700BF66640040014B1878704700BF67650040034B1B7813F0020FFAD0024B187070476664004046650040014B1878704700BF5665004008B501E02A
:4031C0000A4B1B780A4B1B7813F0080FF8D100F07FF8084B1A7842F003021A701A7802F0FC021A7000F078F808BD00BF56650040676500409665004010B507240D4B1C7009
:4032000002220D4B1A600D490120FFF7ADFA21460120FFF7BDFAFFF7D1FFFFF7B1FFFFF7B5FF0022064B1A70082203F201131A7010BD00BF8565004080E100E061320000F5
:403240008664004008B5054B1B7823B9FFF7D4FF0122024B1A70FFF775FF08BD1082FF1F704700BF014B1B68D866704708ED00E04001C0B2014B1870704700BF0BE400E02B
:403280004FF40062014B1A60704700BF00E100E04FF40062014B1A60704700BF80E100E010B50446FFF7F4FF2046FFF7DBFF0720FFF7DEFFFFF7E4FF10BD00BF00000000BD
:4032C0000230800803D000BF01380046FCD17047EFF3108072B6704780F31088704700BFF8B5C1F30A56A6F2FF35132D0A460B460446864611DC002D2EDB0F461F492941DF
:403300000A4225D04FF400232B413B4423EA01030026194634462046F8BD332D05DDB5F5806F1FD011462046F8BDA6F213464FF0FF3121FA06F63042F4D00122C5F13305D6
:4033400002FA05F52D1828BF9B1825EA0606E0E70028D7D11146E6E7013501F0004307D00026D6E702460B4600F092F90446D2E743F07F5343F440130026CAE7FFFF0F00F4
:403380002DE9F04F8BB01D4680468946144600F059F82A4B064693F900A00F46BAF1FF3F2FD022462B462046294600F0BDFD40BB42464B464046494600F0B6FD834600BB18
:4033C000002200232046294600F07CFDC8B11C4A0123CDE90289CDE90445CDF820B001920093BAF1000F11D1CDE90689684600F047F9B0B1089BDBB9DDE906010BB0BDE8C8
:40340000F08F304639460BB0BDE8F08F002200231046194600F018FCBAF1020FCDE90601E4D101F009F921230360089B002BE3D001F002F9089B0360DEE700BFE580FF1FF9
:40344000605300002DE9F84F23F0004952EA090620D001F00046834F81EA0608B84519DC57421743DFF814B249EAD7775F45944610D8C8451D4682460446964612DC0FDB84
:4034800090420DD30ED1784BF60F03EBC60393E8030005E000F0AEFA02460B4600F0D4FBBDE8F88FB8F5801F0EDAB8F1000F40F09C80BAF1000F53466C4909DD5B00002BD1
:4034C00001F1FF31FADC03E04FEA2851A1F2FF31B9F5801F0EDAB9F1000F40F09F80BCF1000F6346614F09DD5B00002B07F1FF37FADC03E04FEA2957A7F2FF375C4B9942CD
:4035000056DBC8F3130343F48013594A97425EDBC5F3130545F48015C91B07E052EA000313D0C30F03EB420344000139CEEB04005A1B89B1744538BF02F1FF32002AEDDACB
:40354000E20F02EB43036400EFE7474BF60F03EBC60696E80300A3E71546744538BF02F1FF35002DB4BF1D46CEEB040455EA0403EBD0404A954208DCE30F03EB4505954254
:4035800007F1FF374FEA4404F6DD394B9F424EDA374AD21B142A54DCC2F12003D44005FA03F3234345FA02F242EA0601184677E72F4C641A1F2C2BDCC4F1200308FA04F898
:4035C0002AFA03F343EA08030AFA04F49DE72848C01B1F2815DCC0F1200209FA00F52CFA02F215430CFA00FE96E74FEAC823002B1F497FF76DAF5B00002B01F1FF31FADCF1
:4036000066E71D4D4FF0000EED1B0CFA05F583E7194B00245B1A0AFA03F376E7144F4FEAC9235B00002B07F1FF37FADC66E7A5F580152E4307F2FF3746EA07532046194643
:403640002EE71F2A07DCC2F12003D4409D4045EA04033246A8E7084B3246DB1B45FA03F3A2E700BFFFFFEF7F68530000EDFBFFFF02FCFFFFFFFF0F00E2FBFFFF0000F07F67
:403680000020704781F0004102E000BF83F0004330B54FEA41044FEA430594EA050F08BF90EA020F1FBF54EA000C55EA020C7FEA645C7FEA655C00F0E2804FEA5454D4EBA8
:4036C0005555B8BF6D420CDD2C4480EA020281EA030382EA000083EA010180EA020281EA0303362D88BF30BD11F0004F4FEA01314FF4801C4CEA113102D0404261EB41017D
:4037000013F0004F4FEA03334CEA133302D0524263EB430394EA050F00F0A780A4F10104D5F1200E0DDB02FA0EFC22FA05F2801841F1000103FA0EF2801843FA05F35941EB
:403740000EE0A5F120050EF1200E012A03FA0EFC28BF4CF0020C43FA05F3C01851EBE37101F0004507D54FF0000EDCF1000C7EEB00006EEB0101B1F5801F1BD3B1F5001F7F
:403780000CD349085FEA30004FEA3C0C04F101044FEA445212F5800F80F09A80BCF1004F08BF5FEA500C50F1000041EB045141EA050130BD5FEA4C0C404141EB010111F459
:4037C000801FA4F10104E9D191F0000F04BF01460020B1FA81F308BF2033A3F10B03B3F120020CDA0C3208DD02F1140CC2F10C0201FA0CF021FA02F10CE002F11402D8BF0D
:40380000C2F1200C01FA02F120FA0CFCDCBF41EA0C019040E41AA2BF01EB0451294330BD6FEA04041F3C1CDA0C340EDC04F11404C4F1200220FA04F001FA02F340EA030012
:4038400021FA04F345EA030130BDC4F10C04C4F1200220FA02F001FA04F340EA0300294630BD21FA04F0294630BD94F0000F83F4801306BF81F480110134013D4EE77FEA0F
:40388000645C18BF7FEA655C29D094EA050F08BF90EA020F05D054EA000C04BF1946104630BD91EA030F1EBF0021002030BD5FEA545C05D14000494128BF41F0004130BD6F
:4038C00014F580043CBF01F5801130BD01F0004545F0FE4141F470014FF0000030BD7FEA645C1ABF194610467FEA655C1CBF0B46024650EA013406BF52EA033591EA030FC6
:4039000041F4002130BD00BF90F0000F04BF0021704730B54FF4806404F132044FF000054FF0000150E700BF90F0000F04BF0021704730B54FF4806404F1320410F0004504
:4039400048BF40424FF000013EE700BF42004FEAE2014FEA31014FEA02701FBF12F07F4393F07F4F81F06051704792F0000F14BF93F07F4F704730B54FF4607401F00045BC
:4039800021F0004120E700BF50EA010208BF704730B54FF000050AE050EA010208BF704730B511F0004502D5404261EB41014FF4806404F132045FEA915C3FF4DCAE4FF0D0
:4039C00003025FEADC0C18BF03325FEADC0C18BF033202EBDC02C2F1200300FA03FC20FA02F001FA03FE40EA0E0021FA02F11444C1E600BF70B54FF0FF0C4CF4E06C1CEAA1
:403A000011541DBF1CEA135594EA0C0F95EA0C0F00F0DEF82C4481EA030621EA4C5123EA4C5350EA013518BF52EA033541F4801143F4801338D0A0FB02CE4FF00005E1FBC8
:403A400002E506F00042E0FB03E54FF00006E1FB03569CF0000F18BF4EF0010EA4F1FF04B6F5007F64F5407404D25FEA4E0E6D4146EB060642EAC62141EA55514FEAC520F4
:403A800040EA5E504FEACE2EB4F1FD0C88BFBCF5E06F1ED8BEF1004F08BF5FEA500E50F1000041EB045170BD06F0004646EA010140EA020081EA0301B4EB5C04C2BFD4EB6B
:403AC0000C0541EA045170BD41F480114FF0000E013C00F3AB8014F1360FDEBF002001F0004170BDC4F10004203C35DA0C341BDC04F11404C4F1200500FA05F320FA04F0F2
:403B000001FA05F240EA020001F0004221F0004110EBD37021FA04F642EB06015EEA430E08BF20EAD37070BDC4F10C04C4F1200500FA04F320FA05F001FA04F240EA0200C5
:403B400001F0004110EBD37041F100015EEA430E08BF20EAD37070BDC4F1200500FA05F24EEA020E20FA04F301FA05F243EA020321FA04F001F0004121FA04F220EA020022
:403B800000EBD3705EEA430E08BF20EAD37070BD94F0000F0FD101F00046400041EB010111F4801F08BF013CF7D041EA060195F0000F18BF704703F00046520043EB030363
:403BC00013F4801F08BF013DF7D043EA0603704794EA0C0F0CEA135518BF95EA0C0F0CD050EA410618BF52EA4306D1D181EA030101F000414FF0000070BD50EA410606BF50
:403C00001046194652EA430619D094EA0C0F02D150EA013613D195EA0C0F05D152EA03361CBF104619460AD181EA030101F0004141F0FE4141F470014FF0000070BD41F0FC
:403C4000FE4141F4780170BD70B54FF0FF0C4CF4E06C1CEA11541DBF1CEA135594EA0C0F95EA0C0F00F0A7F8A4EB050481EA030E52EA03354FEA013100F088804FEA03335E
:403C80004FF0805545EA131343EA12634FEA022245EA111545EA10654FEA00260EF000419D4208BF964244F1FD0404F5407402D25B084FEA3202B61A65EB03055B084FEA3C
:403CC00032024FF480104FF4002CB6EB020E75EB030E22BFB61A754640EA0C005B084FEA3202B6EB020E75EB030E22BFB61A754640EA5C005B084FEA3202B6EB020E75EBC5
:403D0000030E22BFB61A754640EA9C005B084FEA3202B6EB020E75EB030E22BFB61A754640EADC0055EA060E18D04FEA051545EA16754FEA06164FEAC30343EA52734FEA15
:403D4000C2025FEA1C1CC0D111F4801F0BD141EA00014FF000004FF0004CB6E711F4801F04BF01430020B4F1FD0C88BFBCF5E06F3FF6AFAEB5EB030C04BFB6EB020C5FEA9E
:403D8000500C50F1000041EB045170BD0EF0004E4EEA113114EB5C04C2BFD4EB0C0541EA045170BD41F480114FF0000E013C90E645EA060E8DE60CEA135594EA0C0F08BF5B
:403DC00095EA0C0F3FF43BAF94EA0C0F0AD150EA01347FF434AF95EA0C0F7FF425AF104619462CE795EA0C0F06D152EA03353FF4FDAE1046194622E750EA410618BF52EA15
:403E000043067FF4C5AE50EA41047FF40DAF52EA43057FF4EBAE12E74FF0FF3C06E000BF4FF0010C02E000BF4FF0010C4DF804CD4FEA410C7FEA6C5C4FEA430C18BF7FEA2F
:403E40006C5C1BD001B050EA410C0CBF52EA430C91EA030F02BF90EA020F0020704710F1000F91EA030F58BF994208BF90422CBFD8176FEAE37040F0010070474FEA410C35
:403E80007FEA6C5C02D150EA013C07D14FEA430C7FEA6C5CD6D152EA033CD3D05DF8040B704700BF8446104662468C461946634600E000BF01B5FFF7B7FF002848BF10F184
:403EC000000F01BD4DF808EDFFF7F4FF0CBF012000205DF808FB00BF4DF808EDFFF7EAFF34BF012000205DF808FB00BF4DF808EDFFF7E0FF94BF012000205DF808FB00BF91
:403F00004DF808EDFFF7CEFF94BF012000205DF808FB00BF4DF808EDFFF7C4FF34BF012000205DF808FB00BF4FEA410C7FEA6C5C02D150EA013C0AD14FEA430C7FEA6C5C06
:403F400002D152EA033C02D14FF0000070474FF0010070474FEA410212F5001215D211D56FF47873B3EB625212D94FEAC12343F0004343EA505311F0004F23FA02F018BFAD
:403F8000404270474FF00000704750EA013005D111F0004008BF6FF0004070474FF00000704700BF4FEA4102B2F1E04324BFB3F5001CDCF1FE5C0DD901F0004C4FEAC00250
:403FC0004CEA5070B2F1004F40EB830008BF20F00100704711F0804F21D113F13872BCBF01F00040704741F480114FEA5252C2F11802C2F1200C10FA0CF320FA02F018BF8E
:4040000040F001004FEAC1234FEAD32303FA0CFC40EA0C0023FA02F34FEA4303CCE77FEA625307D150EA01331EBF4FF0FE4040F44000704701F0004040F0FE4040F40000C8
:40404000704700BF80F0004002E000BF81F0004142001FBF5FEA410392EA030F7FEA226C7FEA236C6AD04FEA1262D2EB1363C1BFD218414048404140B8BF5B42192B88BFF0
:40408000704710F0004F40F4000020F07F4018BF404211F0004F41F4000121F07F4118BF494292EA030F3FD0A2F1010241FA03FC10EB0C00C3F1200301FA03F100F0004378
:4040C00002D5494260EB4000B0F5000F13D3B0F1807F06D340084FEA310102F10102FE2A51D2B1F1004F40EBC25008BF20F0010040EA03007047490040EB000010F4000F5B
:40410000A2F10102EDD1B0FA80FCACF1080CB2EB0C0200FA0CF0AABF00EBC25052421843BCBFD0401843704792F0000F81F4000106BF80F400000132013BB5E74FEA4103F9
:404140007FEA226C18BF7FEA236C21D092EA030F04D092F0000F08BF0846704790EA010F1CBF0020704712F07F4F04D1400028BF40F00040704712F100723CBF00F5000035
:40418000704700F0004343F0FE4040F4000070477FEA226216BF08467FEA23630146420206BF5FEA412390EA010F40F4800070474FF0000304E000BF10F0004348BF404217
:4041C0005FEA000C08BF704743F0964301464FF000001CE050EA010208BF70474FF000030AE000BF50EA010208BF704711F0004302D5404261EB41015FEA010C02BF8446F1
:404200000146002043F0B64308BFA3F18053A3F50003BCFA8CF2083AA3EBC25310DB01FA02FC634400FA02FCC2F12002BCF1004F20FA02F243EB020008BF20F001007047E8
:4042400002F1200201FA02FCC2F1200250EA4C0021FA02F243EB020008BF20EADC7070474FF0FF0C1CEAD0521EBF1CEAD15392EA0C0F93EA0C0F6FD01A4480EA010C4002C4
:4042800018BF5FEA41211ED04FF0006343EA501043EA5111A0FB01310CF00040B1F5000F3EBF490041EAD3715B0040EA010062F17F02FD2A1DD8B3F1004F40EBC25008BFF0
:4042C00020F00100704790F0000F0CF0004C08BF49024CEA502040EA51207F3AC2BFD2F1FF0340EAC250704740F400004FF00003013A5DDC12F1190FDCBF00F00040704743
:40430000C2F10002410021FA02F1C2F1200200FA02FC5FEA310040F1000053EA4C0308BF20EADC70704792F0000F00F0004C02BF400010F4000F013AF9D040EA0C0093F003
:40434000000F01F0004C02BF490011F4000F013BF9D041EA0C018FE70CEAD15392EA0C0F18BF93EA0C0F0AD030F0004C18BF31F0004CD8D180EA010000F00040704790F0FB
:40438000000F17BF90F0004F084691F0000F91F0004F14D092EA0C0F01D142020FD193EA0C0F03D14B0218BF084608D180EA010000F0004040F0FE4040F40000704740F04F
:4043C000FE4040F4400070474FF0FF0C1CEAD0521EBF1CEAD15392EA0C0F93EA0C0F69D0A2EB030280EA010C49024FEA402037D04FF0805343EA111143EA10130CF0004092
:404400008B4238BF5B0042F17D024FF4000C8B4224BF5B1A40EA0C00B3EB510F24BFA3EB510340EA5C00B3EB910F24BFA3EB910340EA9C00B3EBD10F24BFA3EBD10340EAC2
:40444000DC001B0118BF5FEA1C1CE0D1FD2A3FF650AF8B4240EBC25008BF20F0010070470CF0004C4CEA50207F32C2BFD2F1FF0340EAC250704740F400004FF00003013ABE
:4044800037E792F0000F00F0004C02BF400010F4000F013AF9D040EA0C0093F0000F01F0004C02BF490011F4000F013BF9D041EA0C0195E70CEAD15392EA0C0F08D142024F
:4044C0007FF47DAF93EA0C0F7FF470AF084676E793EA0C0F04D14B023FF44CAF08466EE730F0004C18BF31F0004CCAD130F000427FF45CAF31F000437FF43CAF5FE700BFCB
:404500004FF0FF3C06E000BF4FF0010C02E000BF4FF0010C4DF804CD4FEA40024FEA41037FEA226C18BF7FEA236C11D001B052EA530C18BF90EA010F58BFB2EB030088BFC3
:40454000C81738BF6FEAE17018BF40F0010070477FEA226C02D15FEA402C05D17FEA236CE4D15FEA412CE1D05DF8040B704700BF844608466146FFE70FB5FFF7C9FF00286A
:4045800048BF10F1000F0FBD4DF808EDFFF7F4FF0CBF012000205DF808FB00BF4DF808EDFFF7EAFF34BF012000205DF808FB00BF4DF808EDFFF7E0FF94BF012000205DF876
:4045C00008FB00BF4DF808EDFFF7D2FF94BF012000205DF808FB00BF4DF808EDFFF7C8FF34BF012000205DF808FB00BF4FEA4002B2F1FE4F0FD34FF09E03B3EB12620DD9E6
:404600004FEA002343F0004310F0004F23FA02F018BF404270474FF00000704712F1610F01D1420205D110F0004008BF6FF0004070474FF000007047014B1868704700BF50
:404640004881FF1F0E4B70B51E460E4C0025E41AA410A54204D056F8253098470135F8E700F0A6FE084B094C1E46E41AA4100025A54204D056F8253098470135F8E770BDF8
:40468000BC530000BC530000BC530000C453000010B5431E0A44914204D011F8014B03F8014FF8E710BD03460244934202D003F8011BFAE7704700000CB430B5164B0C1E3A
:4046C0009DB01D6804DA8B232B604FF0FF301EE04FF40273ADF814300CBF234604F1FF33049307934FF6FF7302900690ADF81630209A21AB02A92846019300F095F8431C5F
:40470000BCBF8B232B6014B1029B00221A701DB0BDE8304002B070474881FF1F0EB400B54FF402719CB0ADF814106FF00041049107914FF6FF711DAB02900690084853F836
:40474000042BADF81610006802A9019300F06CF8029B00221A701CB05DF804EB03B070474881FF1F034613F8012B002AFBD1181A013870472DE9F0478E6882469E420C46C5
:40478000914698463ED88A8912F4906F3AD02568096902236F1A656905EB450595FBF3F57B1C43449D4238BF1D4653050FD5294600F040FB064698B13A462169FFF768FFB6
:4047C000A38923F4906343F08003A38113E02A4600F08EFB064670B92169504600F0DEFA0C23CAF80030A3894FF0FF3043F04003A381BDE8F08726613E442660464665611E
:40480000ED1BA560464528BF464649463246206800F0A8FAA36800209B1BA36023681E442660BDE8F08700002DE9F04F9DB003938B8980461C060D4616460DD50B695BB98C
:40484000402100F0F7FA2860286118B90C23C8F80030CDE040236B610023099320238DF82930DFF89CB130238DF82A3037463C4614F8013B1BB9B7EB060910D003E0252B04
:40488000F9D02746F3E74B46324629464046FFF771FF013000F0A780099B4B4409933B78002B00F0A08000234FF0FF3204930793059206938DF853301A93012605222178EF
:4048C0004E4800F041FA671C049B38B14B4A3C46801A06FA00F018430490EFE7D90644BF20228DF853201A0744BF2B228DF8532022782A2A03D0079A00210A200BE0039ACC
:40490000111D12680391002A10DA524243F00200079204900BE027463B780134303B092B03D800FB02320121F5E701B107923B782E2B1ED17B782A2B0AD1039B02371A1DD3
:404940001B680392002BB8BF4FF0FF33059310E0002319460593781C0A2407463A780130303A092A03D804FB01210123F5E703B1059103223978224800F0E6F940B1402332
:40498000CBEB000003FA00F0049B013718430490397806221B487E1C8DF8281000F0D4F988B1194B33B9039B073323F007030833039314E003AB00932A46144B04A94046B8
:4049C000AFF3008007E003AB00932A460F4B04A9404600F093F8B0F1FF3F824603D0099B5344099342E7AB895B0601D4099801E04FF0FF301DB0BDE8F08F00BF7A530000A4
:404A0000805300008453000000000000754700002DE9F04791461F460A698B6806469342B8BF1346C9F8003091F843200C46DDF8208012B10133C9F800302368990642BF79
:404A4000D9F800300233C9F80030256815F0060510D104F1190A07E00123524639463046C04701301AD00135E368D9F800209B1A9D42F1DB94F843302268003318BF012336
:404A800092060FD5E118302081F843005A1C94F845102244023382F8431003E04FF0FF30BDE8F08704F1430239463046C0470130F4D02268D9F80050E36802F00602042A00
:404AC00008BF5D1B2269A3680CBF25EAE57500259342C4BF9B1AED184FF000091A344D4509D00123224639463046C0470130D5D009F10109F3E70020BDE8F0872DE9F043B4
:404B000017460A7E85B06E2A984606460C460C9B01F1430E00F0AE8011D8632A22D009D8002A00F0BB80582A40F0CA8081F84520834955E0642A1ED0692A1CD0C0E0732A8E
:404B400000F0B08009D86F2A2ED0702A40F0B8800A6842F020020A603EE0752A24D0782A3AD0ADE01A6801F14205111D1960136884F84230A8E021681A6811F0800F02D0C1
:404B8000111D196008E011F0400F02F10401196002D0B2F9003000E01368002B3CDA2D225B4284F8432037E021681A6811F0800F02D0111D196007E011F0400F02F1040137
:404BC000196001D0138800E01368227E5C496F2A14BF0A2208221BE078225A4984F845202268186812F0800F00F104051D6003D1550601D5038800E00368D00744BF42F05C
:404C0000200222601BB9226822F0200222601022002084F8430001E049490A226568002DA56008DB206820F0040020602BB9002D7DD175460CE0002B79D07546B3FBF2F049
:404C400002FB1033CB5C05F8013D03460028F5D1082A0BD12368DA0708D5236962689A42DEBF302305F8013C05F1FF35C5EB0E0323612EE008681A6810F0800F496903D025
:404C8000101D1860136808E010F0400F02F104001860136801D0198000E0196000232361754616E01A68111D1960156800216268284600F049F808B1401B6060636804E0E5
:404CC00004F1420584F8422001232361002384F84330CDF800803B4603AA21463046FFF797FE013002D14FF0FF3026E023692A4639463046C0470130F5D023689B0710D58D
:404D0000002504F1190907E001234A4639463046C0470130E7D00135E368039A9B1A9D42F2DBE068039B9842B8BF184605E00B7804F1420584F842308AE705B0BDE8F083D4
:404D40008B5300009C53000010B5C9B202449042034605D01C7801308C42F8D1184610BD002010BD884210B501EB020301D8421E0BE09842FBD28118D21AD34204D013F8B8
:404D8000014D01F8014DF8E710BD994204D011F8014B02F8014FF8E710BD000038B50546002944D051F8043C0C1F002BB8BFE41800F0D4F81E4A1368114613B963601460F8
:404DC00030E0A3420DD92268A018834201BF18685B681218226063600C6023E0A24203D813465A68002AF9D118681918A1420BD12168014458188242196013D11068526821
:404E0000014419605A600DE002D90C232B6009E021686018824201BF106852680918216062605C602846BDE8384000F098B838BD1882FF1F70B5CD1C25F0030508350C2D9F
:404E400038BF0C25002D064601DBA94202D90C23336046E000F082F8234B1C681A462146A1B10B685B1B0ED40B2B03D90B60CC18CD501EE08C420BBF63684B6813606360FF
:404E800018BF0C4615E00C464968E9E7174C23681BB9304600F052F820602946304600F04DF8431C18D0C41C24F00304A0420DD12560304600F053F804F10B00231D20F06D
:404EC0000700C31A0ED05A42E25070BD211A304600F034F80130EBD10C233360304600F03EF8002070BD00BF1882FF1F1482FF1FF8B5074615460E4621B91146BDE8F840AE
:404F0000FFF798BF1AB9FFF749FF2846F8BD00F027F885420ED929463846FFF78BFF044650B131462A46FFF7B3FB31463846FFF735FF01E03046F8BD2046F8BD38B5064C6B
:404F40000023054608462360FCF7A4FF431C02D1236803B12B6038BDB882FF1F7047704751F8040C0028BEBF091851F8043CC01804387047000000004D41494E2053544105
:404F800052540D0A000000004E534C202D2049444C450D0A00000000330000004E534C202D20474F494E475F49444C450D0A00004E534C202D204556414C554154494E47C6
:404FC0005F5745494748540D0A0000004E534C202D2052454144590D0A0000004E534C202D20434F55544E444F574E0D0A0000004E534C202D20434855470D0A00000000C3
:405000004E534C202D2057494E4E45525F444F4E450D0A004E534C202D204556414C554154494E475F4E45575F5745494748540D0A0000004E534C202D204C4F5345525F98
:40504000444F4E450D0A00004E534C202D205745494748545F434F4E4649524D45440D0A000000004E534C202D2047414D455F4F5645520D0A0000004E534C202D204552AD
:40508000525F5745494748540D0A00004E534C202D204552525F4E4F5F53544152540D0A000000004E534C202D204552525F46414C53455F53544152540D0A004E534C20FF
:4050C0002D204552525F54494D454F55540D0A004E534C202D204552525F4E4F434855470D0A00004E534C202D2044454641554C540D0A004F4C202D2049444C450D0A00AD
:40510000340000004F4C202D20474F494E475F49444C450D0A0000004F4C202D204556414C554154494E475F5745494748540D0A000000004F4C202D2052454144590D0A61
:40514000000000004F4C202D20434F554E54444F574E0D0A000000004F4C202D20434855470D0A004F4C202D2057494E4E45525F444F4E450D0A00004F4C202D20455641AE
:405180004C554154494E475F4E45575F5745494748540D0A000000004F4C202D2047414D455F4F5645520D0A000000004F4C202D204552525F5745494748540D0A00000051
:4051C0004F4C202D204552525F4E4F5F53544152540D0A004F4C202D204552525F46414C53455F53544152540D0A00004F4C202D204552525F54494D454F55540D0A000071
:405200004F4C202D204552525F4E4F434855470D0A0000004F4C202D2044454641554C540D0A000043616C69627261746564205765696768742066726F6D20706C6179659D
:405240007220313A202569200D0A00003500000043616C69627261746564205765696768742066726F6D20706C6179657220323A202569200D0A00003600000043616C6903
:4052800062726174696E672057656967687453656E736F72730D0A0030000000256400005370696C6C657220310000005469643A200000005370696C6C65722032000000EE
:4052C00025642C256473202020000000000000004000000014000000540000001B5B324B000000001B5B00003B000000660000001B5B39316D0000001B5B39326D00000050
:405300001B5B39346D0000001B5B306D000000000D5100400D51004004800000C8490040190020510040100040510040300000000140001000140140000800400140000AE5
:40534000004C0140000200500140200060520040140F00480600005101401C0F00480800666D6F6400000000000000000000000000000000000000804300232D302B200049
:40538000686C4C006566674546470030313233343536373839414243444546003031323334353637383961626364656600000000F8B500BFF8BC08BC9E4670474D000000F9
:4053C000111F0000F8B500BFF8BC08BC9E46704729000000E8530000C880FF1F880000007001000000000000000000000000003FC082FF1F0000E02EC05D00001800000059
:4054000000366E01FF0100000000000000000000000000000000000000000000000000000000000000000000785300000000000000000000000000000000000000000000FC
:4054400000000000000000000000000000000000000000000000000000000000000000000000000000000000E880FF1F0000000000000000000000000000000000000000A6
:4054800000000000000000000000000000000000000000000000000000000000000000000000000000000000000000000000000000000000000000000000000000000000EC
:4054C00000000000000000000000000000000000000000000000000000000000000000000000000000000000000000000000000000000000000000000000000000000000AC
:40550000000000000000000000000000000000000000000000000000000000000000000000000000000000000000000000000000000000000000000000000000000000006B
:40554000000000000000000000000000000000000000000000000000000000000000000000000000000000000000000000000000000000000000000000000000000000002B
:020000040003F7
:0200000480007A
:4000000003520040086400400665004055000140320101404F020140490301405E040140450501405C0601403A0701405A080140350901405A0A0140350B01405C0C014067
:40004000410D0140410E0140360F014051140140371501403C160140341701405B180140401901404F1A01404A1B0140074001400F4101400F4201400A4301400544014028
:400080000245014006460140054701400B4801400D490140084C01400A4D014008500140002001201802820F850D8647870D890D8B0D8D0D8F17840D850787788838890DEE
:4000C0008A7202010301040105010901140115011B011C011D012801330134013F0440234105426049FF4AFF4BFF4C024E704F0C50045440580459045A045B045F0162C024
:40010000644065016610671168C069016B116C406D016E406F01842C86138B018C078E1892349A099C219E0AAA02B03FB23FB301C043C105C260C5CDC6B0C7EFC83BC90FE1
:40014000CAFFCBFFCC23CEB0CF0CD004D804D904DA04DF01E2C0E440E501E610E711E8C0E901EB11EC40ED01EE40EF0100040101058809880C400D200E801110172019203D
:400180001B101EA020102720308031883210380439113C20402043204460480149A04B404D024E304F6054105520560157046012630880048188824085118810C0ACC2D5CA
:4001C000C442CC0ECE27D0C6D23CD80EE20DE60901180320040109080A010B300C011A011B051D2D1E011F102518272029022D012F04300131383304350237013B023E017E
:400200003F5440124106450C47BE483149FF4AFF4BFF4EF04F44500C5401580459045A045B045D115F0166C06A406B02800D840186028C028E0D900D940D98029A089C020A
:400240009E04A00DA80DB00FBA02C002C604C9FFCA07CBFFCC40CD20CEF0CF05D008D804DA04DD01DF01E040E1A8E240E32000400109042805400601086009180A400E02C2
:400280000F041080111018401E802401260427482C082D402F20361037403C023D204004452046014C044E204F04501051205240540856025D205E805F09652067046D4006
:4002C000840185088E049111924098209C40A080A108A210A401A602A720AA01AC20AD08B002B222B502C0EDC2CFC40ACA70CC30CEA0D034D220D6F0E240E608E804EE28DC
:40030000050C07110A030D1C0E050F0210061201160617031A011D101F0C2114220229092B102D10331F34073A20405349FF4AFF4BFF4F0150185608580459045A045B0484
:400340005C115D235F016040624064406540668068806A806C806E8087028A068E018F02901892069402961C9A019E109F01AA18AB01AC02AE0CB001B101B61EB702BA8069
:40038000BE01C052C5ECC702C813C9FFCAFFCBFFCD83CE03CF01D018D280D401D804D904DA04DB04DC31DD33DF01E040E240E440E540E680E880EA80EC80EE800120020188
:4003C00004200580080809200A500B800C800E400F281080124014081601180819201B101C401E021F4021082602270228082A422F043148374038083B803F484308460461
:4004000049804B404D054F405604570C5A805C405D05630277409020940C9A439D40A120A220A603A801AC40AF20B408B701C0C3C2FEC4C8CA2DCC1ACE5AD022D218D6D86A
:40044000D808E602EE080301050607080B1010011114130819061B081D061E031F18210127012B0A3002310134013602371E3B803E103F01401349FF4AFF4BFF4F015018A3
:400480005441580459045A045B045C125D235F016040624064406540668068806A806C806E80820185038B018D02920296019D03A002A404A802B001B206B503B808B92027
:4004C000BE01BF10C013C5ECC702C813C9FFCAFFCBFFCD83CE03CF01D018D280D401D804D904DA04DB04DC01DD33DF01E040E240E440E540E680E880EA80EC80EE800340C8
:4005000009080B800E800F0212941A501E801F902004244026802D042E282F803140328036A138283A343B843E103F06410843404508474049065108530459065A405C4071
:400540005D1467207340902893809404969097489B409D40A221A301AB02B508C008C29CC40ECAE0CCB8CEEED05AD67BD840EA08EE0C020103010506070109010B06150232
:400580001D061E011F01210425072906360137073B80404149FF4AFF4BFF4F0150185280580459045A045B045C135D335F016040624064406540668068806A806C806E8051
:4005C00081388302853E890E8B308E018F0192019308953099389B049D20A108A706A910AF01B401B53EB701BB20BF40C054C5ECC720C823C9FFCAFFCBFFCD83CE03CF018D
:40060000D018D280D401D804D904DA04DB04DC13DD33DF01E040E240E440E540E680E880EA80EC80EE800201068009020D801A041F402008225024012680280829082B42E8
:400640002C882D042F1030883211340836803708380139043A203B403C283D013E2043024502460149054B405201530259055A80710273407680AF02B410B720C011C288D0
:40068000CAEFCC5FCEEFD091D208D60BEC10EE0C020204040A020E011201150219031B041C041D041F0320042705300233073401360439083E40401349FF4AFF4BFF4F0130
:4006C00050185280580459045A045B045C035D335F016040624064406540668068806A806C806E8082048401860288018A029502960499019E039F02A001A202A702B00487
:40070000B102B301B403BA20BE01BF05C012C5ECC702C813C9FFCAFFCBFFCD83CE03CF01D018D280D401D804D904DA04DB04DD33DF01E040E240E440E540E680E880EA8093
:40074000EC80EE80018803480518074008400B400C4812801480170119601B021D101E402108246029082F2031083280332034803508368037204348460447404D055408AE
:40078000560457085D055E4073407740852094409740984099889D509F01A280A320AD08C07FC2A9C418CA42CC7ED03AD6D004010501060209010A020C020E050F011006AA
:4007C0001101140619011C07200422022402260428062C04340737013F40405449FF4AFF4BFF4F0150185409580459045A045B045D035F0160406240644065406680688095
:400800006A806C806E80840186088A028C038E0C8F01900A980A9C089E02A003A204A402A608A80AAC08AF01B101B20FB808BF01C051C5ECC602C807C9FFCAFFCBFFCD8372
:40084000CE03CF01D018D401D804D904DA04DB04DD33DF01E040E240E440E540E680E880EA80EC80EE8001280301042005280701089109400C410E201040115812101480C5
:400880001550161019081F202380270229802A40341136113B403D983F204140464049054B404F405140524059055B805C645F026540844087209024914098209C409D1869
:4008C000A144A291A310A720A804AD02AE80B420B540C0E7C2BBC4FFCA08CCA0CE78D088D218D6FBD810E8400402060108010A020E010F01100118011A021D031E0320019D
:400900002101230225012601270228012C01320337033A083BC0580459045F018004818083208403850589058DD48E048F2090029105920D9404951897219A049B059C05D3
:400940009E0AA007A128A208A342A404A507A708A804AB05AD05B1FFB60FBA80BB03D602D72CD804D904DB04DF0100100148050806010740081009810A400D800F68100249
:400980001118120113021440171418301B041F40218022802440284029082C102D022E602F2031803518370239403C403D1967C06C426D9A6E226F54770280408104831215
:4009C000840286308901C0B7C2FBC47FCAF3CCE8CEF8D880E480020113012E012F01360137013E40405449FF4AFF4BFF4F01501852805401580459045A045B045C305D3384
:400A00005F016040624064406540668068806A806C806E80800182028401860488018A088E018F0190019210961E99029A20A420B420B501B61FB702BE50BF40C054C5EC01
:400A4000C602C807C9FFCAFFCBFFCD83CE03CF01D018D602D72CD804D904DA04DB24DC80DD83DE08DF01E040E240E440E540E680E880EA80EC80EE800240044007540EA08C
:400A80000F0810021460170119401DA02280261027012A40300234203C404280468048024C024D0A56C0594A64406E806F7E70027CA080A08C408D209CC09F54A304A5800E
:400AC000A680A72AA820AA02AB48C0F8C270C421CA08CC21CE10D081D218D60BD880DE30E040E640EA010001030210011D011E02200224012501280129012D012E013001D6
:400B00003301340237023E113F04400241044220440145F046EC47DB483E49FF4AFF4BFF4C224EF04F0C508C51105608580459045A245B045C205D285F01684069016AC093
:400B40006B018001840188018E01A002B001B602BE41D420D604D804DB04DD20DF01036607400E400F0110801601171518011A801C041E8027212E402F2A374039103A2000
:400B80003F014440458047204C804D025623574459025C205E805F0860156340660867097C907F0482808740951096809E08C01FC290C4F8CA70CC10CE80D0B0D671D87FDC
:400BC000DE10E608EA0A04010B01220124012A012B013201330138083A203F04404149FF4AFF4BFF4F01501854185604580459045A045B045C015D135F01604062406440CE
:400C00006540668068806A806C806E8083038408850F8602880E89038B0C8D048E0191019201950C98029A0C9D08A10FA502A80EA903AC04AD0CAE02AF03B001B30FB40E12
:400C4000BB08BE01C041C5ECC602C807C9FFCAFFCBFFCD83CE03CF01D018D401D804D904DA04DB04DC11DD33DF01E040E240E440E540E680E880EA80EC80EE800325040480
:400C800008010A081002132014801508171019201A881C041F182020210423102508288029202B222F08308A34803680380639013B903D20418042804401458846A0470109
:400CC0004905518059055A805F016622670286029501960297209A809D089F08A004A280A498A580A740AE04AF40C027C20AC473CA2FCC0BCE2FD099D68BD8B000010402BA
:400D00000518080209181128131514021560170219501B0C1F602002216024012760280129602F603002310133063518360137603E013F0456025713580459045B045C1146
:400D40005D105F018007840788018A068C04920894069C069E01A402AA08AE01B007B408BE10C025C104C201C403C6E0C70CC818C9FFCAFFCBFFCC62CDA0CEF0CF41D00C01
:400D8000D804DA04DC01DD01DF01E640E702E910EA30EB10ED10EE10EF12002A0120020403100502060607100B200C490E80104011141280154016081708180219011E88B6
:400DC0002108221123012880292A2B0230023294332039144481450846044C014D40551056085901680169146B247088720273088204831388828B108C028F409208932099
:400E000094029602970399089F3CA014A280A48AA510A762B348B401B508C0FEC2B4C4EECA0FCC0FCE06D0F0D210D601EA0130023320364037013940CCF0CE1033413688F5
:400E40003B20590866048D089540A402A640A720B301CCF0CE10D640D880338036403E108710954097209F41A402A6C8A720AA04CC30CE20E640EA80954096109F01A40295
:400E8000A640A780AB60AE88EA10EEB0101014207101C40CDC0198309D0103801B0498309D01C008C6089830AB04AF80B501EC0281408640878095409610A640A780AC02C7
:400EC000AF01E670EA500220060208085620800882208E22AA10C090C210D440E4A0EA8010401320148078107C209830C40EDE03108078407C80888098C0AB20C408DC017C
:400F0000DE04E601000F08030A0E0C0B0E09100E1A0C1C0A2030000040000000FFFFFFC000000000006060006000840080004080B000B0000000000010100000000000006D
:400F4000000B0B000000000039320200020000000E0018010000000000000000000000000000000000000000000000000000000000000000000000000000000000000000C5
:400F80000000000000000000000000000000000000000000000000000000000000000000000000000000000000000000000000000000000000000000000000000000000031
:400FC00000000000000000000000000000000000000000000000000000000000000000000000000000000000000000000000000000000000000000000000000000000000F1
:4010000000000000000000000000000000000000000000000000000000000000000000000000000000000000000000000000000000000000000000000000000000000000B0
:401040000000000000000000000000000000000000000000000000000000000000000000000000000000000000000000000000000000000000000000000000000000000070
:0200000490006A
:0400000000004005B7
:0200000490105A
:04000000BC90ACAF55
:0200000490303A
:02000000C645F3
:0200000490402A
:4000000000000000000000000000000000000000000000000000000000000000000000000000000000000000000000000000000000000000000000000000000000000000C0
:400040000000000000000000000000000000000000000000000000000000000000000000000000000000000000000000000000000000000000000000000000000000000080
:400080000000000000000000000000000000000000000000000000000000000000000000000000000000000000000000000000000000000000000000000000000000000040
:4000C0000000000000000000000000000000000000000000000000000000000000000000000000000000000000000000000000000000000000000000000000000000000000
:0200000490501A
:0C00000000012E16106900012E3BD6AE48
:00000001FF