:400000000080002011000000C11E0000C11E000008B5044B1A6803F53F5302331A6001F06FFF00BFFA46004010B5054C237833B9044B13B10448AFF300800123237010BD4A
:400040005081FF1F000000001C570000084B10B51BB108490848AFF300800848036803B910BD074B002BFBD0BDE81040184700BF000000005481FF1F1C570000C880FF1F0C
:400080000000000070B5ADF6882D62B6B74802F0D1FAB74802F01CFAB64802F0A7FD02F0BBF901F043FD00F053FC01220DF5AC610F2001F0E3FA02220EA90F2001F0DEFA3C
:4000C0003C2001F0FFFA142000F04CFD4FF4FA721421642000F03CFF282000F0EFFC0024A54B1C60A549A64800F0D4FC00F092FC012000F0BDFD022000F0BAFD00E02C4607
:40010000132C00F29981DFE814F0140027002D0061007C00A300F900FF0025012B019701970197019701570164016A017401870191019449944800F0ADFC8F4B1B68012B85
:4001400040F0808100228C4B1A6000F063FC642002F0EAF9022596E18C498B4800F09AFC002590E18A49884800F094FC00F0F6FB0646012000F064FC864D0246294601A8DD
:4001800004F0A0FE012201A9104600F015FD022000F056FC0246294601A804F093FE022201A9012000F008FD012E00F04D8140F04D81714B1B68012B40F04A8100226E4B2F
:4001C0001A60642002F0B0F901255CE172496E4800F060FC00F098FE002840F03B81664B1B68012B40F0388100F08EFE002840F035810022604B1A60642002F095F9042565
:4002000041E16649604800F045FC0EA90DF5AC6001F06AFB012800F02381012000F038FB5F4B1B693233984204DA01225C4BDA61112528E1022000F02BFB594B5B69323364
:40024000984280F20F810222554BDA6111251AE154494D4800F01EFC012000F019FB10F1C80F05DA01224E4B1A62642002F05CF94B4B1B6A012B14D1012000F009FB10F115
:40028000C70F10DB012000F003FB282804DC0222434B5A62062509E000F036FE28B9254604E0254602E0254600E01225022000F0EFFA10F1C80F05DA0122394B9A626420C0
:4002C00002F032F9364B9B6A012B40F0DC80022000F0DEFA10F1C70FC0F2D580022000F0D7FA282804DC01222D4B5A620625CAE000F00AFE002840F0B780C4E02A49224894
:4003000000F0C8FB0725BEE028491F4800F0C2FB022000F0BDFA10F1C80F02DA0122204B9A621F4B9B6A012B40F0A0801C4B586A00F0AEFA10F1C70FC0F29A80642002F0EF
:40034000F3F8174B586A00F0A3FA282800F39280082598E016490C4800F09CFB092592E01449094800F096FB0E258CE0F50A0000790A0000CD0E00002C82FF1F205700009F
:40038000645A0000305700004057000044570000585700007457000088570000985700006C81FF1FAC570000BC570000D0570000F05700000458000099499A4800F06AFB7A
:4003C000994B1B68002B57D00022974B1A60012559E09649934800F05DFB022553E09449904800F057FB904B1B68012B46D0254649E090498B4800F04DFB4FF4FA72142118
:40040000642000F0A5FD884B1B68012B38D10022854B1A60012536E08749824800F03AFB814B1B68012B2DD025462CE083497D4800F030FB062526E081497A4800F02AFB47
:40044000254620E025461EE003251CE00F251AE0254618E0102516E0254614E0254612E0052510E025460EE012250CE025460AE0254608E0132506E0254604E0012502E059
:40048000254600E00125132C00F29981DFE814F0140026003E00500064006D007400A900AE009701970197019701970126012D015101610176018201624AD36A0133D36204
:4004C000012B06D10DF5AC6001F0A6F90EA801F0A3F95D495D4800F0DDFA10E65C495B4800F0D8FA00F0EEFC564B0022DA621A635A639A633C2001F0E5F84FF4FA721421E8
:40050000642000F025FD00F0FBFAF8E54D4A936B01339363012B06D10DF5AC6001F0B8F90EA801F0B5F94B49484800F0B3FAE6E500F0C4FC434A136B01331363012B06D1A8
:400540000DF5AC6001F0BAF90EA801F0B7F942493E4800F09FFAD2E500F0B4FC00F0CEFC3E493A4800F096FAC9E500F0A7FC3C49364800F08FFAC2E5324B5B6A012B15D186
:4005800000F0B4FC374B83FB0023C017C0EB63132C4CE363022000F06BFBE16B022000F01DFB0DF5AC6001F06BFA15E0022B13D100F09CFC2B4B83FB0023C017C0EB6313D3
:4005C000204C2364012000F053FB216C012000F005FB0EA801F054FA23491C4800F05AFA8DE52249194800F055FA88E5154B5B6A022B3DD10EA801F02FF900F077FC194B22
:4006000083FB0023C017C0EB63130E4CE363022000F02EFBE16B022000F0E0FA3FE000BF20580000405700002C82FF1F345800004858000060580000785800008C580000BD
:40064000A05800006C81FF1FB0580000BC580000C0580000D4580000F058000000590000145900001F85EB512059000034590000012B14D10DF5AC6001F0EEF800F036FC0B
:40068000514B83FB0023C017C0EB63134F4C2364012000F0EDFA216C012000F09FFA4B4E326C4B4C84FB0230D317C3EBA00000EB80035900511A01F045FA40F2DC5001F04C
:4006C00033FFF26B84FB0230D317C3EBA00000EB80035900511A01F035FA10E53D493E4800F0D8F900F00AFC09E500F037F9022807D10EA801F0CCF80DF5AC6001F0A4F961
:4007000012E0032807D10DF5AC6001F0C1F80EA801F09AF908E0042806D10DF5AC6001F093F90EA801F090F92C492B4800F0B2F9E5E400F0C7FB00F0E1FB0DF5AC6001F063
:4007400083F90EA801F080F92549234800F0A2F9D5E41E4BDB69012B04D10DF5AC6001F073F904E0022B02D10EA801F06DF900F0C5FB1C49184800F08DF9C0E40DF5AC6019
:4007800001F062F90EA801F05FF91749124800F081F9B4E41549104800F07CF90B4A536AD361012B04D10DF5AC6001F04DF9A6E4022B7FF4A4AC0EA801F046F99FE40C4953
:4007C000054800F067F99AE41F85EB516C81FF1F6766666654590000BC580000685900007C59000090590000A8590000BC590000D059000010B5012802D0022820D03FE0E2
:400800000024204B9C60204601F0EAFE0CE002F0BFFE002002F0C4FE28B102F0D9FE194A9368184490600134B4F57A7FEFDB154B9B68154880FB0320DB17C3EBA01010BD17
:400840000024104BDC60012001F0CAFE0CE002F09FFE002002F0A4FE28B102F0B9FE094AD3681844D0600134B4F57A7FEFDB054BDB68054880FB0320DB17C3EBA01010BDDC
:40088000002010BDB481FF1FD34D62100000000038B5012802D0022821D041E0264C002323610120FFF7A6FF2368C01A206102F0C5FE03F00DFC1CA3D3E9002303F06EFCDB
:4008C00003F01CFF024620611C4D1D49284604F0F9FA29461B4800F0DDF8206938BD164C002363610220FFF785FF6368C01A606102F0A4FE03F0ECFB0DA3D3E9002303F0AD
:400900004DFC03F0FBFE024660610C4D0E49284604F0D8FA29460D4800F0BCF8606938BD002038BDAFF300806D3C11E605A8733F7024E2E4EC7E763FB481FF1F3082FF1F9D
:40094000E0590000085A00000C5A0000345A000008B502F009FE01F033FE08BD10B50120FFF796FF04460220FFF792FFA4F10F03984203DB04F10F03984207DDA0F10F0320
:400980009C4209DB00F10F039C4205DC632839DD632C39DC042010BD844218DA722804DC722C02DC1A4BDB693BB154280ADC542C08DC174BDB69012B04D10022144BDA6111
:4009C000042010BD0122124BDA61022010BD84421CDD722804DC722C02DC0D4BDB693BB154280ADC542C08DC094BDB69012B04D10022074BDA61042010BD0122044BDA6173
:400A0000032010BD042010BD012010BD002010BDB481FF1F10B50749074800F03BF80120FFF7E8FE054C20600220FFF7E3FE606010BD00BF385A0000785A0000B481FF1F56
:400A4000012802D1044B18697047022802D1024B5869704700207047B481FF1F08B5312802D0322804D008BD0120FFF711FF08BD0220FFF70DFF08BD10B501F0E1FC04467A
:400A800005E001F0D7FCFFF7E9FF013CE4B2002CF7D110BD70B506460D46074C214601F011F8012001F000F82146304601F00AF8284601F0DDFC70BD545A000030B585B09C
:400AC000054600240DE02346084A052101A804F0C7F9074901A800F0F5FF012000F0E4FF0134AC42EFDB05B030BD00BF585A0000545A00000122014B1A6070472C82FF1F71
:400B000010B502F089F8262000F0D2F900F020F9104800F063F90121002000F029F90E4C204600F05BF9272000F0C2F900F010F90A4800F053F90121002000F019F9204654
:400B400000F04CF9064B01221A605A6002F0ACF810BD00BF5C5A0000685A0000705A0000D481FF1F10B5044601F0BEFD114802F0C3F8012090FBF4F0C0EB401300EB830004
:400B800000EB8000030198B202F05AF8002302221021262000F07AF800F030F9002302221021272000F072F800F028F9FFF7A8FF10BD00BF350C000038B505460C46012AB6
:400BC00001D1262000E0272000F072F9E9B2002000F0CEF8204600F001F938BD30B587B004460D4602F018F8012C01D1262000E027200E4C84FB0534EA17C2EBA4046FF0B7
:400C0000090303FB045500F053F92B462246084901A804F057F90121052000F0A9F801A800F0DCF802F040F807B030BD676666667C5A000010B500F059F90B4C84FB00346B
:400C4000C017C0EB6414094B1B68012B03D121460120FFF7C3FF054B5B68012B03D121460220FFF7BBFF10BD1F85EB51D481FF1F012803D10022044B1A607047022802D15B
:400C80000022014B5A607047D481FF1F10B4064C20700648017006490A70064A13700822054B1A7010BC70476382FF1F6882FF1F6982FF1F6582FF1F6282FF1F10B50C4628
:400CC000002101F08DFE204601F0E6FE01F0C8FE10BD00BF08B5044B19780143034B1878FFF7ECFF08BD00BF6282FF1F6382FF1F10B5044640F00400FFF7ECFF012001F07A
:400D000029FC04F0FB00FFF7E5FF322001F022FC10BD00BF10B50446FFF7DCFF2046FFF7E7FF10BD38B50D4600F0F0030401E4B243EA0100FFF7EEFF44EA0500FFF7EAFF08
:400D400038BD00BF08B50021FFF7ECFF08BD00BF08B50120FFF7F6FF022001F0E5FB08BD08B50220FFF7EEFF022001F0DDFB08BD30B585B005460C460C4B0FCB0DF1100E85
:400D80000EE90F000A4B1B78A34201D25C1EE4B204AB03EB840454F8100C284460F07F00C0B2FFF7CFFF05B030BD00BF885A00006982FF1F08B5054B187840F004001870DA
:400DC00040F00800FFF7BEFF08BD00BF6482FF1F08B50121FFF7A6FF08BD00BF70B5064604F094F80546002403E0305DFFF7F0FF0134EBB29C42F8D370BD00BF08B5002287
:400E0000254B1A70254B1B78012B02D90821224A1170234A127832B1012B04D11E4A137843F004031370322001F07EFB1D4B1878FFF750FF4FF47A7001F076FB3020FFF73F
:400E400069FF41F2941001F085FB3020FFF762FF41F2941001F07EFB3020FFF75BFF962001F078FB2020FFF755FF0B4B187840F02000FFF767FF04220B4B1A70FFF79AFF6F
:400E8000FFF766FF0222094B1A700620FFF75AFFFFF766FF08BD00BF6782FF1F6982FF1F6582FF1F6282FF1F6482FF1F6682FF1F014B1870704700BF6382FF1F08B501F065
:400EC00069FE08BD08B501F01BFE08BD08B5064B1B68B3F5966F03DA0133034A136008BDFFF7F0FF08BD00BFDC81FF1F024B1B68642000FB03F07047DC81FF1F0022014BA0
:400F00001A607047DC81FF1F044B1B68B3F5966F01DB012070470020704700BFDC81FF1F08B503F01DFD01464FF07E5003F020FE054903F069FD054903F066FD03F02AFF2B
:400F400080B201F0CDF808BD00007A440000204138B50546144601EB8101480080B201F03FF905EB8505680080B201F0B9F904EB8404600080B201F0E1FE38BD000000007D
:400F80002DE9F04F83B08046894614461D460E9E0F9F0022764BDDE90C0103F08FFB18B10022734BCDE90C23002200232046294603F070FB58B1582303FB06F6BC19DDE9AB
:400FC0000C0103F09BFB6060B851A060C7E022462B46DDE90C0103F0E1F804460D460022644B4046494603F003FACDE9000100224FF0804302F098FD00225F4B02F01AFFC7
:40100000024621F0004300205B4902F013FF02460B462046294603F0C1F88046894622462B46DDE90C0102F005FF82468B46DDE9000103F063FB042824D8DFE800F0032A3E
:401040000E151E0042464B46A046A94614461D4600220023CDE900231FE0CDE900894FF000084FF0000918E0CDE9004544464D464FF000084FF000090FE0CDE900450024EC
:4010800000250AE0CDE90089A046A9460024002503E000220023CDE9002352465B464046494602F0C9FE30A3D3E9002303F076F802F0EAFC8046894652465B46204629462E
:4010C00002F0BAFE28A3D3E9002303F067F802F0DBFC04460D4652465B46DDE9000102F0ABFE21A3D3E9002303F058F802F0CCFCCDE90001002200234046494603F0C0FAEB
:4011000018B14FF000084FF00009002200232046294603F0B5FA08B10024002500220023DDE9000103F0ACFA18B100220023CDE90023582303FB06F607EB060A20462946C1
:4011400003F0DCFACAF804004046494603F0D6FAB851DDE9000103F0D1FACAF8080003B0BDE8F08FAFF300800000000000E06F400000E03F00004E400000F03F70B50646DB
:40118000436C012B04D1012001F062FA00251BE0022B1CD1002001F05BFAF7E7582404FB0564208D00F02CFFA08D00F029FF208E00F026FFA08E00F023FF208F00F020FFE1
:4011C000A08F00F01DFF0135336C9D42E6DB70BD08B500F071FF01F089FD0A4B186808B1FFF7CCFF642001F0B5F9064B586808B1FFF7C4FF642001F0ADF901F071FD00F01F
:40120000A5FF08BDE081FF1FF0B591B0189D199C03940295DDE91667CDE90067FFF7B0FE582303FB05F3E518E1586868AA68002311E010F0800F06D0062610AC04EB8304E4
:4012400044F8306C05E0042610AC04EB830444F8306C40000133072BEBDD059B9B01049803EB4023069803EBC00307980344AB62099B9B01089803EB40230A9803EBC00320
:401280000B980344EB62002311E011F0800F06D0062410A800EB830040F8304C05E0042410A800EB830040F8304C49000133072BEBDD059B9B01049903EB4123069903EB63
:4012C000C10307990B442B63099B9B01089903EB41230A9903EBC1030B990B446B63002311E012F0800F06D0062010A901EB830141F8300C05E0042010A901EB830141F8BA
:40130000300C52000133072BEBDD059B9B01049A03EB4223069A03EBC203079A1344AB63099B9B01089A03EB42230A9A03EBC2030B9A1344EB6311B0F0BD00BF2DE9F04F13
:4013400085B08046894692469B46DDE90E45109F00260AE003970296CDE9004552465B4640464946FFF750FF01363B6C9E42F1DB05B0BDE8F08F00BFF0B585B0464B9B68C2
:40138000002B40D1444B1B68DA6C012A10D1D3E90667D3E904450293404B186802F0AAFECDE9000132463B4620462946FFF7C6FF394B5B68DA6C012A10D1D3E90667D3E967
:4013C00004450293354B186802F094FECDE9000132463B4620462946FFF7B0FF2F4C206802F088FE2AA3D3E9002302F023FD03F0ADF92060002103F0A5FC002845D00122FA
:40140000254B9A6041E0012B3FD1234B1B68DA6C012A10D1D3E90667D3E9044502931F4B186802F067FECDE9000132463B4620462946FFF783FF184B5B68DA6C012A10D129
:40144000D3E90667D3E904450293144B186802F051FECDE9000132463B4620462946FFF76DFF0E4C206802F045FE09A3D3E9002302F0E2FC03F06AF920604FF07C5103F05B
:4014800057FC10B10022044B9A6005B0F0BD00BF7B14AE47E17A843FE081FF1FCC80FF1F30B585B02B4BDB6813B1012B29D04FE0284B1B681A6D012A0CD1D3E90645D3E9CE
:4014C000040102930022244BCDE9002322462B46FFF734FF1F4B5B681A6D012A0CD1D3E90645D3E90401029300221B4BCDE9002322462B46FFF722FF164AD3680133D3607A
:4015000026E0144B1B681A6D012A0CD1D3E90645D3E90401029300220023CDE9002322462B46FFF70BFF0B4B5B681A6D012A0CD1D3E90645D3E90401029300220023CDE9E0
:40154000002322462B46FFF7F9FE0022014BDA6005B030BDE081FF1F0000F03F2DE9F04385B0404B1A68936C23B93E494968896C002973D0012B08D1002000210292CDE9FB
:40158000000102460B46FFF7D9FE364B5B689A6C012A08D1002000210293CDE9000102460B46FFF7CBFE2F4B1C6938E02D4B1B689A6C012A16D11D6CAC4201DB651B00E0B4
:4015C0002546582202FB0532D2E90689D2E9040103930295D2E90867CDE9006742464B46FFF712FE1F4B5B689A6C012A16D11D6CAC4201DB651B00E02546582202FB053224
:40160000D2E90689D2E9040103930295D2E90867CDE9006742464B46FFF7F6FD0134114B1A695B6913449C42C0DB0E4B1B684BB11B6C013B9A4201DA013200E00022094BA7
:401640001A610BE0074B5B6843B11B6C013B9A4201DA013200E00022024B1A6105B0BDE8F08300BFE081FF1F10B5044601F002FC0023A364E364236510BD00BF30B585B0DC
:401680000D46012A02D10E4B196001E00C4B596028646A642846FFF7E7FF00240AE00020002103950294CDE9000102460B46FFF7ABFD01342B6C9C42F1DB05B030BD00BF30
:4016C000E081FF1F38B50546164800F067FD164800F064FE154800F0E1FD154801F08CFB144801F0B1FB144C2068FFF7BDFF6068FFF7BAFF0023636123614FF07C510F4AF7
:401700001160A360A361E36000F0C0FC00F01EFD00F09CFD00F01AFE01F046FB2846FFF7FFFB38BDD11100005D15000079130000A11400002D1A0000E081FF1FCC80FF1F5C
:401740002DE9F04784B004460D4616461F46DDE90C89DDF838A05046FFF786FF0123CAF84C30CAE90445CAE90667CAE90889CDF808A0CDE9008932463B4620462946FFF73F
:40178000DDFD04B0BDE8F0872DE9F04790469946DDE90867DDE90A45DDF830A00C4B58615046FFF761FF0123CAF84830002209E0582303FB02A3C3E90489C3E90667C3E90D
:4017C00008450132DAF840309A42F1DBBDE8F087E081FF1F2DE9F0478046894616461F46DDE90845DDF828A05046FFF73DFF0123CAF85030002209E0582303FB02A3C3E98E
:401800000489C3E90667C3E908450132DAF840309A42F1DBBDE8F08700B585B0029008A3D3E90023CDE900230022094B06A1D1E90001FFF785FF05B05DF804FBAFF3008074
:40184000333333333333EB3F00000000003073400000F03F0000000010B584B00446FFF703FF029406A3D3E90023CDE900230022054B00200549FFF761FD04B010BD00BF54
:401880008FC2F5285C8FEA3F0000F03F0000084000B587B004900022064BCDE90223CDE900230022044B0320FFF76EFF07B05DF804FB00BF0000F03F0040504010B584B0CF
:4018C0000446FFF7D1FE0022044B0294CDE9002300200349FFF732FD04B010BD0000F03F00005D40000000002DE9F04784B080468A46494B9B69052B00F28480DFE803F08C
:40190000030C2A435C7DFFF7AFFE5046FFF7ACFE01F0FAFA01F08CFA0026404F0024404DCDF808800FF2E809D9E90089CDE9008932463B4620462946FFF700FDCDF808A0C0
:40194000CDE9008932463B4620462946FFF7F6FC002058E00024314D0026324F0290CDE9004522462B4630463946FFF7E7FCCDF808A0CDE9004522462B4630463946FFF771
:40198000DDFC00203FE00024244D0026254F0290CDE9004522462B4630463946FFF7CEFCCDF808A0CDE9004522462B4630463946FFF7C4FC002026E00024184D00261A4F9B
:4019C0000290CDE9004522462B4630463946FFF7B5FCCDF808A0CDE9004522462B4630463946FFF7ABFC01F045FA01F027FA0A4A936901339361002005E00022064B9A61E5
:401A0000012000E0002004B0BDE8F087AFF300808FC2F5285C8FEA3FE081FF1F0000F03F000008400040504000005D4008B5044B9A6901329A6159681868FFF755FF08BD21
:401A4000E081FF1F0000000000B585B0029008A3D3E90023CDE900230022074B00200749FFF7B8FE05B05DF804FB00BFAFF300808FC2F5285C8FEA3F0000F03F0000084095
:401A800010B584B00446FFF7EFFD0022044B0294CDE9002300200349FFF750FC04B010BD0000F03F00005D4038B50546002403E0034800F0DDFC0134AC42F9DB38BD00BF28
:401AC000985A000038B505460C46084800F0D0FC284600F0CDFC064800F0CAFC204600F0C7FC044800F0C4FC38BD00BFA05A0000A45A0000A85A000008B5002001F0F0FEB4
:401B000001F02EFF102806D0202809D1064B187801F01AFF08BD044B187901F015FF08BD01F012FF08BD00BF6C82FF1F08B5002001F0D6FE01F05CFF014801F087FF08BDF8
:401B4000F91A000008B50A4B186010F0010F01D18B0002E08B0043F0020311F0010F01D043F00103024A5360FF2001F0B9FE08BD6C82FF1FFEE700BFF0B40022174611E04E
:401B800050F82760F3B226F0FF0608E001EB420511F812406D78A5550132013BDBB2002BF4D10137272FEBD9F0BC7047084B1B78DBB203F00701074A11701B090132137086
:401BC000C022054B1A704422A3F28A231A707047CF0100496E580040005B004008B50A46002103F034F908BD08B503F025F908BD38B50024364B1C80502202331A7004225B
:401C000002331A80182333490B7033200231088002310B7077200231088002310B7040F65F100231088002310B702B492B48FFF7DBFF02222A4B1A7008224FF040231A70A9
:401C4000032103F500731970264B1B78DBB226490B70264B1A8041F25122023B1A8019250CE0234B1B7803F0010343EA440404F003044FF4F07001F0F7FE013D0DB1032C03
:401C8000EFD115B90320FFF775FF1A4B4FF480721A8007221A70002217490A704820023108701A700222033B1A7004220A331A70124A137843F01F031370013A137843F0F8
:401CC00001031370013A137843F08003137038BD8040004086400040740F0048004100400043004008010049A146004022420040254200400440004006400040A2430040A1
:401D0000012807D8044B53F820201844017A13780B431370704700BFCC5A0000012808D8044B53F820201844017A137823EA010313707047CC5A0000012808D8044B03EBF6
:401D40008002D2681844017D13780B4313707047CC5A0000012809D8054B03EB8002D2681844017D137823EA01031370704700BFCC5A000038B572B63C4A137843F004039B
:401D8000137000240BE03A4863001A19510001440A46898B9069FFF721FF0134E4B2072CF1D900240CE03248A20011194B000344B3F85020D96C986CFFF716FF0134E4B286
:401DC000012CF0D92B494FF09040FFF7D5FE0A25294B1D70294A03F5364355331A60284A137843F0020313701032137843F002031370244C237843F040032370A2F58632E8
:401E0000513A137843F01003137008221E491F48FFF7EAFE2A461E491E48FFF7E5FE08221D491E48FFF7E0FE08221D491D48FFF7DBFE08221C491D48FFF7D6FE1C4A13789A
:401E400043F0080313701B4D61232B70FFF7D0FE81232B700122184B1A70FFF7A7FE0E2221461648FFF7C0FE38BD00BFE8460040CC5A0000A00000488358004004042464E8
:401E800003500140A0430040480F004802510040500F0048C05100405C0F0048F2510040640F0048125100406C0F004832510040224300400048004004000840B04300407B
:401EC00008B502F08DFF03680C2B00D1FEE7FEE708B5094B1A681044084BC31A802B02DC054B186005E002F07BFF0C2303604FF0FF32104608BD00BFD080FF1F9882FF1F2F
:401F000008B5104E104D16E029686B68AC68002204E051F8040B43F8040B0432A242F8D1E868002203E0002143F8041B04328242F9D11035013E002EE6D102F057FFFEF7F6
:401F4000A1F8FEE7010000009C5B000008B5104A104B1A60104A136843F40073136000230AE0032B03D80D4A52F8231000E00C490C4A42F8231001332F2BF2D90A4B1A78EB
:401F80000A4B1A70074A0A4B1A60FFF7F3FE08BD0004FA050CED00E014ED00E000000000C11E00000080FF1FBC760040C080FF1F08ED00E008B501F05FFD0A4A137843F07B
:401FC000200313700632137843F010031370013A137843F01003137001F052FD00F086FA08BD00BF90640040014B1878704700BF66640040014B1878704700BF6564004001
:40200000034B1B7813F0040FFAD0024B18807047666400404464004008B501E00E4B1B880E4B1B7813F0200FF8D101F025FD0C4B1A7842F001021A701A7802F0FE021A7007
:4020400001331A7842F001021A701A7802F0FE021A7001F015FD08BD54640040656400409464004008B51722064B1A70FFF7D4FFFFF7BAFFFFF7BEFF0023034A1370013AA2
:40208000137008BD806400408664004008B5054B1B7823B9FFF7E6FF0122024B1A70FFF789FF08BDFC81FF1F024A137843F080031370704772640040024A137803F07F0332
:4020C0001370704772640040014B1870704700BF82640040014B1878704700BF62640040014B1880704700BF44680040014B188880B2704784680040014B1880704700BF27
:402100000468004008B501E0FFF7F0FFFFF7E2FF10F0080FF8D108BD08B540F2E730FFF7DFFF40F2E730FFF7E7FF01F0A5FC064A137843F01003137001F0A2FCFFF7E2FF59
:402140000120FFF7C1FF08BD9264004008B5054B1B7823B9FFF7E0FF0122024B1A70FFF7A3FF08BDFD81FF1F014B1B68D864704708ED00E04001C0B2014B1870704700BFB5
:4021800003E400E00822014B1A60704700E100E00822014B1A60704780E100E010B50446FFF7F6FF2046FFF7DFFF0720FFF7E2FFFFF7E8FF10BD00BF024A137843F08003E0
:4021C0001370704775650040014B1870704700BF85650040014B1878704700BF65650040014B1880704700BF486A0040014B188880B27047886A0040014B1880704700BF0E
:40220000086A004008B501E0FFF7F0FFFFF7E2FF10F0080FF8D108BD08B542F20F70FFF7DFFF42F20F70FFF7E7FF01F025FC064A137843F01003137001F022FCFFF7E2FF7E
:402240000120FFF7C1FF08BD9565004008B5054B1B7823B9FFF7E0FF0122024B1A70FFF7ABFF08BDFE81FF1F014B1B689864704708ED00E04001C0B2014B1870704700BFE7
:4022800002E400E00422014B1A60704700E100E00422014B1A60704780E100E010B50446FFF7F6FF2046FFF7DFFF0720FFF7E2FFFFF7E8FF10BD00BF024A137843F08003E8
:4022C0001370704774650040014B1870704700BF87640040014B1878704700BF67640040014B1880704700BF4C680040014B188880B270478C680040014B1880704700BF08
:402300000C68004008B501E0FFF7F0FFFFF7E2FF10F0080FF8D108BD08B542F20F70FFF7DFFF42F20F70FFF7E7FF01F0A5FB064A137843F01003137001F0A2FBFFF7E2FF7D
:402340000120FFF7C1FF08BD9764004008B5054B1B7823B9FFF7E0FF0122024B1A70FFF7ABFF08BDFF81FF1F014B1B681865704708ED00E04001C0B2014B1870704700BF63
:4023800004E400E01022014B1A60704700E100E01022014B1A60704780E100E010B50446FFF7F6FF2046FFF7DFFF0720FFF7E2FFFFF7E8FF10BD00BF7222084B1A702022A7
:4023C000A3F201131A7006225E3B1A70472210331A70002251331A70704700BF8965004010B501F049FB04460A4A137843F020031370A2F20112137843F010031370033229
:40240000137843F01003137000F07EF8204601F037FB10BD9965004008B5054B1B7823B9FFF7CAFF0122024B1A70FFF7D9FF08BD0082FF1F014B1878704700BF49650040A6
:40244000044B1B7813F0200F01D0012070470020704700BF68640040034B1B7813F0040FFAD1024B187070476B6400404B64004038B5074B1B782BB938BDFFF7EDFF0134EF
:40248000A4B201E005460024285D0028F5D138BD0082FF1F014B1B685866704708ED00E04001C0B2014B1870704700BF09E400E04FF40072014B1A60704700BF00E100E0D9
:4024C0004FF40072014B1A60704700BF80E100E010B50446FFF7F4FF2046FFF7DBFF0720FFF7DEFFFFF7E4FF10BD00BF054A137843F0020313701032137843F00203137000
:40250000704700BFA2430040054A137843F0040313701032137843F004031370704700BFA243004001BE704710B5044605E0084B186801F099FAA4F50044B4F5004FF6D8E0
:40254000034B586800FB04F001F08EFA10BD00BFD480FF1F08B5034B1B7A00FB03F001F083FA08BDD480FF1F70B504460E46074B1D681F2802D90020FFF7D4FF04F01F04F8
:40258000103455F8240045F8246070BD08ED00E038B504460D46072902D90020FFF7C2FF1F2C02D90020FFF7BDFF04F01F0000F1604000F564406D01EDB2057038BD00BFCC
:4025C00010B5002404E02046FFF7A8FB0134E4B2012CF8D9FF22014B1A7010BDE480FF1F10B50446054B1878FF2801D0FFF796FB2046FFF785FB014B1C7010BDE480FF1F8F
:40260000014B1B685865704708ED00E04001C0B2014B1870704700BF05E400E02022014B1A60704700E100E02022014B1A60704780E100E010B50446FFF7F6FF2046FFF7E6
:40264000DFFF0720FFF7E2FFFFF7E8FF10BD00BF014B1870704700BF7364004038B50222114B1A7081220E3B1A70082202331A700F2511331D70002401331C704FF40042F0
:402680000A4B1A6003212846FFF782FF08492846FFF76AFF1022074B1A70074B1C70074B1C70074B1C7038BDD649004080E100E0112700007482FF1F7A82FF1F7C82FF1F65
:4026C0007882FF1F08B501F0D7F9064A137843F0040313701032137843F00403137001F0CFF908BDA543004008B5074B1B7823B9FFF7B4FF0122044B1A70FFF7E3FF4FF43E
:402700000042024B1A6008BD0282FF1F00E100E038B5A54B1C78A54B1B7813F0400F00F03A81E4B214F0010F00F01D819F4B1B78453B052B00F21481DFE813F00600820039
:40274000120112010600DF0004F0DF0504F00A04082C42D1954B1B78DBB2452B35D1944B1B7813F0FF0F10D0924B1B681B78DBB2914A137004228C4B1A7001228F4B1A7068
:4027800046228A4B1A702C46EDE08D4B1B7813F0020F0DD08B4A137843F00A0313706022824B1A704FF40042874B1A602C46DAE0864A137843F0100313701022844B1A700F
:4027C0000422023B1A702C46CDE00022764B1A704A22764B1A702C46C5E00A2C2BD1794A137843F0A0031370754B1B7813F0020F14D06E4B1B7813F0080F01D0092300E02B
:402800000A23704A11780B4313706022674B1A704FF400426C4B1A602C46A4E06B4A137843F0100313701022694B1A700422023B1A702C4697E00020FFF774FE2C4692E032
:4028400014F0020F36D15D4B1A78D2B2584B1B78DBB29A4210D2594A1378DBB255490968CB5CDBB254490B7004214F4B197013780133DBB2137076E0514B1B7813F0020FB7
:402880000CD0504A137843F00A0313706022474B1A704FF400424C4B1A6064E04B4A137843F0100313701022494B1A700422023B1A7058E0424B1B7813F0020F0CD0414AE3
:4028C000137843F09A0313706022384B1A704FF400423D4B1A6046E03C4A137843F01003137010223A4B1A700422023B1A70354A137843F09003137035E0364A1378DBB2B6
:40290000354908682C490978C9B2C15413780133DBB213701278D2B2304B1B78DBB29A4203D21022204B1A701DE0254B1B7813F0020F0CD0234A137843F0090313706022A7
:402940001A4B1A704FF400421F4B1A600BE01F4A137843F0100313700022134B1A7002E00020FFF7DFFD14F0200F1CD00F4B1B7813F0080F01D0012300E00223114A117875
:402980000B431370114A137803F0EF0313701022064B1A7038BD054B1B7813F0100F02D11022024B1A7038BDD74900407482FF1F7B82FF1F8082FF1FD84900407882FF1FF8
:4029C0007982FF1F7A82FF1F80E100E0D6490040D94900407C82FF1F8482FF1F8882FF1F1A4B1B78DBB2102B29D1194B1B7813F0080F26D14FF40042164B1A604000C0B266
:402A000029B140F001004922104B1A7002E045220E4B1A70104B1870012201331A700F4B1B7813F0010FFAD00C4B1B7803F00A030A2B08D11022054B1A7003207047022081
:402A40007047012070470020704700BF7482FF1FD949004080E100E0D8490040D74900400A4B1B7813F0040F0ED01023074A13700421023A1170064A1370064B1B7813F03A
:402A8000210FFAD00020704702207047D94900407482FF1FD7490040114B1B7813F0040F1BD0104B18700422013B1A7046220E4B1A700E4B1B7813F0010FFAD00B4B1B78DA
:402AC00013F0020F04D16022074B1A70002070476022054B1A70032070470220704700BFD9490040D84900407482FF1FD7490040024A137843F080031370704771640040D7
:402B0000024A137803F07F031370704771640040014B1870704700BF81640040014B1878704700BF61640040014B1880704700BF40680040014B188880B2704780680040F5
:402B4000014B1880704700BF0068004008B501E0FFF7F0FFFFF7E2FF10F0080FF8D108BD08B540F2E730FFF7DFFF40F2E730FFF7E7FF00F081FF064A137843F01003137041
:402B800000F07EFFFFF7E2FF0020FFF7C1FF08BD9164004008B5054B1B7823B9FFF7E0FF0122024B1A70FFF7A3FF08BD0382FF1F014B1B681866704708ED00E04001C0B22A
:402BC000014B1870704700BF08E400E04FF48072014B1A60704700BF00E100E04FF48072014B1A60704700BF80E100E010B50446FFF7F4FF2046FFF7DBFF0020FFF7DEFFBA
:402C0000FFF7E4FF10BD00BF024A137843F080031370704779640040024A137803F07F031370704779640040014B1870704700BF89640040014B1878704700BF69640040D2
:402C4000014B1880704700BF50680040014B188880B2704790680040014B1880704700BF1068004008B501E0FFF7F0FFFFF7E2FF10F0080FF8D108BD08B5A520FFF7E0FF8D
:402C8000A520FFF7E9FF00F0F7FE064A137843F01003137000F0F4FEFFF7E4FF0020FFF7C3FF08BD9964004008B5054B1B7823B9FFF7E2FF0122024B1A70FFF7A5FF08BDA7
:402CC0000482FF1F014B1B68D865704708ED00E04001C0B2014B1870704700BF07E400E08022014B1A60704700E100E08022014B1A60704780E100E010B50446FFF7F6FF96
:402D00002046FFF7DFFF0220FFF7E2FFFFF7E8FF10BD00BF024A137843F080031370704776650040014B1870704700BF87650040014B1878704700BF67650040014B18805D
:402D4000704700BF4C6A0040014B188880B270478C6A0040014B1880704700BF0C6A004008B501E0FFF7F0FFFFF7E2FF10F0080FF8D108BD08B542F20F70FFF7DFFF42F255
:402D80000F70FFF7E7FF00F077FE064A137843F01003137000F074FEFFF7E2FF0120FFF7C1FF08BD9765004008B5054B1B7823B9FFF7E0FF0122024B1A70FFF7ABFF08BDEE
:402DC0000582FF1F014B1B685864704708ED00E04001C0B2014B1870704700BF01E400E00222014B1A60704700E100E00222014B1A60704780E100E010B50446FFF7F6FF17
:402E00002046FFF7DFFF0720FFF7E2FFFFF7E8FF10BD00BF014B1B689865704708ED00E04001C0B2014B1870704700BF06E400E04022014B1A60704700E100E04022014B84
:402E40001A60704780E100E010B50446FFF7F6FF2046FFF7DFFF0520FFF7E2FFFFF7E8FF10BD00BF024A137843F080031370704778650040024A137803F07F0313707047DD
:402E800078650040014B1870704700BF8B650040014B1878704700BF6B650040014B1880704700BF546A0040014B188880B27047946A0040014B1880704700BF146A004096
:402EC00008B501E0FFF7F0FFFFF7E2FF10F0080FF8D108BD08B542F20F70FFF7DFFF42F20F70FFF7E7FF00F0C7FD064A137843F01003137000F0C4FDFFF7E2FF0120FFF709
:402F0000C1FF08BD9B65004008B5054B1B7823B9FFF7E0FF0122024B1A70FFF7A3FF08BD0682FF1F38B59DF81040651EEDB2032D51D8013809282ED8DFE800F0052D2D05A6
:402F40002D2D0F192D230F2B03D92548007840B222E02448007840B21EE00F2B03D92248007840B218E02148007840B214E00F2B03D91F48007840B20EE01E48007840B26E
:402F80000AE00F2B03D91C48007840B204E01B48007840B200E0002001EB401101FB02F2D20B91B20D2B0BD8C3F10E0192B20A4191B2621E124800EB82020133937005E030
:402FC000631E0F4A02EB83030F229A70013C0C4B23F8241038BD0020FFF7A4FA38BD00BF180100491C010049190100491D0100491A0100491E0100491B0100491F010049DD
:403000000882FF1FF8B5074600F036FD06460D4D2B7843F003032B700B4C237843F0030323700A4B1F700320FFF794FA2B7803F0FC032B70237803F0FC032370304600F0AF
:403040001FFDF8BDF8460040F9460040925800402DE9F04104460022C34B1A74012860D13022C24B1A70042202331A70062201331A70002501331D7001331D703F220133BF
:403080001A7002331D7001331D7001331D7001260A331E70502203F527631A70272201331A702C2201331A7001331D70552203331A705A2201331A704FF00508013383F892
:4030C0000080022702331F70122201331A70282201331A70EB2201331A704420FFF792FF5822A34B1A7001331D70053383F8008001331F7001331D7001331D70284600F02A
:40310000DBFA4FF47A429B4B1A603146032000F0F7FA31460F2000F077FB97491D20FFF723FA022C5DD13822904B1A70042202331A70062201331A70002501331D700133A8
:403140001D703F2201331A7002331D7001331D7001331D7001260A331E70502203F527631A70272201331A702C2201331A7001331D70552203331A705A2201331A7005277E
:4031800001331F7002331E70112201331A70192201331A70972201331A704420FFF732FF5822734B1A7001331D7005331F70022201331A7001331D7001331D70284600F091
:4031C0007BFA4FF47A426B4B1A603146384600F097FA3146252000F017FB68491D20FFF7C3F9032C5DD13822604B1A70042202331A70062201331A70002501331D70013386
:403200001D703F2201331A7002331D7001331D7001331D7001260A331E70502203F527631A70272201331A702C2201331A7001331D70552203331A705A2201331A700527BD
:4032400001331F7002331E70112201331A70192201331A70972201331A704420FFF7D2FE5822434B1A7001331D7005331F70022201331A7001331D7001331D70284600F061
:403280001BFA4FF47A423B4B1A603146384600F037FA3146252000F0B7FA39491D20FFF763F9042C5DD13822304B1A70042202331A70062201331A70002401331C700133D6
:4032C0001C703F2201331A7002331C7001331C7001331C7001250A331D70502203F527631A70272201331A702C2201331A7001331C70552203331A705A2201331A70052605
:4033000001331E7002331D70112201331A70192201331A70972201331A704420FFF772FE5822134B1A7001331C7005331E70022201331A7001331C7001331C70204600F03E
:40334000BBF94FF47A420B4B1A602946304600F0D7F92946252000F057FA0A491D20FFF703F9BDE8F08100BF0882FF1F004E0040945800408C82FF1F893600008D360000C9
:4033800091360000953600002DE9F04182B0394D4FF0010885F80080374E00247474102000F09CF9102000F01DFA07211D20FFF7EFF80427314B1F7001331C7007331C70BC
:4033C0002F4A137843F0180313702E4B1C7003F2F5231C7001331C700A22A3F209331A7001331C7002331C705B2205331A705E2201331A7004331C701422A3F68C231A704A
:40340000CDF8008010234FF4004249F2DA012046FFF788FD0223009310234FF4004249F2DA012046FFF77EFD0323009310234FF4004249F2DA012046FFF774FD009710231D
:403440004FF4004249F2DA012046FFF76BFD2B78013B06EB83039A780B4B1A702B78013B36F82320094B1A802878FFF7F1FD02B0BDE8F081E580FF1F0882FF1F96580040C2
:40348000075B0040935800400E4E00400C4E004070B500F0F1FA06462A4B1B782A4B1A7842F001021A701A7842F010021A7010331A7842F001021A701A7842F010021A709B
:4034C000224D2B7843F002032B70214C237843F0020323701F4A137843F0030313700320FFF738F82B7803F0FD032B70237803F0FD032370184A137843F0060313707A2281
:40350000164B1A70164A137843F0010313701032137843F0010313700F3A137843F0010313701032137843F0010313704FF000530C4A1360A2F5C0721360304600F0A0FAC8
:4035400070BD00BFE580FF1FAA430040F8460040F9460040915800407758004082580040A143004080E200E008B5084B9B7C4BB9064BDB7C13F0FF0F01D1FFF705FF012227
:40358000024B9A74FFF784FF08BD00BF0882FF1F024A137843F0010313707047004E0040094B1B7C13F0FF0F03D0074B5B7CDBB203E0064B1B7803F00103012B01D00028CD
:4035C000EED01846704700BF0882FF1F014E0040154B1B7803F00303012B07D8134B1888023B1B889BB243EA004013E0022B0AD10E4B1888023B1B7843EA00430C4A107861
:4036000043EA002006E00B4B188883B2074A108843EA0040084B1B7C13F0FF0F02D00022054B5A74704700BF144E0040124E0040114E0040104E00400882FF1F0F4B1B783F
:40364000DBB2012B06D00D4B1B78DBB2022B01D00A4B1B780A4B1B68002B00DA1F335A1147F6122303FB00F090FBF2F00549496903FB01F393FBF2F3C01A7047E580FF1F7D
:403680008C82FF1F0882FF1F704700BF704700BF704700BF704700BF10B5002404E02046FEF758FB0134E4B2012CF8D9FF22014B1A7010BDE680FF1F10B50446FFF7ECFFE2
:4036C0002046FEF739FB014B1C7010BDE680FF1F014B188880B2704780400040034B1A7800F0F80010431870704700BF82400040024B187800F00700704700BF82400040D6
:4037000070B505460E46FFF7F3FF0446FFF7E0FFA84256D02B4B1B7803F0010294B900B185B938B9284B1D80284A137803F0BF03137070BD254A137843F040031370224BB0
:403740001D8070BD22B3002321490B7001240F310C7004310B700C390B7803F07F030B701A4B1B7813F0080F00D08DB9194B18800721013B1970164B1B7813F0010FFAD176
:4037800010490B7803F0FE030B700021104B19700C4B1B7813F0010F0DD00E4B1D800EB1032200E001220A4B1A70094B1B7813F0010FFAD170BD044B1D8002490B78134321
:4037C0000B7070BDA243004080400040824000400140004002400040014B188880B2704700410040034B1A7800F0F80010431870704700BF02410040024B187800F0070031
:40380000704700BF0241004070B505460E46FFF7F3FF0446FFF7E0FFA84256D02B4B1B7803F0010294B900B185B938B9284B1D80284A137803F0BF03137070BD254A13781C
:4038400043F040031370224B1D8070BD22B3002321490B70012413310C7004390B7008390B7803F07F030B701A4B1B7813F0080F00D08DB9194B18800721013B1970164B78
:403880001B7813F0010FFAD110490B7803F0FE030B700021104B19700C4B1B7813F0010F0DD00E4B1D800EB1032200E001220A4B1A70094B1B7813F0010FFAD170BD044B70
:4038C0001D8002490B7813430B7070BDA143004000410040024100400140004002400040044A137803F0DF03400100F020001843107070473051004008B500F0BDF80A4A2C
:40390000137843F020031370023A137843F0100313700A3A137843F01003137000F0B0F80122024B1A6008BD9F64004000E100E0014B1878704700BF6D640040014B187871
:40394000704700BF63640040034B1B7813F0020FFAD0024B187070476D6400404F640040014B1878704700BF5F64004008B501E00A4B1B780A4B1B7813F0080FF8D100F0E5
:403980007BF8084B1A7842F003021A701A7802F0FC021A7000F074F808BD00BF5F640040636400409F64004010B507240C4B1C7001220C4B1A600C490020FEF7D5FD21464B
:4039C0000020FEF7E5FDFFF7D1FFFFF7B1FFFFF7B5FF0022054B1A7008220A3B1A7010BD8F64004080E100E00D3A00008D64004008B5054B1B7823B9FFF7D6FF0122024B55
:403A00001A70FFF779FF08BD2082FF1F704700BF014B1B689866704708ED00E04001C0B2014B1870704700BF0AE400E04FF48062014B1A60704700BF00E100E04FF4806228
:403A4000014B1A60704700BF80E100E010B50446FFF7F4FF2046FFF7DBFF0720FFF7DEFFFFF7E4FF10BD00BF0230800803D000BF01380046FCD17047EFF3108072B670479C
:403A800080F31088704700BFF8B5C1F30A56A6F2FF35132D0A460B460446864611DC002D2EDB0F461F4929410A4225D04FF400232B413B4423EA01030026194634462046AF
:403AC000F8BD332D05DDB5F5806F1FD011462046F8BDA6F213464FF0FF3121FA06F63042F4D00122C5F1330502FA05F52D1828BF9B1825EA0606E0E70028D7D11146E6E76C
:403B0000013501F0004307D00026D6E702460B4600F092F90446D2E743F07F5343F440130026CAE7FFFF0F002DE9F04F8BB01D4680468946144600F059F82A4B064693F967
:403B400000A00F46BAF1FF3F2FD022462B462046294600F0BDFD40BB42464B464046494600F0B6FD834600BB002200232046294600F07CFDC8B11C4A0123CDE90289CDE943
:403B80000445CDF820B001920093BAF1000F11D1CDE90689684600F047F9B0B1089BDBB9DDE906010BB0BDE8F08F304639460BB0BDE8F08F002200231046194600F018FC2C
:403BC000BAF1020FCDE90601E4D101F009F921230360089B002BE3D001F002F9089B0360DEE700BFE780FF1F285B00002DE9F84F23F0004952EA090620D001F00046834F01
:403C000081EA0608B84519DC57421743DFF814B249EAD7775F45944610D8C8451D4682460446964612DC0FDB90420DD30ED1784BF60F03EBC60393E8030005E000F0AEFA61
:403C400002460B4600F0D4FBBDE8F88FB8F5801F0EDAB8F1000F40F09C80BAF1000F53466C4909DD5B00002B01F1FF31FADC03E04FEA2851A1F2FF31B9F5801F0EDAB9F1E5
:403C8000000F40F09F80BCF1000F6346614F09DD5B00002B07F1FF37FADC03E04FEA2957A7F2FF375C4B994256DBC8F3130343F48013594A97425EDBC5F3130545F4801515
:403CC000C91B07E052EA000313D0C30F03EB420344000139CEEB04005A1B89B1744538BF02F1FF32002AEDDAE20F02EB43036400EFE7474BF60F03EBC60696E80300A3E769
:403D00001546744538BF02F1FF35002DB4BF1D46CEEB040455EA0403EBD0404A954208DCE30F03EB4505954207F1FF374FEA4404F6DD394B9F424EDA374AD21B142A54DC5B
:403D4000C2F12003D44005FA03F3234345FA02F242EA0601184677E72F4C641A1F2C2BDCC4F1200308FA04F82AFA03F343EA08030AFA04F49DE72848C01B1F2815DCC0F1B5
:403D8000200209FA00F52CFA02F215430CFA00FE96E74FEAC823002B1F497FF76DAF5B00002B01F1FF31FADC66E71D4D4FF0000EED1B0CFA05F583E7194B00245B1A0AFAB8
:403DC00003F376E7144F4FEAC9235B00002B07F1FF37FADC66E7A5F580152E4307F2FF3746EA0753204619462EE71F2A07DCC2F12003D4409D4045EA04033246A8E7084B5B
:403E00003246DB1B45FA03F3A2E700BFFFFFEF7F305B0000EDFBFFFF02FCFFFFFFFF0F00E2FBFFFF0000F07F0020704781F0004102E000BF83F0004330B54FEA41044FEAEB
:403E4000430594EA050F08BF90EA020F1FBF54EA000C55EA020C7FEA645C7FEA655C00F0E2804FEA5454D4EB5555B8BF6D420CDD2C4480EA020281EA030382EA000083EA7B
:403E8000010180EA020281EA0303362D88BF30BD11F0004F4FEA01314FF4801C4CEA113102D0404261EB410113F0004F4FEA03334CEA133302D0524263EB430394EA050FCD
:403EC00000F0A780A4F10104D5F1200E0DDB02FA0EFC22FA05F2801841F1000103FA0EF2801843FA05F359410EE0A5F120050EF1200E012A03FA0EFC28BF4CF0020C43FA77
:403F000005F3C01851EBE37101F0004507D54FF0000EDCF1000C7EEB00006EEB0101B1F5801F1BD3B1F5001F0CD349085FEA30004FEA3C0C04F101044FEA445212F5800FA4
:403F400080F09A80BCF1004F08BF5FEA500C50F1000041EB045141EA050130BD5FEA4C0C404141EB010111F4801FA4F10104E9D191F0000F04BF01460020B1FA81F308BF87
:403F80002033A3F10B03B3F120020CDA0C3208DD02F1140CC2F10C0201FA0CF021FA02F10CE002F11402D8BFC2F1200C01FA02F120FA0CFCDCBF41EA0C019040E41AA2BFE7
:403FC00001EB0451294330BD6FEA04041F3C1CDA0C340EDC04F11404C4F1200220FA04F001FA02F340EA030021FA04F345EA030130BDC4F10C04C4F1200220FA02F001FA67
:4040000004F340EA0300294630BD21FA04F0294630BD94F0000F83F4801306BF81F480110134013D4EE77FEA645C18BF7FEA655C29D094EA050F08BF90EA020F05D054EA6B
:40404000000C04BF1946104630BD91EA030F1EBF0021002030BD5FEA545C05D14000494128BF41F0004130BD14F580043CBF01F5801130BD01F0004545F0FE4141F470010C
:404080004FF0000030BD7FEA645C1ABF194610467FEA655C1CBF0B46024650EA013406BF52EA033591EA030F41F4002130BD00BF90F0000F04BF0021704730B54FF4806412
:4040C00004F132044FF000054FF0000150E700BF90F0000F04BF0021704730B54FF4806404F1320410F0004548BF40424FF000013EE700BF42004FEAE2014FEA31014FEAC6
:4041000002701FBF12F07F4393F07F4F81F06051704792F0000F14BF93F07F4F704730B54FF4607401F0004521F0004120E700BF50EA010208BF704730B54FF000050AE0BD
:4041400050EA010208BF704730B511F0004502D5404261EB41014FF4806404F132045FEA915C3FF4DCAE4FF003025FEADC0C18BF03325FEADC0C18BF033202EBDC02C2F1F1
:40418000200300FA03FC20FA02F001FA03FE40EA0E0021FA02F11444C1E600BF70B54FF0FF0C4CF4E06C1CEA11541DBF1CEA135594EA0C0F95EA0C0F00F0DEF82C4481EA53
:4041C000030621EA4C5123EA4C5350EA013518BF52EA033541F4801143F4801338D0A0FB02CE4FF00005E1FB02E506F00042E0FB03E54FF00006E1FB03569CF0000F18BFB6
:404200004EF0010EA4F1FF04B6F5007F64F5407404D25FEA4E0E6D4146EB060642EAC62141EA55514FEAC52040EA5E504FEACE2EB4F1FD0C88BFBCF5E06F1ED8BEF1004F04
:4042400008BF5FEA500E50F1000041EB045170BD06F0004646EA010140EA020081EA0301B4EB5C04C2BFD4EB0C0541EA045170BD41F480114FF0000E013C00F3AB8014F168
:40428000360FDEBF002001F0004170BDC4F10004203C35DA0C341BDC04F11404C4F1200500FA05F320FA04F001FA05F240EA020001F0004221F0004110EBD37021FA04F665
:4042C00042EB06015EEA430E08BF20EAD37070BDC4F10C04C4F1200500FA04F320FA05F001FA04F240EA020001F0004110EBD37041F100015EEA430E08BF20EAD37070BD77
:40430000C4F1200500FA05F24EEA020E20FA04F301FA05F243EA020321FA04F001F0004121FA04F220EA020000EBD3705EEA430E08BF20EAD37070BD94F0000F0FD101F06B
:404340000046400041EB010111F4801F08BF013CF7D041EA060195F0000F18BF704703F00046520043EB030313F4801F08BF013DF7D043EA0603704794EA0C0F0CEA1355B1
:4043800018BF95EA0C0F0CD050EA410618BF52EA4306D1D181EA030101F000414FF0000070BD50EA410606BF1046194652EA430619D094EA0C0F02D150EA013613D195EA7B
:4043C0000C0F05D152EA03361CBF104619460AD181EA030101F0004141F0FE4141F470014FF0000070BD41F0FE4141F4780170BD70B54FF0FF0C4CF4E06C1CEA11541DBF3C
:404400001CEA135594EA0C0F95EA0C0F00F0A7F8A4EB050481EA030E52EA03354FEA013100F088804FEA03334FF0805545EA131343EA12634FEA022245EA111545EA106591
:404440004FEA00260EF000419D4208BF964244F1FD0404F5407402D25B084FEA3202B61A65EB03055B084FEA32024FF480104FF4002CB6EB020E75EB030E22BFB61A7546D1
:4044800040EA0C005B084FEA3202B6EB020E75EB030E22BFB61A754640EA5C005B084FEA3202B6EB020E75EB030E22BFB61A754640EA9C005B084FEA3202B6EB020E75EBDD
:4044C000030E22BFB61A754640EADC0055EA060E18D04FEA051545EA16754FEA06164FEAC30343EA52734FEAC2025FEA1C1CC0D111F4801F0BD141EA00014FF000004FF072
:40450000004CB6E711F4801F04BF01430020B4F1FD0C88BFBCF5E06F3FF6AFAEB5EB030C04BFB6EB020C5FEA500C50F1000041EB045170BD0EF0004E4EEA113114EB5C0466
:40454000C2BFD4EB0C0541EA045170BD41F480114FF0000E013C90E645EA060E8DE60CEA135594EA0C0F08BF95EA0C0F3FF43BAF94EA0C0F0AD150EA01347FF434AF95EA94
:404580000C0F7FF425AF104619462CE795EA0C0F06D152EA03353FF4FDAE1046194622E750EA410618BF52EA43067FF4C5AE50EA41047FF40DAF52EA43057FF4EBAE12E756
:4045C0004FF0FF3C06E000BF4FF0010C02E000BF4FF0010C4DF804CD4FEA410C7FEA6C5C4FEA430C18BF7FEA6C5C1BD001B050EA410C0CBF52EA430C91EA030F02BF90EAC5
:40460000020F0020704710F1000F91EA030F58BF994208BF90422CBFD8176FEAE37040F0010070474FEA410C7FEA6C5C02D150EA013C07D14FEA430C7FEA6C5CD6D152EA87
:40464000033CD3D05DF8040B704700BF8446104662468C461946634600E000BF01B5FFF7B7FF002848BF10F1000F01BD4DF808EDFFF7F4FF0CBF012000205DF808FB00BF98
:404680004DF808EDFFF7EAFF34BF012000205DF808FB00BF4DF808EDFFF7E0FF94BF012000205DF808FB00BF4DF808EDFFF7CEFF94BF012000205DF808FB00BF4DF808EDFA
:4046C000FFF7C4FF34BF012000205DF808FB00BF4FEA410C7FEA6C5C02D150EA013C0AD14FEA430C7FEA6C5C02D152EA033C02D14FF0000070474FF0010070474FEA410297
:4047000012F5001215D211D56FF47873B3EB625212D94FEAC12343F0004343EA505311F0004F23FA02F018BF404270474FF00000704750EA013005D111F0004008BF6FF098
:40474000004070474FF00000704700BF4FEA4102B2F1E04324BFB3F5001CDCF1FE5C0DD901F0004C4FEAC0024CEA5070B2F1004F40EB830008BF20F00100704711F0804F6A
:4047800021D113F13872BCBF01F00040704741F480114FEA5252C2F11802C2F1200C10FA0CF320FA02F018BF40F001004FEAC1234FEAD32303FA0CFC40EA0C0023FA02F3F1
:4047C0004FEA4303CCE77FEA625307D150EA01331EBF4FF0FE4040F44000704701F0004040F0FE4040F40000704700BF80F0004002E000BF81F0004142001FBF5FEA4103A5
:4048000092EA030F7FEA226C7FEA236C6AD04FEA1262D2EB1363C1BFD218414048404140B8BF5B42192B88BF704710F0004F40F4000020F07F4018BF404211F0004F41F467
:40484000000121F07F4118BF494292EA030F3FD0A2F1010241FA03FC10EB0C00C3F1200301FA03F100F0004302D5494260EB4000B0F5000F13D3B0F1807F06D340084FEA16
:40488000310102F10102FE2A51D2B1F1004F40EBC25008BF20F0010040EA03007047490040EB000010F4000FA2F10102EDD1B0FA80FCACF1080CB2EB0C0200FA0CF0AABFDF
:4048C00000EBC25052421843BCBFD0401843704792F0000F81F4000106BF80F400000132013BB5E74FEA41037FEA226C18BF7FEA236C21D092EA030F04D092F0000F08BFF6
:404900000846704790EA010F1CBF0020704712F07F4F04D1400028BF40F00040704712F100723CBF00F50000704700F0004343F0FE4040F4000070477FEA226216BF084688
:404940007FEA23630146420206BF5FEA412390EA010F40F4800070474FF0000304E000BF10F0004348BF40425FEA000C08BF704743F0964301464FF000001CE050EA010207
:4049800008BF70474FF000030AE000BF50EA010208BF704711F0004302D5404261EB41015FEA010C02BF84460146002043F0B64308BFA3F18053A3F50003BCFA8CF2083AF5
:4049C000A3EBC25310DB01FA02FC634400FA02FCC2F12002BCF1004F20FA02F243EB020008BF20F00100704702F1200201FA02FCC2F1200250EA4C0021FA02F243EB02004B
:404A000008BF20EADC7070474FF0FF0C1CEAD0521EBF1CEAD15392EA0C0F93EA0C0F6FD01A4480EA010C400218BF5FEA41211ED04FF0006343EA501043EA5111A0FB0131A9
:404A40000CF00040B1F5000F3EBF490041EAD3715B0040EA010062F17F02FD2A1DD8B3F1004F40EBC25008BF20F00100704790F0000F0CF0004C08BF49024CEA502040EAA2
:404A800051207F3AC2BFD2F1FF0340EAC250704740F400004FF00003013A5DDC12F1190FDCBF00F000407047C2F10002410021FA02F1C2F1200200FA02FC5FEA310040F180
:404AC000000053EA4C0308BF20EADC70704792F0000F00F0004C02BF400010F4000F013AF9D040EA0C0093F0000F01F0004C02BF490011F4000F013BF9D041EA0C018FE79B
:404B00000CEAD15392EA0C0F18BF93EA0C0F0AD030F0004C18BF31F0004CD8D180EA010000F00040704790F0000F17BF90F0004F084691F0000F91F0004F14D092EA0C0F73
:404B400001D142020FD193EA0C0F03D14B0218BF084608D180EA010000F0004040F0FE4040F40000704740F0FE4040F4400070474FF0FF0C1CEAD0521EBF1CEAD15392EA06
:404B80000C0F93EA0C0F69D0A2EB030280EA010C49024FEA402037D04FF0805343EA111143EA10130CF000408B4238BF5B0042F17D024FF4000C8B4224BF5B1A40EA0C00AD
:404BC000B3EB510F24BFA3EB510340EA5C00B3EB910F24BFA3EB910340EA9C00B3EBD10F24BFA3EBD10340EADC001B0118BF5FEA1C1CE0D1FD2A3FF650AF8B4240EBC25010
:404C000008BF20F0010070470CF0004C4CEA50207F32C2BFD2F1FF0340EAC250704740F400004FF00003013A37E792F0000F00F0004C02BF400010F4000F013AF9D040EA2F
:404C40000C0093F0000F01F0004C02BF490011F4000F013BF9D041EA0C0195E70CEAD15392EA0C0F08D142027FF47DAF93EA0C0F7FF470AF084676E793EA0C0F04D14B0286
:404C80003FF44CAF08466EE730F0004C18BF31F0004CCAD130F000427FF45CAF31F000437FF43CAF5FE700BF4FF0FF3C06E000BF4FF0010C02E000BF4FF0010C4DF804CDC3
:404CC0004FEA40024FEA41037FEA226C18BF7FEA236C11D001B052EA530C18BF90EA010F58BFB2EB030088BFC81738BF6FEAE17018BF40F0010070477FEA226C02D15FEA18
:404D0000402C05D17FEA236CE4D15FEA412CE1D05DF8040B704700BF844608466146FFE70FB5FFF7C9FF002848BF10F1000F0FBD4DF808EDFFF7F4FF0CBF012000205DF88D
:404D400008FB00BF4DF808EDFFF7EAFF34BF012000205DF808FB00BF4DF808EDFFF7E0FF94BF012000205DF808FB00BF4DF808EDFFF7D2FF94BF012000205DF808FB00BFA7
:404D80004DF808EDFFF7C8FF34BF012000205DF808FB00BF4FEA4002B2F1FE4F0FD34FF09E03B3EB12620DD94FEA002343F0004310F0004F23FA02F018BF404270474FF00D
:404DC0000000704712F1610F01D1420205D110F0004008BF6FF0004070474FF000007047014B1868704700BF4881FF1F0E4B70B51E460E4C0025E41AA410A54204D056F805
:404E0000253098470135F8E700F0B6FE084B094C1E46E41AA4100025A54204D056F8253098470135F8E770BD845B0000845B0000845B00008C5B000010B5431E0A44914258
:404E400004D011F8014B03F8014FF8E710BD03460244934202D003F8011BFAE7704700000CB430B5164B0C1E9DB01D6804DA8B232B604FF0FF301EE04FF40273ADF8143007
:404E80000CBF234604F1FF33049307934FF6FF7302900690ADF81630209A21AB02A92846019300F095F8431CBCBF8B232B6014B1029B00221A701DB0BDE8304002B0704780
:404EC0004881FF1F0EB400B54FF402719CB0ADF814106FF00041049107914FF6FF711DAB02900690084853F8042BADF81610006802A9019300F06CF8029B00221A701CB072
:404F00005DF804EB03B070474881FF1F034613F8012B002AFBD1181A013870472DE9F0478E6882469E420C46914698463ED88A8912F4906F3AD02568096902236F1A65699F
:404F400005EB450595FBF3F57B1C43449D4238BF1D4653050FD5294600F040FB064698B13A462169FFF768FFA38923F4906343F08003A38113E02A4600F08EFB064670B9F5
:404F80002169504600F0DEFA0C23CAF80030A3894FF0FF3043F04003A381BDE8F08726613E44266046466561ED1BA560464528BF464649463246206800F0A8FAA368002060
:404FC0009B1BA36023681E442660BDE8F08700002DE9F04F9DB003938B8980461C060D4616460DD50B695BB9402100F0F7FA2860286118B90C23C8F80030CDE040236B61FD
:405000000023099320238DF82930DFF89CB130238DF82A3037463C4614F8013B1BB9B7EB060910D003E0252BF9D02746F3E74B46324629464046FFF771FF013000F0A7809F
:40504000099B4B4409933B78002B00F0A08000234FF0FF3204930793059206938DF853301A930126052221784E4800F041FA671C049B38B14B4A3C46801A06FA00F018431B
:405080000490EFE7D90644BF20228DF853201A0744BF2B228DF8532022782A2A03D0079A00210A200BE0039A111D12680391002A10DA524243F00200079204900BE027462E
:4050C0003B780134303B092B03D800FB02320121F5E701B107923B782E2B1ED17B782A2B0AD1039B02371A1D1B680392002BB8BF4FF0FF33059310E0002319460593781C49
:405100000A2407463A780130303A092A03D804FB01210123F5E703B1059103223978224800F0E6F940B14023CBEB000003FA00F0049B013718430490397806221B487E1C8C
:405140008DF8281000F0D4F988B1194B33B9039B073323F007030833039314E003AB00932A46144B04A94046AFF3008007E003AB00932A460F4B04A9404600F093F8B0F1CC
:40518000FF3F824603D0099B5344099342E7AB895B0601D4099801E04FF0FF301DB0BDE8F08F00BF425B0000485B00004C5B0000000000001D4F00002DE9F04791461F4630
:4051C0000A698B6806469342B8BF1346C9F8003091F843200C46DDF8208012B10133C9F800302368990642BFD9F800300233C9F80030256815F0060510D104F1190A07E0FD
:405200000123524639463046C04701301AD00135E368D9F800209B1A9D42F1DB94F843302268003318BF012392060FD5E118302081F843005A1C94F845102244023382F825
:40524000431003E04FF0FF30BDE8F08704F1430239463046C0470130F4D02268D9F80050E36802F00602042A08BF5D1B2269A3680CBF25EAE57500259342C4BF9B1AED18E5
:405280004FF000091A344D4509D00123224639463046C0470130D5D009F10109F3E70020BDE8F0872DE9F04317460A7E85B06E2A984606460C460C9B01F1430E00F0AE80F6
:4052C00011D8632A22D009D8002A00F0BB80582A40F0CA8081F84520834955E0642A1ED0692A1CD0C0E0732A00F0B08009D86F2A2ED0702A40F0B8800A6842F020020A6033
:405300003EE0752A24D0782A3AD0ADE01A6801F14205111D1960136884F84230A8E021681A6811F0800F02D0111D196008E011F0400F02F10401196002D0B2F9003000E0E6
:405340001368002B3CDA2D225B4284F8432037E021681A6811F0800F02D0111D196007E011F0400F02F10401196001D0138800E01368227E5C496F2A14BF0A2208221BE00A
:4053800078225A4984F845202268186812F0800F00F104051D6003D1550601D5038800E00368D00744BF42F0200222601BB9226822F0200222601022002084F8430001E02C
:4053C00049490A226568002DA56008DB206820F0040020602BB9002D7DD175460CE0002B79D07546B3FBF2F002FB1033CB5C05F8013D03460028F5D1082A0BD12368DA07D9
:4054000008D5236962689A42DEBF302305F8013C05F1FF35C5EB0E0323612EE008681A6810F0800F496903D0101D1860136808E010F0400F02F104001860136801D0198005
:4054400000E0196000232361754616E01A68111D1960156800216268284600F049F808B1401B6060636804E004F1420584F8422001232361002384F84330CDF800803B462E
:4054800003AA21463046FFF797FE013002D14FF0FF3026E023692A4639463046C0470130F5D023689B0710D5002504F1190907E001234A4639463046C0470130E7D001356E
:4054C000E368039A9B1A9D42F2DBE068039B9842B8BF184605E00B7804F1420584F842308AE705B0BDE8F083535B0000645B000010B5C9B202449042034605D01C78013056
:405500008C42F8D1184610BD002010BD884210B501EB020301D8421E0BE09842FBD28118D21AD34204D013F8014D01F8014DF8E710BD994204D011F8014B02F8014FF8E78A
:4055400010BD000038B50546002944D051F8043C0C1F002BB8BFE41800F0D4F81E4A1368114613B96360146030E0A3420DD92268A018834201BF18685B681218226063604A
:405580000C6023E0A24203D813465A68002AF9D118681918A1420BD12168014458188242196013D110685268014419605A600DE002D90C232B6009E021686018824201BF45
:4055C000106852680918216062605C602846BDE8384000F098B838BD2882FF1F70B5CD1C25F0030508350C2D38BF0C25002D064601DBA94202D90C23336046E000F082F89B
:40560000234B1C681A462146A1B10B685B1B0ED40B2B03D90B60CC18CD501EE08C420BBF63684B681360636018BF0C4615E00C464968E9E7174C23681BB9304600F052F869
:4056400020602946304600F04DF8431C18D0C41C24F00304A0420DD12560304600F053F804F10B00231D20F00700C31A0ED05A42E25070BD211A304600F034F80130EBD191
:405680000C233360304600F03EF8002070BD00BF2882FF1F2482FF1FF8B5074615460E4621B91146BDE8F840FFF798BF1AB9FFF749FF2846F8BD00F027F885420ED9294690
:4056C0003846FFF78BFF044650B131462A46FFF7B3FB31463846FFF735FF01E03046F8BD2046F8BD38B5064C0023054608462360FCF7EEFB431C02D1236803B12B6038BD45
:405700009082FF1F7047704751F8040C0028BEBF091851F8043CC01804387047000000004D41494E2053544152540D0A000000004E534C202D2049444C450D0A00000000DF
:40574000330000004E534C202D20474F494E475F49444C450D0A00004E534C202D204556414C554154494E475F5745494748540D0A0000005765696768743A20256C692030
:4057800020202020000000004E534C202D2052454144590D0A0000004E534C202D20434F55544E444F574E0D0A0000004E534C202D20434855470D0A000000004E534C20AC
:4057C0002D2057494E4E45525F444F4E450D0A004E534C202D204556414C554154494E475F4E45575F5745494748540D0A0000004E534C202D204C4F5345525F444F4E45B8
:405800000D0A00004E534C202D205745494748545F434F4E4649524D45440D0A000000004E534C202D2047414D455F4F5645520D0A0000004E534C202D204552525F5745BE
:40584000494748540D0A00004E534C202D204552525F4E4F5F53544152540D0A000000004E534C202D204552525F46414C53455F53544152540D0A004E534C202D204552A0
:40588000525F54494D454F55540D0A004E534C202D204552525F4E4F434855470D0A00004E534C202D2044454641554C540D0A004F4C202D2049444C450D0A003400000095
:4058C0004F4C202D20474F494E475F49444C450D0A0000004F4C202D204556414C554154494E475F5745494748540D0A000000004F4C202D2052454144590D0A00000000CE
:405900004F4C202D20434F554E54444F574E0D0A000000004F4C202D20434855470D0A004F4C202D2057494E4E45525F444F4E450D0A00004F4C202D204556414C554154B0
:40594000494E475F4E45575F5745494748540D0A000000004F4C202D2047414D455F4F5645520D0A000000004F4C202D204552525F5745494748540D0A0000004F4C202DD7
:40598000204552525F4E4F5F53544152540D0A004F4C202D204552525F46414C53455F53544152540D0A00004F4C202D204552525F54494D454F55540D0A00004F4C202DA9
:4059C000204552525F4E4F434855470D0A0000004F4C202D2044454641554C540D0A000043616C69627261746564205765696768742066726F6D20706C6179657220313AC1
:405A000020256C69200D0A003500000043616C69627261746564205765696768742066726F6D20706C6179657220323A20256C69200D0A003600000043616C6962726174B7
:405A4000696E672057656967687453656E736F72730D0A0030000000256400005370696C6C657220310000005469643A200000005370696C6C6572203200000025642C25F5
:405A80006473202020000000000000004000000014000000540000001B5B324B000000001B5B00003B000000660000001B5B39316D0000001B5B39326D0000001B5B39347F
:405AC0006D0000001B5B306D000000000D5100400D51004004800000035B00402443004040000000C84900401900205100401000405100403000000001400010001401400F
:405B0000000800400140000A004C0140000200500140200060520040380F0048060000510140400F00480800666D6F640000000000000000000000000000000000000080B4
:405B40004300232D302B2000686C4C006566674546470030313233343536373839414243444546003031323334353637383961626364656600000000F8B500BFF8BC08BC0B
:405B80009E4670474D0000004D1F0000F8B500BFF8BC08BC9E46704729000000B05B0000C880FF1F880000004801000000000000000000000000003F9882FF1F0000E02E22
:405BC000C05D00001800000000366E01FF01FF010000000000000000000000000000000000000000000000000000000000000000405B000000000000000000000000000030
:405C0000000000000000000000000000000000000000000000000000000000000000000000000000000000000000000000000000E880FF1F000000000000000000000000DE
:405C40000000000000000000000000000000000000000000000000000000000000000000000000000000000000000000000000000000000000000000000000000000000024
:405C800000000000000000000000000000000000000000000000000000000000000000000000000000000000000000000000000000000000000000000000000000000000E4
:405CC00000000000000000000000000000000000000000000000000000000000000000000000000000000000000000000000000000000000000000000000000000000000A4
:405D00000000000000000000000000000000000000000000000000000000000000000000000000000000000000000000000000000000000000000000000000000000000063
:020000040003F7
:0200000480007A
:40000000035200400A640040046500405A000140340101405602014047030140630401404405014058060140450701405D08014039090140570A01403D0B01402A0C014076
:40004000330D01403A0E0140230F014053140140331501405E1601403B1701404F18014041190140651A0140461B01400740014015410140134201400D4301400744014013
:40008000034501400A460140034701400E480140114901400A4C01400A4D0140085001400020012018028017810D820D8378870D8838890D8B0F8D478F07850D870D897288
:4000C0008B0D00040407060808020A0D0E040F0112041405160A170118041C04240428033101320F3A08405349FF4AFF4BFF4F01501856025728580459045A045B045C414D
:400100005D145F016040624064406540668068806A806C806E80830885038704880189038B04940199059B02A401A501A706AB08B001B307B708BB08BE01BF40C042C5ECB6
:40014000C702C813C9FFCAFFCBFFCD83CE03CF01D018D280D401D804D904DA04DB04DC10DD44DF01E040E240E440E540E680E880EA80EC80EE800018034106080A850B205C
:400180000F2011201308150418101F012102264027102D042F18330837103A403C0A3D203E083F204308464448014D024F04560457085D025E805F046010682069106A04EF
:4001C0006B49720374017640C04FC22FC426CA60CC22CEE8D0A2D208D6D0D802E20101020F0112011701190228012E012F023101330234013E103F05404649FF4AFF4BFFD3
:400200004F01501852805401580459045A045B045D445F016040624064406540668068806A806C806E8081068502870589018B028E0191049302950799029B049F02A106C3
:40024000A506A904AA01AD08B507B601B708BF40C046C5ECC702C813C9FFCAFFCBFFCD83CE03CF01D018D420D604D804D904DA04DB04DC14DD34DF01E040E240E440E54056
:40028000E680E880EA80EC80EE8003020E401208154017101A021F2020082280246028402A142B012E4030283240330136083710381039043A023C023E804280430246804D
:4002C0004A084B054C0450045208584059025B405C405F056028628063806801694076808020834089028B018E028F2091109302950496809A029B51A020A404A710A9028B
:40030000C001C210C4C2CA1FCC6FCE97D081D224D6D1D80FE240E61405010B010D010F021101150117021B011D012101250227012B03370338203B803E1040324106424009
:4003400049FF4AFF4BFF4C024E704F0C5004580459045A045C105D015F0162C0644065016610671168C069016B116C406D016E406F01800183018401880E8A308E019268E3
:40038000945896269A049E12A201A442A614A801AC01B07EB301B401BE10C063C102C240C50EC6CDC7BFC83DC90FCAFFCBFFCC23CEB0CF0CD004D440D804D904DA04DB045F
:4003C000DC11DD11DF01E2C0E440E501E610E711E8C0E901EB11EC40ED01EE40EF0101200308060807510C040E480F02151016661B201E401F10214022402604280C2A0223
:400400002B103028334139803A143C183E2C3F22405C410245064608480C4D084F20565157096520664067207C047D0C8720911093029410950496C09A029B419E14A024DF
:40044000A408A602A710AC08AE01B410C0F0C2F0C4F0CA07CC0FCE8ED0E7D224D870E001E408E804EE4800010401080209010A040C011301140618021A041D01210122014A
:400480002501260228013001310134063A303F01405449FF4AFF4BFF4F0150185409580459045A045B045C015D145F016040624064406540668068806A806C806E80800AAF
:4004C0008403860488018A088C088E0292029403960C98029A089C0AA408A80AB40FB820C051C5ECC602C807C9FFCAFFCBFFCD83CE03CF01D018D401D804DA04DB04DC012C
:40050000DD44DF01E040E240E440E540E680E880EA80EC80EE8000080121030105200602075008500A800B300E040F1011101210142015101610170119201B101C441E0859
:400540001F1026012C302D012E02302033103440350237413D104380464049054B404F405240538059055A405CA05D085E0267028708911092849302944499089A139B4153
:400580009F10A024A602A710C0FFC26FC476CAC0CC90CE20D088D218D6FBD810E640EE0804060608070108140A080B020E011501160A18061A081B012006210122182610A0
:4005C0002A012B012F02310132013302361E3A803E043F01404349FF4AFF4BFF4F01501854185604580459045A045B045C425D245F016040624064406540668068806A8035
:400600006C806E8085019201950296019B019D01AB04AF04B001B303B704B908BE01BF40C043C5ECC702C813C9FFCAFFCBFFCD83CE03CF01D018D280D401D804D904DA0412
:40064000DB04DC20DD44DF01E040E240E440E540E680E880EA80EC80EE8005180702090A0A100C080F04144015281A801D801F442010210423012440272029202A402C0851
:400680002E402F403048319035183A043E103F04410A450A4905510859055A805C0266016709710272408E0193049450978099189A04A008A720C0E0C26CC470CABCCC6E94
:4006C000CE62D0C3D68BD8B0E640EE08060307010A060D031205180619021A01250326022A013207370339803A083F404005450449FF4A074BFF4C404D204EF04F055008DA
:40070000580459045A045C025D025F01604061A8624063208001812082068514860889098A0C8B1090109110930C950C96039711980C9A039F03A51CA702A801A910AA0EFA
:40074000B11FB210B40FB520BA20BE04BF10C046C102C5ECC70BC813C9FFCAFFCBFFCEF0CF44D00CD401D804D904DA04DB04DC22DD22DF01E6C0EA40EB02001001080410A3
:400780000504064009200B800C080D221028160419081D381F1020022502274829082A042F1431103508374238083A403B803C103F0A46444702482149044B084C044D0127
:4007C0004F06500C57045C405D215F086520670482808D089E80A720A810AF80B008B280C076C27AC446CA62CCD4CEEAD0A0D228D6F0E408000109020E02110216011802B3
:400800001B041C022102240225022B022F01300231043301350236013E413F105608580459045B045C305D305F01820183018E019501A401B301B601BE40BF04D441D804FA
:40084000D904DB04DD30DF010180028007410E050F101108170419401E801F8020102504260827482D202E052F093208341037013B023E10580859405A205D205E805F0864
:40088000601064106590671281108A02923594209A029B059E80A280A308A720C099C2E0C424CAF0CCA2CE21D67ED872E28056085B045D30810182028501880189018C02EF
:4008C0008E209101963C98029A089C029E04A402A504A610AB04AF02B304B401B502B63EB701BE50BF44C004C102C240C401C5CEC6B0C7FDC83BC9FFCAFFCBFFCC22CEF000
:40090000CF0CD08CD110D602D728D804D904DA24DB24DC80DD88DE08DF21E840E901EAC0EB010430068807010E2517041DA01F10261027222EA837013E1545A047024E5013
:40094000562257085A80628067206E156F057C107F208320C0D0C2E0C420CA70CC80CEE0D0B0D608D848DE600201050307040A010B050D0215041703310732013902401326
:4009800049FF4AFF4BFF4F0150185280580459045A045B045C145D445F016040624064406540668068806A806C806E808704880189048A028F0294019602970498019A0213
:4009C0009F01A302A603AB01B101B403B502B704BA20BF41C012C5ECC702C813C9FFCAFFCBFFCD83CE03CF01D018D280D401D804D904DA04DB04DC41DD44DF01E040E24050
:400A0000E440E540E680E880EA80EC80EE8003480704088009800E040F20150418201E042040258027882F88330436043744385039043C183D043F604348460447404D0146
:400A40004F04560457085D015F847340774080109504960497409C809F08A004A204A390C04AC260C420CAA0CC52CE7ED03AD6D0E408EA01010D020504050501070208182D
:400A8000090D0A210CD40E20110D1428150216421708190D1A051C051D021F0D2005210D24072608280529022B042C802E2030FF310F3A033B02404149FF4AFF4BFF4F018C
:400AC00050185280580459045A045B045C115D445F016040624064406540668068806A806C806E8082018E0292019E029F01AF01B001B101B602BE41C041C5ECC602C807C2
:400B0000C9FFCAFFCBFFCD83CE03CF01D018D401D804D904DA04DB04DC40DD44DF01E040E240E440E540E680E880EA80EC80EE800240030104400522071009800B400C4490
:400B40000E041515160119801A401C40220227402A802C402D20318034043502360437503C083D114180428045804680470149055180598576809111964097409840992247
:400B80009A419B109C809F08A004A204A390A602C0F9C2E9C4F0CAA8CCF8CEE0D099D60BE601EA02EC1004010B010C0114011B011D012C012D013401370139803B023E1039
:400BC0005280580459045B045C205D405F01840685F8880289F88C078D088F319201940695A09601974A98079C019E06A004A408A550A78EA808AC08B008B138B3C0B40731
:400C0000B504B703BF40C034C105C206C401C6ECC80CC9FFCAFFCBFFCC62CDA0CEF0CF41D00CD602D712D804D904DA04DB04DC22DD22DF01E640E702E910EA30EB10ED10A7
:400C4000EE10EF1201080202030404040580071008100A500B020E1010801154174C19201A401B021E0420402148220123042602274228202D802F013108341037503840B1
:400C800039143E1041404220430249204A02511052405A046508671069547080718073187680810195209C029D209E409F02A720AF20C0A7C22FC48FCA12CC32CE2ED00B65
:400CC000D20CD602EC1000110704080F09080A300C330D100E0C1233130314221518180C191C1A331B021C331D1F200824042504280C291C2B012C3F2D072F183230351F88
:400D0000360F3A803B20404249FF4AFF4BFF4F015018580459045A045C225D045F016040624064406540668068806A806C806E80800784068601870188068A018C018E0677
:400D4000920894069C04A201A402AA08AF01B008B101B207BA08BE01C042C5ECC702C813C9FFCAFFCBFFCD83CE03CF01D018D401D804D904DA04DB04DC42DD44DF01E0403B
:400D8000E240E440E540E680E880EA80EC80EE8000120180041405800740081109080A020C800DC00E400F101088121213181608170919841C501E101F082004250128202E
:400DC00029802B082E803019334339803A103B043E0842C846884D044F0156085C405D045F018002810487208821920293149404961098109A809B489C229D80A188A202D1
:400E0000A302A501A720B580B620C0FBC2BFC47FCA1ECC0FCE4ED0A5D6D0EA01331237223A408204CCF0CE10E28033213520370438205908650183108D088F209A049B0480
:400E40009E409F32A702AB04CCF0CE10D640D880E220EA8033103E10804094209A049B109D209E409F01A504A722A904AF02B501CC10CE20E080E820EE4086408C1094A0F2
:400E800096109A049D209E409F01A504A702AF20E210EE101010142072807C08C40CDC01DE0198309C089E800380450284088E8098309C089E80C008D001E4089830A502E0
:400EC000AF8027048120948096109A049D209F04A504A702AF01B704C820E680EA4003200480090456048302872094809A04A504A702AA10C090C210D440E220E410EA807C
:400F000010401320148078107C209830B502C40EDE03EC08128078407C808A8098C0AB20C408DC01DE04E201001E081A0A120C140E0810161A121C142030000040000000CB
:400F4000FFFF3FC000000000006060006000840080004080B000B000000000001010000000000000000B0B000000000039320200020000000F001801000000000000000063
:400F80000000000000000000000000000000000000000000000000000000000000000000000000000000000000000000000000000000000000000000000000000000000031
:400FC00000000000000000000000000000000000000000000000000000000000000000000000000000000000000000000000000000000000000000000000000000000000F1
:4010000000000000000000000000000000000000000000000000000000000000000000000000000000000000000000000000000000000000000000000000000000000000B0
:401040000000000000000000000000000000000000000000000000000000000000000000000000000000000000000000000000000000000000000000000000000000000070
:0200000490006A
:0400000000004005B7
:0200000490105A
:04000000BC90ACAF55
:0200000490303A
:020000001E0FD1
:0200000490402A
:4000000000000000000000000000000000000000000000000000000000000000000000000000000000000000000000000000000000000000000000000000000000000000C0
:400040000000000000000000000000000000000000000000000000000000000000000000000000000000000000000000000000000000000000000000000000000000000080
:400080000000000000000000000000000000000000000000000000000000000000000000000000000000000000000000000000000000000000000000000000000000000040
:4000C0000000000000000000000000000000000000000000000000000000000000000000000000000000000000000000000000000000000000000000000000000000000000
:0200000490501A
:0C00000000012E16106900012E3E2E7823
:00000001FF