:400000000080002011000000110A0000110A000008B5044B1A6803F53F5302331A6000F017FD00BFFA46004010B5054C237833B9044B13B10448AFF300800123237010BD2D
:400040004881FF1F0000000078230000084B10B51BB108490848AFF300800848036803B910BD074B002BFBD0BDE81040184700BF000000004C81FF1F78230000C880FF1FCC
:400080000000000008B562B6074800F087FF074800F0D6FE00F078FE00F0A4F800F002F900F0E0F9FAE700BF990200007D02000010B5002000F048FF00F0E4FD002000F036
:4000C000E9FDC8B100F0F8FD0F4C208000F000FE80B201F01BFA0AA3D3E9002301F0A6FB01F08CFC82B22280084C0949204601F017FD204600F074FE034B188810BD00BFDB
:4001000054E3A59BC420D03F6481FF1FA081FF1F7C2300000000000010B5012000F014FF00F0B0FD002000F0B5FDC8B100F0C4FD0F4C608000F0CCFD80B201F0E7F90AA35E
:40014000D3E9002301F072FB01F058FC82B26280084C0949204601F0E3FC204600F040FE034B588810BD00BF54E3A59BC420D03F6481FF1FA081FF1F9C2300000000000052
:4001800010B5C0B200F0E0FE00F07CFD002000F081FDC8B100F090FD0F4CA08000F098FD80B201F0B3F90AA3D3E9002301F03EFB01F024FC82B2A280084C0949204601F064
:4001C000AFFC204600F00CFE034B588810BD00BF54E3A59BC420D03F6481FF1FA081FF1F9C23000008B500F03FFD00F09DFE08BD10B5FFF791FF0446FFF75AFF0A388442AA
:4002000007DBFFF789FF0446FFF752FF0A3084421FDDFFF74DFF0446FFF77EFF0A38844207DBFFF745FF0446FFF776FF0A30844211DDFFF771FF0446FFF73AFF84420CD882
:40024000FFF76AFF0446FFF733FF844207D2032010BD012010BD012010BD022010BD002010BD00BF08B5312802D0322803D008BDFFF71EFF08BDFFF74FFF08BD10B500F037
:4002800097FD044605E000F08DFDFFF7EBFF013CE4B2002CF7D110BD0022014B1A6070479C81FF1F10B56C4B1B78132B00F2D280DFE813F01400200024004000D00056009A
:4002C0007A007E00A200A600D000D000D000D000A600B100B500BD00C500CD005F4B1B68012B03D102225C4B1A7010BD00225A4B1A7010BD0022584B1A7010BDFFF778FF2D
:40030000012803D10322544B1A7010BDFFF770FF012803D00F22504B1A7010BD4F4B1B68012B03D101224C4B1A7010BD02224A4B1A7010BD00F0DAF918B11022464B1A700A
:4003400010BD464B1B68012B06D100F0CFF918B90422414B1A7010BD03223F4B1A7010BDFFF7A6FE18B9FFF7D7FE002872D0642000F08EFDFFF79CFE232808D8384B012201
:400380001A6019225A600622334B1A7010BDFFF7C3FE23285ED8324B00221A6019225A6006222D4B1A7010BD07222B4B1A7010BD2B4B1868FFF7E4FED0B1642000F068FD76
:4003C000274B5C680A341868FFF7DAFE844203DA0822214B1A7010BD214B5C680A341868FFF7CEFE844235DD13221B4B1A7010BD0722194B1A7010BD0922174B1A7010BD69
:40040000164B1B681BB10122134B1A7010BD0E22114B1A7010BD02220F4B1A7010BD0F4B1B68012B16D101220B4B1A7010BD0B4B1B68012B0ED10122074B1A7010BD074BBA
:400440001B68012B06D10122034B1A7010BD0622014B1A7010BD00BFD281FF1F9C81FF1F6C81FF1F08B52D4B1B78033B102B54D8DFE803F0095310213653535353535343CE
:40048000465353534D0000F031F900F01DF900F027F908BD00F01CF90146012000F042F800F016F90146022000F03CF800F008F900F01CF908BD1A4B1B68012B07D10120D0
:4004C00000F068F800F004F9154B986008BD23BB022000F05FF800F0FBF8114B986008BD012000F057F8022000F054F800F0F0F80B4BD86000F0E8F808BD00F0F1F808BD08
:40050000FFF776FE022808D0FFF772FE08BDFFF7CFFD192801D8FFF7FFFD08BDD281FF1F6C81FF1F30B589B004460D4600F034FE35B90121092000F085F8124800F0AAF8A6
:40054000012C01D1262000E027200F4C84FB0534EB17C3EBA4140D4B03FB045500F0AAF8009523460A4A082103A801F0A7FA0121052000F067F803A800F08CF800F054FEA4
:4005800009B030BDDC230000D34D621018FCFFFFE4230000012803D10022044B1A607047022802D10022014B5A6070478081FF1F10B50C46002100F0FFFC204600F058FD83
:4005C00000F03AFD10BD00BF08B5044B19780143034B1878FFF7ECFF08BD00BFD381FF1FD481FF1F10B5044640F00400FFF7ECFF012000F063FC04F0FB00FFF7E5FF322090
:4006000000F05CFC10BD00BF10B50446FFF7DCFF2046FFF7E7FF10BD38B50D4600F0F0030401E4B243EA0100FFF7EEFF44EA0500FFF7EAFF38BD00BF08B50021FFF7ECFFA3
:4006400008BD00BF30B585B005460C460C4B0FCB0DF1100E0EE90F000A4B1B78A34201D25C1EE4B204AB03EB840454F8100C284460F07F00C0B2FFF7DFFF05B030BD00BFCD
:40068000EC230000DA81FF1F08B50121FFF7C4FF08BD00BF70B5064601F066FA0546002403E0305DFFF7F0FF0134EBB29C42F8D370BD00BF014B1870704700BFD481FF1FEC
:4006C00008B500F053FD08BD08B500F005FD08BD024B1B68642000FB03F070478881FF1F0022014B1A6070478881FF1F044B1B68B3F5966F01DA012070470020704700BF16
:400700008881FF1FFEE700BFF0B40022174611E050F82760F3B226F0FF0608E001EB420511F812406D78A5550132013BDBB2002BF4D10137262FEBD9F0BC704708B50A4649
:40074000002101F0B2F908BDF8B5144B1B78DBB2134E3478E4B2134F3D78EDB203F00701114A11701B090132137044F00303337045F003033B7080220C4B1A70402203F224
:400780001F231A70202203331A700A2000F096FB3D7034704422064B1A70F8BDCF010049F8460040F94600406E580040015900407658004008B501F06DF908BD38B50422C9
:4007C000314B1A80182331490B7033200231088002310B7040F65F100231088002310B702B492C48FFF7E6FF02222B4B1A7008224FF040231A70032103F500731970274B22
:400800001B78DBB226490B70264B1A8041F25122023B1A80002419250CE0234B1B7803F0010343EA440404F003044FF4F07000F00BFD013D0DB1032CEFD115B90320FFF703
:4008400061FF1A4B4FF480721A8007221A70002217490A704820023108701A700222033B1A7004220A331A70124A137843F007031370013A137843F001031370013A1378D2
:4008800043F08003137038BD8040004082400040700B0048004100400043004008010049A146004022420040254200400440004006400040A2430040012807D8044B53F8AC
:4008C00020201844017A13780B431370704700BFFC230000012808D8044B53F820201844017A137823EA010313707047FC23000038B572B6354A137843F004031370002441
:400900000BE0334863001A19510001440A46098AD068FFF713FF0134E4B2092CF1D900240CE02B48A20011194B000344B3F85020D96C986CFFF73EFF0134E4B2032CF0D9FD
:4009400024494FF09040FFF7DFFE234A137843F0020313701032137843F0020313701F4C237843F040032370A2F58632513A137843F010031370082219491A48FFF71AFFB3
:400980000A2219491948FFF715FF082218491948FFF710FF082218491848FFF70BFF184A137843F008031370164D61232B70FFF705FF81232B700122134B1A70FFF7C4FE36
:4009C0000E2221461148FFF7F5FE38BDE8460040FC2300009C00004803500140A04300404C0B004802510040540B0048C0510040600B0048F2510040680B00481251004043
:400A0000224300400048004004000840B043004008B501F013F803680C2B00D1FEE7FEE708B5094B1A681044084BC31A802B02DC054B186005E001F001F80C2303604FF00C
:400A4000FF32104608BD00BFCC80FF1FF081FF1F08B5104E104D16E029686B68AC68002204E051F8040B43F8040B0432A242F8D1E868002203E0002143F8041B0432824237
:400A8000F9D11035013E002EE6D100F0DDFFFFF7F9FAFEE701000000C824000008B5104A104B1A60104A136843F40073136000230AE0032B03D80D4A52F8231000E00C497F
:400AC0000C4A42F8231001332F2BF2D90A4B1A780A4B1A70074A0A4B1A60FFF709FF08BD0004FA050CED00E014ED00E000000000110A00000080FF1FBC760040C080FF1FEB
:400B000008ED00E008B50A280FD00C2802D0082806D102E04FF4805209E04FF4807206E0002000F0B3F9002201E04FF480620021084B198042F2107303FB02F313F5806384
:400B400001D503F2FF73DB12034A13600022034B1A8008BDDC81FF1FE081FF1FDE81FF1F10B500F079FB04461E4A137843F0010313701032137843F0010313701A3A1378BF
:400B800043F0010313701032137843F00103137002F5AA521232137843F0030313701822114B1A70013B1A7842F040021A701A7802F0FC021A70C822053B1A700222A3F50E
:400BC00097530C3B1A70094A137843F0080313700A2000F073F90122054B1A60204600F03FFB10BDAB43004006590040275B004080E200E010B504460A280DD00C2802D0D6
:400C0000082804D101E0C22207E0422205E0002000F03CF9C22200E08222034B1A702046FFF770FF10BD00BF0259004008B5102000F014F90721002000F05EF9074900205A
:400C400000F046F9064A137843F0060313700C20FFF7D0FF0022034B1A8008BD290D000001590040E481FF1F08B5054B1B7823B9FFF7DCFF0122024B1A70FFF771FF08BD26
:400C80008C81FF1F024A137843F00103137070470059004010B5074B1B7813F0010401D10028F8D024B1012000F008F9014B1B78204610BD01590040034B188880B2034BB3
:400CC0001B88C01A00B27047A05B0040DE81FF1F10B4124B1B881BB233B1104B1B881BB203EB83035C0001E00D4B1C680D4B1988411A09B242F2107303FB01F2002903DDC9
:400D000004EBD470401003E004EBD47040104042831893FBF4F000B210BC7047DC81FF1FE081FF1FE481FF1F704700BF7222074B1A70202203331A7006229E331A704722B5
:400D400010331A7000224F331A7070478864004010B500F081FA04460A4A137843F0200313700332137843F010031370FD32137843F01003137000F07BF8204600F070FA34
:400D800010BD00BF9864004008B5054B1B7823B9FFF7CCFF0122024B1A70FFF7D9FF08BD8D81FF1F014B1878704700BF48640040044B1B7813F0200F01D00120704700205A
:400DC000704700BF6B640040034B1B7813F0040FFAD1024B18707047686500404865004038B5074B1B782BB938BDFFF7EDFF0134A4B201E005460024285D0028F5D138BD56
:400E00008D81FF1F014B1B685866704708ED00E04001C0B2014B1870704700BF09E400E04FF40072014B1A60704700BF00E100E04FF40072014B1A60704700BF80E100E0BF
:400E400010B50446FFF7F4FF2046FFF7DBFF0720FFF7DEFFFFF7E4FF10BD00BF034B1A7800F0F80010431870704700BF02410040054A137843F0020313701032137843F0B4
:400E800002031370704700BFA243004001BE704710B5044605E0084B186800F0D5F9A4F50044B4F5004FF6D8034B586800FB04F000F0CAF910BD00BFD080FF1F08B5034BBC
:400EC0001B7A00FB03F000F0BFF908BDD080FF1F70B504460E46074B1D681F2802D90020FFF7D4FF04F01F04103455F8240045F8246070BD08ED00E038B504460D460729A6
:400F000002D90020FFF7C2FF1F2C02D90020FFF7BDFF04F01F0000F1604000F564406D01EDB2057038BD00BF10B5002404E02046FFF7D0FC0134E4B2012CF8D9FF22014B69
:400F40001A7010BDE080FF1F10B50446054B1878FF2801D0FFF7BEFC2046FFF7ADFC014B1C7010BDE080FF1F014B1B685865704708ED00E04001C0B2014B1870704700BFC8
:400F800005E400E02022014B1A60704700E100E02022014B1A60704780E100E010B50446FFF7F6FF2046FFF7DFFF0720FFF7E2FFFFF7E8FF10BD00BF1A4B1B78DBB2102B8D
:400FC00029D1194B1B7813F0080F26D14FF40042164B1A604000C0B229B140F001004922104B1A7002E045220E4B1A70104B1870012201331A700F4B1B7813F0010FFAD0C8
:401000000C4B1B7803F00A030A2B08D11022054B1A700320704702207047012070470020704700BFE681FF1FD949004080E100E0D8490040D74900400A4B1B7813F0040FA4
:401040000ED01023074A13700421023A1170064A1370064B1B7813F0210FFAD00020704702207047D9490040E681FF1FD7490040114B1B7813F0040F1BD0104B1870042205
:40108000013B1A7046220E4B1A700E4B1B7813F0010FFAD00B4B1B7813F0020F04D16022074B1A70002070476022054B1A70032070470220704700BFD9490040D8490040BE
:4010C000E681FF1FD7490040024A137843F080031370704772640040024A137803F07F031370704772640040014B1870704700BF83640040014B1878704700BF63640040C8
:40110000014B1880704700BF44680040014B188880B2704784680040014B1880704700BF0468004008B501E0FFF7F0FFFFF7E2FF10F0080FF8D108BD08B540F2E730FFF767
:40114000DFFF40F2E730FFF7E7FF00F085F8064A137843F01003137000F082F8FFF7E2FF0020FFF7C1FF08BD9364004008B5054B1B7823B9FFF7E0FF0122024B1A70FFF707
:40118000A3FF08BD8F81FF1F024A137843F080031370704771640040024A137803F07F031370704771640040014B1870704700BF81640040014B1878704700BF616400405D
:4011C000014B1880704700BF40680040014B188880B2704780680040014B1880704700BF0068004008B501E0FFF7F0FFFFF7E2FF10F0080FF8D108BD08B5A520FFF7E0FF58
:40120000A520FFF7E9FF00F027F8064A137843F01003137000F024F8FFF7E4FF0020FFF7C3FF08BD9164004008B5054B1B7823B9FFF7E2FF0122024B1A70FFF7A5FF08BDF5
:401240009081FF1F000000000230800803D000BF01380046FCD17047EFF3108072B6704780F31088704700BF81F0004102E000BF83F0004330B54FEA41044FEA430594EAB3
:40128000050F08BF90EA020F1FBF54EA000C55EA020C7FEA645C7FEA655C00F0E2804FEA5454D4EB5555B8BF6D420CDD2C4480EA020281EA030382EA000083EA010180EAC1
:4012C000020281EA0303362D88BF30BD11F0004F4FEA01314FF4801C4CEA113102D0404261EB410113F0004F4FEA03334CEA133302D0524263EB430394EA050F00F0A7800E
:40130000A4F10104D5F1200E0DDB02FA0EFC22FA05F2801841F1000103FA0EF2801843FA05F359410EE0A5F120050EF1200E012A03FA0EFC28BF4CF0020C43FA05F3C018A9
:4013400051EBE37101F0004507D54FF0000EDCF1000C7EEB00006EEB0101B1F5801F1BD3B1F5001F0CD349085FEA30004FEA3C0C04F101044FEA445212F5800F80F09A80D6
:40138000BCF1004F08BF5FEA500C50F1000041EB045141EA050130BD5FEA4C0C404141EB010111F4801FA4F10104E9D191F0000F04BF01460020B1FA81F308BF2033A3F116
:4013C0000B03B3F120020CDA0C3208DD02F1140CC2F10C0201FA0CF021FA02F10CE002F11402D8BFC2F1200C01FA02F120FA0CFCDCBF41EA0C019040E41AA2BF01EB045179
:40140000294330BD6FEA04041F3C1CDA0C340EDC04F11404C4F1200220FA04F001FA02F340EA030021FA04F345EA030130BDC4F10C04C4F1200220FA02F001FA04F340EA72
:401440000300294630BD21FA04F0294630BD94F0000F83F4801306BF81F480110134013D4EE77FEA645C18BF7FEA655C29D094EA050F08BF90EA020F05D054EA000C04BFA9
:401480001946104630BD91EA030F1EBF0021002030BD5FEA545C05D14000494128BF41F0004130BD14F580043CBF01F5801130BD01F0004545F0FE4141F470014FF0000088
:4014C00030BD7FEA645C1ABF194610467FEA655C1CBF0B46024650EA013406BF52EA033591EA030F41F4002130BD00BF90F0000F04BF0021704730B54FF4806404F1320412
:401500004FF000054FF0000150E700BF90F0000F04BF0021704730B54FF4806404F1320410F0004548BF40424FF000013EE700BF42004FEAE2014FEA31014FEA02701FBF8C
:4015400012F07F4393F07F4F81F06051704792F0000F14BF93F07F4F704730B54FF4607401F0004521F0004120E700BF50EA010208BF704730B54FF000050AE050EA0102BC
:4015800008BF704730B511F0004502D5404261EB41014FF4806404F132045FEA915C3FF4DCAE4FF003025FEADC0C18BF03325FEADC0C18BF033202EBDC02C2F1200300FAFD
:4015C00003FC20FA02F001FA03FE40EA0E0021FA02F11444C1E600BF70B54FF0FF0C4CF4E06C1CEA11541DBF1CEA135594EA0C0F95EA0C0F00F0DEF82C4481EA030621EA48
:401600004C5123EA4C5350EA013518BF52EA033541F4801143F4801338D0A0FB02CE4FF00005E1FB02E506F00042E0FB03E54FF00006E1FB03569CF0000F18BF4EF0010E68
:40164000A4F1FF04B6F5007F64F5407404D25FEA4E0E6D4146EB060642EAC62141EA55514FEAC52040EA5E504FEACE2EB4F1FD0C88BFBCF5E06F1ED8BEF1004F08BF5FEA2D
:40168000500E50F1000041EB045170BD06F0004646EA010140EA020081EA0301B4EB5C04C2BFD4EB0C0541EA045170BD41F480114FF0000E013C00F3AB8014F1360FDEBF82
:4016C000002001F0004170BDC4F10004203C35DA0C341BDC04F11404C4F1200500FA05F320FA04F001FA05F240EA020001F0004221F0004110EBD37021FA04F642EB0601FF
:401700005EEA430E08BF20EAD37070BDC4F10C04C4F1200500FA04F320FA05F001FA04F240EA020001F0004110EBD37041F100015EEA430E08BF20EAD37070BDC4F12005BC
:4017400000FA05F24EEA020E20FA04F301FA05F243EA020321FA04F001F0004121FA04F220EA020000EBD3705EEA430E08BF20EAD37070BD94F0000F0FD101F000464000AB
:4017800041EB010111F4801F08BF013CF7D041EA060195F0000F18BF704703F00046520043EB030313F4801F08BF013DF7D043EA0603704794EA0C0F0CEA135518BF95EACD
:4017C0000C0F0CD050EA410618BF52EA4306D1D181EA030101F000414FF0000070BD50EA410606BF1046194652EA430619D094EA0C0F02D150EA013613D195EA0C0F05D1CC
:4018000052EA03361CBF104619460AD181EA030101F0004141F0FE4141F470014FF0000070BD41F0FE4141F4780170BD70B54FF0FF0C4CF4E06C1CEA11541DBF1CEA1355AA
:4018400094EA0C0F95EA0C0F00F0A7F8A4EB050481EA030E52EA03354FEA013100F088804FEA03334FF0805545EA131343EA12634FEA022245EA111545EA10654FEA00268C
:401880000EF000419D4208BF964244F1FD0404F5407402D25B084FEA3202B61A65EB03055B084FEA32024FF480104FF4002CB6EB020E75EB030E22BFB61A754640EA0C00E6
:4018C0005B084FEA3202B6EB020E75EB030E22BFB61A754640EA5C005B084FEA3202B6EB020E75EB030E22BFB61A754640EA9C005B084FEA3202B6EB020E75EB030E22BF0D
:40190000B61A754640EADC0055EA060E18D04FEA051545EA16754FEA06164FEAC30343EA52734FEAC2025FEA1C1CC0D111F4801F0BD141EA00014FF000004FF0004CB6E766
:4019400011F4801F04BF01430020B4F1FD0C88BFBCF5E06F3FF6AFAEB5EB030C04BFB6EB020C5FEA500C50F1000041EB045170BD0EF0004E4EEA113114EB5C04C2BFD4EBFB
:401980000C0541EA045170BD41F480114FF0000E013C90E645EA060E8DE60CEA135594EA0C0F08BF95EA0C0F3FF43BAF94EA0C0F0AD150EA01347FF434AF95EA0C0F7FF432
:4019C00025AF104619462CE795EA0C0F06D152EA03353FF4FDAE1046194622E750EA410618BF52EA43067FF4C5AE50EA41047FF40DAF52EA43057FF4EBAE12E74A0011D2A3
:401A000012F5001211D20DD56FF47873B3EB62520ED44FEAC12343F0004343EA505323FA02F070474FF00000704750EA013002D14FF0FF3070474FF000007047014B186802
:401A4000704700BF4481FF1F0E4B70B51E460E4C0025E41AA410A54204D056F8253098470135F8E700F01EFD084B094C1E46E41AA4100025A54204D056F825309847013547
:401A8000F8E770BDB0240000B0240000B0240000B824000010B5431E0A44914204D011F8014B03F8014FF8E710BD03460244934202D003F8011BFAE7704700000CB430B5D1
:401AC000164B0C1E9DB01D6804DA8B232B604FF0FF301EE04FF40273ADF814300CBF234604F1FF33049307934FF6FF7302900690ADF81630209A21AB02A92846019300F0EC
:401B000095F8431CBCBF8B232B6014B1029B00221A701DB0BDE8304002B070474481FF1F0EB400B54FF402719CB0ADF814106FF00041049107914FF6FF711DAB0290069015
:401B4000084853F8042BADF81610006802A9019300F06CF8029B00221A701CB05DF804EB03B070474481FF1F034613F8012B002AFBD1181A013870472DE9F0478E6882468C
:401B80009E420C46914698463ED88A8912F4906F3AD02568096902236F1A656905EB450595FBF3F57B1C43449D4238BF1D4653050FD5294600F040FB064698B13A4621690D
:401BC000FFF768FFA38923F4906343F08003A38113E02A4600F08EFB064670B92169504600F0DEFA0C23CAF80030A3894FF0FF3043F04003A381BDE8F08726613E4426603F
:401C000046466561ED1BA560464528BF464649463246206800F0A8FAA36800209B1BA36023681E442660BDE8F08700002DE9F04F9DB003938B8980461C060D4616460DD5EE
:401C40000B695BB9402100F0F7FA2860286118B90C23C8F80030CDE040236B610023099320238DF82930DFF89CB130238DF82A3037463C4614F8013B1BB9B7EB060910D0DB
:401C800003E0252BF9D02746F3E74B46324629464046FFF771FF013000F0A780099B4B4409933B78002B00F0A08000234FF0FF3204930793059206938DF853301A930126A8
:401CC000052221784E4800F041FA671C049B38B14B4A3C46801A06FA00F018430490EFE7D90644BF20228DF853201A0744BF2B228DF8532022782A2A03D0079A00210A20C0
:401D00000BE0039A111D12680391002A10DA524243F00200079204900BE027463B780134303B092B03D800FB02320121F5E701B107923B782E2B1ED17B782A2B0AD1039BE7
:401D400002371A1D1B680392002BB8BF4FF0FF33059310E0002319460593781C0A2407463A780130303A092A03D804FB01210123F5E703B1059103223978224800F0E6F942
:401D800040B14023CBEB000003FA00F0049B013718430490397806221B487E1C8DF8281000F0D4F988B1194B33B9039B073323F007030833039314E003AB00932A46144BC3
:401DC00004A94046AFF3008007E003AB00932A460F4B04A9404600F093F8B0F1FF3F824603D0099B5344099342E7AB895B0601D4099801E04FF0FF301DB0BDE8F08F00BF6A
:401E00006E240000742400007824000000000000791B00002DE9F04791461F460A698B6806469342B8BF1346C9F8003091F843200C46DDF8208012B10133C9F80030236851
:401E4000990642BFD9F800300233C9F80030256815F0060510D104F1190A07E00123524639463046C04701301AD00135E368D9F800209B1A9D42F1DB94F8433022680033BD
:401E800018BF012392060FD5E118302081F843005A1C94F845102244023382F8431003E04FF0FF30BDE8F08704F1430239463046C0470130F4D02268D9F80050E36802F067
:401EC0000602042A08BF5D1B2269A3680CBF25EAE57500259342C4BF9B1AED184FF000091A344D4509D00123224639463046C0470130D5D009F10109F3E70020BDE8F087F3
:401F00002DE9F04317460A7E85B06E2A984606460C460C9B01F1430E00F0AE8011D8632A22D009D8002A00F0BB80582A40F0CA8081F84520834955E0642A1ED0692A1CD0AE
:401F4000C0E0732A00F0B08009D86F2A2ED0702A40F0B8800A6842F020020A603EE0752A24D0782A3AD0ADE01A6801F14205111D1960136884F84230A8E021681A6811F011
:401F8000800F02D0111D196008E011F0400F02F10401196002D0B2F9003000E01368002B3CDA2D225B4284F8432037E021681A6811F0800F02D0111D196007E011F0400FFA
:401FC00002F10401196001D0138800E01368227E5C496F2A14BF0A2208221BE078225A4984F845202268186812F0800F00F104051D6003D1550601D5038800E00368D007C5
:4020000044BF42F0200222601BB9226822F0200222601022002084F8430001E049490A226568002DA56008DB206820F0040020602BB9002D7DD175460CE0002B79D07546D0
:40204000B3FBF2F002FB1033CB5C05F8013D03460028F5D1082A0BD12368DA0708D5236962689A42DEBF302305F8013C05F1FF35C5EB0E0323612EE008681A6810F0800F46
:40208000496903D0101D1860136808E010F0400F02F104001860136801D0198000E0196000232361754616E01A68111D1960156800216268284600F049F808B1401B60603B
:4020C000636804E004F1420584F8422001232361002384F84330CDF800803B4603AA21463046FFF797FE013002D14FF0FF3026E023692A4639463046C0470130F5D0236891
:402100009B0710D5002504F1190907E001234A4639463046C0470130E7D00135E368039A9B1A9D42F2DBE068039B9842B8BF184605E00B7804F1420584F842308AE705B091
:40214000BDE8F0837F2400009024000010B5C9B202449042034605D01C7801308C42F8D1184610BD002010BD884210B501EB020301D8421E0BE09842FBD28118D21AD34221
:4021800004D013F8014D01F8014DF8E710BD994204D011F8014B02F8014FF8E710BD000038B50546002944D051F8043C0C1F002BB8BFE41800F0D4F81E4A1368114613B97C
:4021C0006360146030E0A3420DD92268A018834201BF18685B681218226063600C6023E0A24203D813465A68002AF9D118681918A1420BD12168014458188242196013D148
:4022000010685268014419605A600DE002D90C232B6009E021686018824201BF106852680918216062605C602846BDE8384000F098B838BD9881FF1F70B5CD1C25F0030590
:4022400008350C2D38BF0C25002D064601DBA94202D90C23336046E000F082F8234B1C681A462146A1B10B685B1B0ED40B2B03D90B60CC18CD501EE08C420BBF63684B68EB
:402280001360636018BF0C4615E00C464968E9E7174C23681BB9304600F052F820602946304600F04DF8431C18D0C41C24F00304A0420DD12560304600F053F804F10B00B3
:4022C000231D20F00700C31A0ED05A42E25070BD211A304600F034F80130EBD10C233360304600F03EF8002070BD00BF9881FF1F9481FF1FF8B5074615460E4621B9114669
:40230000BDE8F840FFF798BF1AB9FFF749FF2846F8BD00F027F885420ED929463846FFF78BFF044650B131462A46FFF7B3FB31463846FFF735FF01E03046F8BD2046F8BDF9
:4023400038B5064C0023054608462360FEF768FB431C02D1236803B12B6038BDE881FF1F7047704751F8040C0028BEBF091851F8043CC01804387047000000000D0A646152
:40238000746120726561642066726F6D20706C6179657220313A2025750000000D0A6461746120726561642066726F6D20706C6179657220323A2025750000005370696CFA
:4023C0006C657220310000005469643A200000005370696C6C65722032000000202020202000000025642C2564730000000000004000000014000000540000000D5100400A
:402400000D51004004400000C84900401900004F00400C00205100405000000001400008800801400004000D0140000300140140000800400140000A004C01400002005086
:4024400001402000605200403C0A0048060000510140440A00480800000801404C0A00488000800C0140CC0A004880004300232D302B2000686C4C00656667454647003011
:40248000313233343536373839414243444546003031323334353637383961626364656600000000F8B500BFF8BC08BC9E4670474D0000009D0A0000F8B500BFF8BC08BCF1
:4024C0009E46704729000000D8240000C880FF1F80000000A800000000000000F081FF1F0000E02EC05D00001800000000366E01FF00000000000000000000000000000018
:4025000000000000000000000000000000000000000000006C240000000000000000000000000000000000000000000000000000000000000000000000000000000000000B
:402540000000000000000000000000000000000000000000E480FF1F00000000000000000000000000000000000000000000000000000000000000000000000000000000D9
:40258000000000000000000000000000000000000000000000000000000000000000000000000000000000000000000000000000000000000000000000000000000000001B
:4025C00000000000000000000000000000000000000000000000000000000000000000000000000000000000000000000000000000000000000000000000000000000000DB
:40260000000000000000000000000000000000000000000000000000000000000000000000000000000000000000000000000000000000000000000000000000000000009A
:40264000000000000000000000000000000000000000000000000000000000000000000000000000000000000000000000000000000000000000000000000000000000005A
:020000040003F7
:0200000480007A
:40000000024F0040015200400764004004650040360001401901014041020140240301403704014021050140360601401707014004080140360901404B0A0140410B0140DB
:40004000350C01403F0D0140391401401B15014037160140181701406518014045190140481A0140291B0140064001400E4101400D420140094301400544014002450140A9
:4000800007460140034701401048014007490140094C01400D4D01400850014001800A367802810D830D850D870D88728A178B38850D870D880F8B0D130123013101405106
:4000C00049FF4AFF4BFF4F01501859045A045C205D025F016040624064406540668068806A806C806E8082019201B001BE01C015C5ECC602C807C9FFCAFFCBFFCD83CE033B
:40010000CF01D018D280D401D804DA04DB04DD22DF01E040E240E440E540E680E880EA80EC80EE8005010F801E8021012B8031014380478048014D044F8157C05D045E804F
:400140005F01740175017780C010C210CA01CC01D018D218D6D01F012B013101401249FF4AFF4BFF4F015018528059045A045B045C205D225F016040624064406540668070
:4001800068806A806C806E8080018E018F01900193019501A202AA02B002B101B201BE05BF01C043C5ECC702C813C9FFCAFFCBFFCD83CE03CF01D018D401D804D904DA0456
:4001C000DB04DD22DF01E040E240E440E540E680E880EA80EC80EE8000020140090212441A50208027402F0830083301378039404280430846044780490552045308590541
:400200005A4068016B0176C077808E10AD01C009C208C40ACA20CC13CE08D033D60BE610130123013701404149FF4AFF4BFF4F015018528059045A045B045C205D225F0131
:400240006040624064406540668068806A806C806E809201A201B001BE01C014C5ECC602C807C9FFCAFFCBFFCD83CE03CF01D018D401D804DA04DB04DD22DF01E040E240DC
:40028000E440E540E680E880EA80EC80EE800D0216401E8023022B80310241024380464047804D044F01564057805D045E805F01710273808840A040AB40B008B102B54084
:4002C000C210C410CA01CC01D099D6D0E208E628401449FF4AFF4BFF4F0150185A045D025F016040624064406540668068806A806C806E8092019301AE01AF01B501B601A5
:40030000BE40C014C5ECC720C823C9FFCAFFCBFFCD83CE03CF01D018D280D401D804D904DA04DB04DC20DD22DF01E040E240E440E540E680E880EA80EC80EE800902138081
:400340001940230428023102400241024402450247804905510259457380AB02C208C401CA08CC01D099D60BEE02BA08D804DC01DF010460050806440D020E210F04140104
:400380001580171918201C121D201F0124402508261227062C042D082F023401359037043EAA4582468447044E024F0457205C106D506E08762A77198C108D8097029F0264
:4003C000A401A720B410B520B660C0F0C2F0C4F0CA70CCF0CEF0D0F0D210D620EE0200680104040805A20660070409A60C850D190E620F021060111012081368140D153F7D
:4004000016F217401801192A1A021B551C681DA6204021A62288244C2693286829042BA22C202E402F22303C317833073403358036C038023AA03B023F105602572C580497
:4004400059045B045F018301840D86028C018E06940898039A0CA701AE01B20EB301B403B808BA30BF04D418D604D804D904DB04DD10DF01004001050440061007200A8951
:400480000B200E24111012511601184419801A081B021D101E241F10222A2320242029A02A422F203110320A3340384039143A013C0243035F0262026620678269156A90FB
:4004C0006B40720387408E219404950596959A019E129F61A601A910AA80B3DAB510B648C0ADC26FC48FCA4DCC0FCE8FD680D8B1E608EA40EE200208041C050906610706F3
:400500000AD00C850E28110B130418B0190B1A4D1B041D051E261F0230023107320134FC35083B023E043F1040424103425049FF4AFF4BFF4C024E704F0C5004540958046F
:4005400059045A045B045F0162C0644065016610671168C069016B116C406D016E406F01001001040220030105150620072108050A950C800E0411011214181019801A4061
:400580001B401D111F0822012510278028052A0231043221334037A1380439203A403B023E0441104224431146604711488049804B064F805120520553025E025F54612067
:4005C0006208630166808E048F01C0F7C2CFC40ECA0DCCBFCE4FD0E7D218D6F0D81E0A011201340138023E01404349FF4AFF4BFF4F015018528058045A045B045C025D2285
:400600005F016040624064406540668068806A806C806E809201AA01B001BE01C042C5ECC702C813C9FFCAFFCBFFCD83CE03CF01D018D401D804DA04DB04DD22DF01E04097
:40064000E240E440E540E680E880EA80EC80EE80030809020D0216041A041B021E8041024308450246044D05560457085D055E8071029604A702AF02C002C218C440D0A301
:40068000D6D0E201EA01404149FF4AFF4BFF4F01501852805A045B045D225F016040624064406540668068806A806C806E8082019E019F01AF01B601B701BE40C041C5EC96
:4006C000C602C807C9FFCAFFCBFFCD83CE03CF01D018D401D804D904DA04DB04DC20DD22DF01E040E240E440E540E680E880EA80EC80EE8002400980194023022A40318008
:40070000418042804580464049055180594576C087028A04AF04C008C201CA08CC08D099D60BE620000501100503061007040A081103130416101705190A1A041B041D036F
:400740001F0C20052605270828022A043004340335103618370F38203B803E413F1040464101450C47EB483149FF4AFF4BFF4EF04F44500C5401580459045A045B045C114E
:400780005D115F0166C06A406B02800C827186038713892C8B038C108EAC8F0894DC962298099AD09B0C9D319F06A010A131A240A30EA414AA20B0E0B330B41FB50FB9082D
:4007C000BA02BB20BF04C003C604C9FFCA07CBFFCC40CD20CEF0CF05D008D804D904DA04DC11DD01DF01E040E1A8E240E320000401020301051909200A200C040E200F046F
:4008000010801108120416141701180419031DA01E801F10211422302680270929012A012F1031203280350136A8388839203A103D013E023F044104460147014C044F0452
:4008400050C4520C550456025D215E805F0865206704915096019C049D18A204A582B120B240B302B548C07DC266C47ECA41CCFCCECED092D220D6F0050213011F013101F6
:4008800035023F10405149FF4AFF4BFF4F01501859045A045C205D025F016040624064406540668068806A806C806E808428864588048A1894509624987EA301A87EAC02AA
:4008C000AF01B002B101B260B41CB601BF01C051C5ECC602C807C9FFCAFFCBFFCD83CE03CF01D018D280D401D804D904DA04DB04DC01DD22DF01E040E240E440E540E680B4
:40090000E880EA80EC80EE8005180E2815501D121E212202230824402C82308238044180458048024C024F05548055805C405F057402820289088F089004915096019D1898
:40094000A204A502A610C060C260C4C0CA90CC09CE02D018D218D6D0EA013381340137803B40CCF0CE103010330837423B808E0497409C019F81A308A780AF08CCF0CE109F
:40098000EE403E1087C0882097C09A049C119FC1A780AB02CE20E210E610EE80961097409A049C019F81A020AB40AC10EEC0101014207710C40CDE0498309F1000081B019D
:4009C000870198309F10C008C60898309F10AC0450205604678087408801961097409A049C019F80A020AF01D460D880E210EA4083809F80AA10AF40E280EA80EE40124034
:400A00001320162078107C2098309F10C40EDE0310407220764088408F109A609F10AB20C408DC01DE04E201E402000708040A040C030E0110061A041C06000090300000E3
:400A400040000000FFFF0FC0000000003C08820004040000BF0C0000000040F3000F03F0A7F3180C00C3400000FF04001000000008410000188200003C1C81E3401C202C80
:400A80001F0F80C0800020280000050034020500010CE00009FFFFFF62A0F0410C000000000002110404040411110001000000000000400200103010001010120000000084
:400AC000000000000000000000000000008000203D00000502280D42021804210DD430203D070008020508003D0500003D05000001000200000520000000000520FF0F00F1
:400B00000000100000000803000001004203500000BEF0CD3B0FFFFF2300B00C040000004000000004040404000000010000C00040011011C0010011400140010000000097
:400B4000000000000000000000000000000000000000440080004080B000B00000000000100A0A000A000000000B0B00000000000E00180100000000000000000000000026
:400B80000000000000000000000000000000000000000000000000000000000000000000000000000000000000000000000000000000000000000000000000000000000035
:400BC00000000000000000000000000000000000000000000000000000000000000000000000000000000000000000000000000000000000000000000000000000000000F5
:400C000000000000000000000000000000000000000000000000000000000000000000000000000000000000000000000000000000000000000000000000000000000000B4
:400C40000000000000000000000000000000000000000000000000000000000000000000000000000000000000000000000000000000000000000000000000000000000074
:0200000490006A
:0400000000004005B7
:0200000490105A
:04000000BC90ACAF55
:0200000490303A
:02000000B1A9A4
:0200000490402A
:4000000000000000000000000000000000000000000000000000000000000000000000000000000000000000000000000000000000000000000000000000000000000000C0
:400040000000000000000000000000000000000000000000000000000000000000000000000000000000000000000000000000000000000000000000000000000000000080
:400080000000000000000000000000000000000000000000000000000000000000000000000000000000000000000000000000000000000000000000000000000000000040
:4000C0000000000000000000000000000000000000000000000000000000000000000000000000000000000000000000000000000000000000000000000000000000000000
:0200000490501A
:0C00000000012E16106900012E27C2120C
:00000001FF