:400000000080002011000000F51D0000F51D000008B5044B1A6803F53F5302331A6001F009FF00BFFA46004010B5054C237833B9044B13B10448AFF300800123237010BD4A
:400040005081FF1F0000000074490000084B10B51BB108490848AFF300800848036803B910BD074B002BFBD0BDE81040184700BF000000005481FF1F74490000C880FF1F78
:400080000000000030B5ADF6542D62B6B54802F087FBB54802F0C8FAB44802F05DFE02F067FA00F047FC01220DF5A5610F2001F0D1FA022269460F2001F0CCFA3C2001F012
:4000C000EDFA142000F032FD4FF4FA721421642000F010FF282000F0D5FC0024A44B1C60A449A54800F0BAFC00F086FC00E02C46132C00F28C81DFE814F0140025002B0016
:40010000460061008A00F800FE0016011C018A018A018A018A0122012F015D0167017A0184019649964800F099FC914B1B68012B40F0738100228E4B1A60642002F0AAFA9F
:40014000022589E18F498E4800F088FC002583E1642002F09FFA8C49894800F07FFC00F0EFFB012800F05B8140F05B81804B1B68012B40F0588100227D4B1A60642002F0EB
:4001800089FA012568E181497D4800F067FC00F08DFE002840F04981754B1B68012B40F0468100F083FE002840F043810022704B1A60642002F06EFA04254DE174497048DA
:4001C00000F04CFC00F06CFE69460DF5A56001F077FB012800F02F81012000F011FB6D4B1B693233984204DA01226A4BDA61112532E1022000F004FB664B5B6932339842F4
:4002000080F21B810222634BDA61112524E162495B4800F023FC5F4B1B6A73B9012000F0EFFA10F1630F05DB022000F0E9FA10F1630FF3DA0122574B1A62012000F0E0FA02
:4002400010F1640F02DA0122524B5A62514B5B6A012B1AD1012000F0D3FA10F1630F16DB642002F017FA012000F0CAFA282807DC484B02229A624FF4DC72DA62062509E0D5
:4002800000F014FE28B9254604E0254602E0254600E01225022000F0B3FA10F1640F02DA01223C4B1A633B4B1B6B012B40F0D480022000F0A5FA10F1630FC0F2CD806420A4
:4002C00002F0E8F9022000F09BFA282807DC314B01229A624FF4E172DA620625BCE000F0E5FD002840F0AB80B6E02C49244800F0B5FB0725B0E02A49214800F0AFFB254B0F
:40030000986A00F0E1FA10F1630FC0F29A80642002F0C0F91F4B986A00F072FA282800F39280082598E01F49154800F097FB092592E01D49124800F091FB0E258CE01B499A
:400340000F4800F08BFB0A4B1B68002B7DD00022074B1A6001257FE01549094800F07EFB022579E0BD0A0000410A0000710E00001882FF1F78490000C44C0000884900006A
:40038000984900009C490000B0490000CC490000DC4900006C81FF1FF0490000004A0000144A0000344A0000484A0000644A0000784A0000AD49AE4800F050FBAD4B1B6836
:4003C000012B44D0254647E0AB49A94800F046FB4FF4FA721421642000F08CFDA54B1B68012B36D10022A34B1A60012534E0A3499F4800F033FB9F4B1B68012B2BD02546DA
:400400002AE09F499A4800F029FB062524E09D49974800F023FB25461EE025461CE003251AE00F2518E0254616E0102514E0254612E0254610E005250EE025460CE01225CC
:400440000AE0254608E0132506E0254604E0012502E0254600E00125132C00F26D81DFE814F0140026003E00500062006B007200930098006B016B016B016B016B01B6006B
:40048000BD00E100F8003C014F017F4A536B01335363012B06D10DF5A56001F0A9F9684601F0A6F979497A4800F0D8FA1FE67949774800F0D3FA00F0D7FC734B00225A63E4
:4004C0009A63DA631A643C2001F0E8F84FF4FA721421642000F00EFD00F0F6FA07E66A4A136C01331364012B06D10DF5A56001F0BBF9684601F0B8F96749654800F0AEFA15
:40050000F5E5614A936B01339363012B06D10DF5A56001F0BFF9684601F0BCF95F495C4800F09CFAE3E500F09FFC00F0B9FC5C49574800F093FADAE500F092FC5949544801
:4005400000F08CFAD3E5504B9B6A012B0BD1012000F060FB00F09CFC4B4B58640DF5A56001F086FA0BE0022B09D1022000F052FB00F08EFC444B9864684601F079FA4A49EC
:40058000434800F06BFAB2E54849414800F066FAADE53D4B9B6A022B0AD1684601F048F900F076FC384B9864022000F033FB9EE5012B7FF49CAD0DF5A56001F039F900F0AD
:4005C00067FC314B5864012000F024FB8FE538492F4800F043FA00F063FC88E500F0B0F9022807D1684601F03FF90DF5A56001F023FA12E0032807D10DF5A56001F034F93A
:40060000684601F019FA08E0042806D10DF5A56001F012FA684601F00FFA26491C4800F01DFA64E500F020FC00F03AFC0DF5A56001F006F8684601F003F80DF5A56001F094
:40064000FBF9684601F0F8F91B49114800F006FA4DE50D4BDB69012B30D10DF5A56000F0EFFF0DF5A56001F0E7F92FE08C4A0000984900001882FF1FA44A0000BC4A00001F
:40068000D04A0000E44A00006C81FF1FF44A0000004B0000044B0000184B0000344B0000444B0000584B0000644B0000784B0000984B0000AC4B0000C04B0000022B05D1A1
:4006C000684600F0BDFF684601F0B6F900F0E8FB1C491D4800F0C2F909E50DF5A56000F0AFFF684600F0ACFF0DF5A56001F0A4F9684601F0A1F91549134800F0AFF9F6E435
:400700001349114800F0AAF9124A936AD361012B08D10DF5A56000F093FF0DF5A56001F08BF9E4E4022B7FF4E2AC684600F088FF684601F081F9DAE40749034800F08EF9D6
:40074000D5E400BFD44B0000004B0000EC4B0000004C00006C81FF1F144C000010B5012802D0022823D045E00024234B9C60204601F0ECFF0FE001F079FE012001F0A0FFCF
:40078000002001F07BFE28B101F08AFE1A4A9368184490600134B4F5C87FECDB164B9B68164880FB0320DB17C3EBE01010BD0024114BDC60012001F0C9FF0FE001F056FE3F
:4007C000012001F07DFF002001F058FE28B101F067FE094AD3681844D0600134B4F5C87FECDB054BDB68054880FB0320DB17C3EBE01010BD002010BDBC81FF1F1F85EB51CC
:4008000038B5012802D0022824D048E0284C0020206101F09BFF0120FFF7A0FF2368C01A206100B201F048FE02F094FD1EA3D3E9002302F01FFF03F08DF8024620611D4D87
:400840001D49284603F06AFC29461C4800F006F9206938BD164C00236361012001F076FF0220FFF77BFF6368C01A606100B201F023FE02F06FFD0CA3D3E9002302F0FAFEA9
:4008800003F068F8024660610A4D0D49284603F045FC29460B4800F0E1F8606938BD002038BD00BFAFF3008054E3A59BC420D03FBC81FF1F5082FF1F244C00004C4C000091
:4008C000504C0000784C000038B50446FFF746FF154B9861012C03D11A68801A986105E0022C03D1104B5A68801A98610E4CB4F9180001F0E1FD02F02DFD09A3D3E900238B
:4009000002F0B8FE03F026F80246A061074D0849284603F003FC284601F056FEA06938BD54E3A59BC420D03FBC81FF1F5082FF1F7C4C000008B501F08BFD01F0F7FE08BDA1
:4009400010B50120FFF75CFF04460220FFF758FFA4F11903984203DB04F11903984207DDA0F119039C4209DB00F119039C4205DC632839DD632C39DC042010BD844218DA26
:400980007C2804DC7C2C02DC1A4BDB693BB14A280ADC4A2C08DC174BDB69012B04D10022144BDA61042010BD0122124BDA61022010BD84421CDD7C2804DC7C2C02DC0D4BC7
:4009C000DB693BB14A280ADC4A2C08DC094BDB69012B04D10022074BDA61042010BD0122044BDA61032010BD042010BD012010BD002010BDBC81FF1F10B50749074800F0C4
:400A00002DF80120FFF7AAFE054C20600220FFF7A5FE606010BD00BF984C0000D84C0000BC81FF1F08B5312802D0322804D008BD0120FFF7E5FE08BD0220FFF7E1FE08BD41
:400A400010B501F0A9FD044605E001F09FFDFFF7E9FF013CE4B2002CF7D110BD70B506460D46074C214601F025F8012001F014F82146304601F01EF8284601F0A5FD70BD30
:400A8000B44C000030B585B0054600240DE02346084A052101A803F00FFB074901A801F009F8012000F0F8FF0134AC42EFDB05B030BD00BFB84C0000B44C00000122014B85
:400AC0001A6070471882FF1F10B502F05BF9262000F0C0F900F00EF9104800F051F90121002000F017F90E4C204600F049F9272000F0B0F900F0FEF80A4800F041F90121F2
:400B0000002000F007F9204600F03AF9064B01221A605A6002F07EF910BD00BFBC4C0000C84C0000D04C0000DC81FF1F10B5044601F090FE114802F095F9012090FBF4F0D5
:400B4000C0EB401300EB830000EB8000030198B202F02CF9002302221021262000F068F800F01EF9002302221021272000F060F800F016F9FFF7A8FF10BD00BFD90B000011
:400B800030B587B004460D4602F0FCF8012C01D1262000E027200E4C84FB0534EA17C2EBA4046FF0090303FB045500F053F92B462246084901A803F0B1FA0121052000F01C
:400BC000A9F801A800F0DCF802F024F907B030BD67666666DC4C000010B500F059F90B4C84FB0034C017C0EB6414094B1B68012B03D121460120FFF7C3FF054B5B68012B12
:400C000003D121460220FFF7BBFF10BD1F85EB51DC81FF1F012803D10022044B1A607047022802D10022014B5A607047DC81FF1F10B4064C20700648017006490A70064A0B
:400C400013700822054B1A7010BC70478382FF1F8882FF1F8982FF1F8582FF1F8282FF1F10B50C46002101F071FF204601F0CAFF01F0ACFF10BD00BF08B5044B19780143ED
:400C8000034B1878FFF7ECFF08BD00BF8282FF1F8382FF1F10B5044640F00400FFF7ECFF012001F00DFD04F0FB00FFF7E5FF322001F006FD10BD00BF10B50446FFF7DCFFF1
:400CC0002046FFF7E7FF10BD38B50D4600F0F0030401E4B243EA0100FFF7EEFF44EA0500FFF7EAFF38BD00BF08B50021FFF7ECFF08BD00BF08B50120FFF7F6FF022001F031
:400D0000C9FC08BD08B50220FFF7EEFF022001F0C1FC08BD30B585B005460C460C4B0FCB0DF1100E0EE90F000A4B1B78A34201D25C1EE4B204AB03EB840454F8100C28441F
:400D400060F07F00C0B2FFF7CFFF05B030BD00BFE84C00008982FF1F08B5054B187840F00400187040F00800FFF7BEFF08BD00BF8482FF1F08B50121FFF7A6FF08BD00BFC6
:400D800070B5064603F0EEF90546002403E0305DFFF7F0FF0134EBB29C42F8D370BD00BF08B50022254B1A70254B1B78012B02D90821224A1170234A127832B1012B04D1E9
:400DC0001E4A137843F004031370322001F062FC1D4B1878FFF750FF4FF47A7001F05AFC3020FFF769FF41F2941001F069FC3020FFF762FF41F2941001F062FC3020FFF703
:400E00005BFF962001F05CFC2020FFF755FF0B4B187840F02000FFF767FF04220B4B1A70FFF79AFFFFF766FF0222094B1A700620FFF75AFFFFF766FF08BD00BF8782FF1FD0
:400E40008982FF1F8582FF1F8282FF1F8482FF1F8682FF1F014B1870704700BF8382FF1F08B501F04DFF08BD08B501F0FFFE08BD08B5064B1B68B3F5966F03DA0133034A80
:400E8000136008BDFFF7F0FF08BD00BFE481FF1F024B1B68642000FB03F07047E481FF1F0022014B1A607047E481FF1F044B1B68B3F5966F01DB012070470020704700BFA7
:400EC000E481FF1F08B502F077FE01464FF07E5002F07AFF054902F0C3FE054902F0C0FE03F084F880B201F095F808BD00007A440000204138B50546144601EB8101480042
:400F000080B201F007F905EB8505680080B201F081F904EB8404600080B201F0C5FF38BD2DE9F04784B004460D46904699460E9EDDF83CA00022824BDDE90C0102F000FD7B
:400F400018B100227E4BCDE90C23002200234046494602F0E1FC68B1582303FB06F60AEB0604DDE90C0102F0F5FC60604AF80600A060E2E00022734B2046294602F0D6FC29
:400F800008B10024002500226F4B2046294602F071FB04460D4602F0DDFC074602F0DAF902460B462046294602F086F804460D4642464B460020654902F07EF802460B4643
:400FC000DDE90C0102F02CFACDE90001CDE9024522462B464046494602F022FA02460B4600205A4902F068F802460B46DDE90C0102F016FA04460D46DDE9022300205349F6
:4010000002F05AF802460B464046494602F008FA02460B4600204D4902F04EF802460B46DDE90C0102F0FCF9042F24D8DFE807F0032D080D1800DDE90C45CDE90C0124E0C8
:40104000DDE90045CDE900011FE022462B46DDE90045DDE90C01CDE90001CDE90C2314E0DDE90C23DDE90045CDE90C45CDE9002304460D4609E022462B46DDE90C45DDE94C
:401080000001CDE90C01CDE900230022304B2046294602F0C5F900222C4B02F00DF804460D4600222A4BDDE90C0102F0B9F90022264B02F001F8804689460022244BDDE9CC
:4010C000000102F0ADF90022204B01F0F5FFCDE90001002200232046294602F013FC08B100240025002200234046494602F00AFC18B14FF000084FF0000900220023DDE95C
:40110000000102F0FFFB18B100220023CDE90023582303FB06F60AEB06074046494602F019FC78602046294602F014FC4AF80600DDE9000102F00EFCB86004B0BDE8F087A6
:401140000000E03F0080764000004E400000F03F0000704070B50646436C012B04D1012001F02CFB00251BE0022B1CD1002001F025FBF7E7582404FB0564208D00F0DAFEB1
:40118000A08D00F0D7FE208E00F0D4FEA08E00F0D1FE208F00F0CEFEA08F00F0CBFE0135336C9D42E6DB70BD08B500F01FFF01F053FE094B186808B1FFF7CCFFC82001F0B7
:4011C0007FFA054B586808B1FFF7C4FF01F03EFE00F056FF08BD00BFE881FF1FF0B591B0189D199C03940295DDE91667CDE90067FFF796FE582303FB05F3E518E158686898
:40120000AA68002311E010F0800F06D0062610AC04EB830444F8306C05E0042610AC04EB830444F8306C40000133072BEBDD059B9B01049803EB4023069803EBC00307984F
:401240000344AB62099B9B01089803EB40230A9803EBC0030B980344EB62002311E011F0800F06D0062410A800EB830040F8304C05E0042410A800EB830040F8304C4900B1
:401280000133072BEBDD059B9B01049903EB4123069903EBC10307990B442B63099B9B01089903EB41230A9903EBC1030B990B446B63002311E012F0800F06D0062010A964
:4012C00001EB830141F8300C05E0042010A901EB830141F8300C52000133072BEBDD059B9B01049A03EB4223069A03EBC203079A1344AB63099B9B01089A03EB42230A9A83
:4013000003EBC2030B9A1344EB6311B0F0BD00BF2DE9F04F85B08046894692469B46DDE90E45109F00260AE003970296CDE9004552465B4640464946FFF750FF01363B6C35
:401340009E42F1DB05B0BDE8F08F00BF00000000F0B585B0464B9B68002B40D1444B1B68DA6C012A10D1D3E90667D3E904450293404B186802F000F8CDE9000132463B46B3
:4013800020462946FFF7C4FF394B5B68DA6C012A10D1D3E90667D3E904450293354B186801F0EAFFCDE9000132463B4620462946FFF7AEFF2F4C206801F0DEFF2AA3D3E9E7
:4013C000002301F079FE02F0EDFA2060002102F0E5FD002845D00122254B9A6041E0012B3FD1234B1B68DA6C012A10D1D3E90667D3E9044502931F4B186801F0BDFFCDE99A
:40140000000132463B4620462946FFF781FF184B5B68DA6C012A10D1D3E90667D3E904450293144B186801F0A7FFCDE9000132463B4620462946FFF76BFF0E4C206801F0FE
:401440009BFF09A3D3E9002301F038FE02F0AAFA20604FF07C5102F097FD10B10022044B9A6005B0F0BD00BF7B14AE47E17A843FE881FF1FCC80FF1F30B585B02B4BDB68C5
:4014800013B1012B29D04FE0284B1B681A6D012A0CD1D3E90645D3E9040102930022244BCDE9002322462B46FFF732FF1F4B5B681A6D012A0CD1D3E90645D3E904010293AF
:4014C00000221B4BCDE9002322462B46FFF720FF164AD3680133D36026E0144B1B681A6D012A0CD1D3E90645D3E90401029300220023CDE9002322462B46FFF709FF0B4B7C
:401500005B681A6D012A0CD1D3E90645D3E90401029300220023CDE9002322462B46FFF7F7FE0022014BDA6005B030BDE881FF1F0000F03F2DE9F04385B0404B1A68936C90
:4015400023B93E494968896C002973D0012B08D1002000210292CDE9000102460B46FFF7D7FE364B5B689A6C012A08D1002000210293CDE9000102460B46FFF7C9FE2F4B56
:401580001C6938E02D4B1B689A6C012A16D11D6CAC4201DB651B00E02546582202FB0532D2E90689D2E9040103930295D2E90867CDE9006742464B46FFF710FE1F4B5B68E7
:4015C0009A6C012A16D11D6CAC4201DB651B00E02546582202FB0532D2E90689D2E9040103930295D2E90867CDE9006742464B46FFF7F4FD0134114B1A695B6913449C427C
:40160000C0DB0E4B1B684BB11B6C013B9A4201DA013200E00022094B1A610BE0074B5B6843B11B6C013B9A4201DA013200E00022024B1A6105B0BDE8F08300BFE881FF1F3B
:4016400010B5044601F0CCFC0023A364E364236510BD00BF30B585B00D46012A02D10E4B196001E00C4B596028646A642846FFF7E7FF00240AE00020002103950294CDE918
:40168000000102460B46FFF7A9FD01342B6C9C42F1DB05B030BD00BFE881FF1F38B50546164800F015FD164800F012FE154800F08FFD154801F056FC144801F07BFC144C03
:4016C0002068FFF7BDFF6068FFF7BAFF0023636123614FF07C510F4A1160A360A361E36000F06EFC00F0CCFC00F04AFD00F0C8FD01F010FC2846FFF7E5FB38BDA9110000C0
:401700003515000051130000791400001D1A0000E881FF1FCC80FF1F2DE9F04784B004460D4616461F46DDE90C89DDF838A05046FFF786FF0123CAF84C30CAE90445CAE93D
:401740000667CAE90889CDF808A0CDE9008932463B4620462946FFF7DBFD04B0BDE8F0872DE9F04790469946DDE90867DDE90A45DDF830A00C4B58615046FFF761FF01238F
:40178000CAF84830002209E0582303FB02A3C3E90489C3E90667C3E908450132DAF840309A42F1DBBDE8F087E881FF1F2DE9F0478046894616461F46DDE90845DDF828A068
:4017C0005046FFF73DFF002209E0582303FB02A3C3E90489C3E90667C3E908450132DAF840309A42F1DB0123CAF85030BDE8F08700B585B0029008A3D3E90023CDE900232F
:401800000022094B06A1D1E90001FFF785FF05B05DF804FBAFF30080333333333333EB3F00000000003073400000F03F0000000010B584B00446FFF703FF029406A3D3E987
:401840000023CDE900230022054B00200549FFF75FFD04B010BD00BF8FC2F5285C8FEA3F0000F03F0000084000B587B004900022064BCDE90223CDE900230022044B0320C6
:40188000FFF76EFF07B05DF804FB00BF0000F03F0040504010B584B00446FFF7D1FE0022044B0294CDE9002300200349FFF730FD04B010BD0000F03F00005D400000000038
:4018C0002DE9F04784B080468A464F4B9B69062B00F28F80DFE803F0040D2B448D618800FFF7AEFE5046FFF7ABFE01F0C3FB01F055FB0026454F0024454DCDF808800FF2CC
:401900000019D9E90089CDE9008932463B4620462946FFF7FDFCCDF808A0CDE9008932463B4620462946FFF7F3FC002062E00024364D0026374F0290CDE9004522462B46CD
:4019400030463946FFF7E4FCCDF808A0CDE9004522462B4630463946FFF7DAFC002049E000242A4D00262B4F0290CDE9004522462B4630463946FFF7CBFCCDF808A0CDE9DB
:40198000004522462B4630463946FFF7C1FC1E4A93690133936100202CE0FFF751FE5046FFF74EFE0024194D00261B4FCDF80880CDE9004522462B4630463946FFF7A8FCC2
:4019C000CDF808A0CDE9004522462B4630463946FFF79EFC01F004FB01F0E6FA0A4A936901339361002005E00022074B9A61012000E0002004B0BDE8F08700BFAFF30080A2
:401A00008FC2F5285C8FEA3FE881FF1F0000F03F000008400040504000005D4008B5044B9A6901329A6159681868FFF749FF08BDE881FF1F0000000000B585B0029008A38A
:401A4000D3E90023CDE900230022074B00200749FFF7ACFE05B05DF804FB00BFAFF300808FC2F5285C8FEA3F0000F03F0000084010B584B00446FFF7E3FD0022044B029427
:401A8000CDE9002300200349FFF742FC04B010BD0000F03F00005D4038B50546002403E0034800F091FD0134AC42F9DB38BD00BFF84C000038B505460C46084800F084FD1E
:401AC000284600F081FD064800F07EFD204600F07BFD044800F078FD38BD00BF004D0000044D0000084D0000FEE700BFF0B40022174611E050F82760F3B226F0FF0608E0FC
:401B000001EB420511F812406D78A5550132013BDBB2002BF4D10137262FEBD9F0BC704708B50A46002102F0BEFA08BDF8B5144B1B78DBB2134E3478E4B2134F3D78EDB276
:401B400003F00701114A11701B090132137044F00303337045F003033B7080220C4B1A70C02203F21F231A70202203331A700A2000F0A6FD3D7034704422064B1A70F8BDC5
:401B8000CF010049F8460040F94600406E580040015900407658004008B502F079FA08BD38B50422314B1A80182331490B7033200231088002310B7040F65F100231088005
:401BC00002310B702B492C48FFF7E6FF02222B4B1A7008224FF040231A70032103F500731970274B1B78DBB226490B70264B1A8041F25122023B1A80002419250CE0234B22
:401C00001B7803F0010343EA440404F003044FF4F07001F03DFA013D0DB1032CEFD115B90320FFF761FF1A4B4FF480721A8007221A70002217490A704820023108701A702D
:401C40000222033B1A7004220A331A70124A137843F007031370013A137843F001031370013A137843F08003137038BD8040004082400040980B004800410040004300407F
:401C800008010049A146004022420040254200400440004006400040A2430040012807D8044B53F820201844017A13780B431370704700BF2C4D0000012808D8044B53F88A
:401CC00020201844017A137823EA0103137070472C4D000038B572B6354A137843F00403137000240BE0334863001A19510001440A46098AD068FFF713FF0134E4B2092CC9
:401D0000F1D900240CE02B48A20011194B000344B3F85020D96C986CFFF73EFF0134E4B2032CF0D924494FF09040FFF7DFFE234A137843F0020313701032137843F0020397
:401D400013701F4C237843F040032370A2F58632513A137843F010031370082219491A48FFF71AFF0A2219491948FFF715FF082218491948FFF710FF082218491848FFF7DB
:401D80000BFF184A137843F008031370164D61232B70FFF705FF81232B700122134B1A70FFF7C4FE0E2221461148FFF7F5FE38BDE84600402C4D00009C00004803500140C0
:401DC000A0430040740B0048025100407C0B0048C0510040880B0048F2510040900B004812510040224300400048004004000840B043004008B502F01FF903680C2B00D17C
:401E0000FEE7FEE708B5094B1A681044084BC31A802B02DC054B186005E002F00DF90C2303604FF0FF32104608BD00BFD080FF1FB082FF1F08B5104E104D16E029686B6827
:401E4000AC68002204E051F8040B43F8040B0432A242F8D1E868002203E0002143F8041B04328242F9D11035013E002EE6D102F0E9F8FEF707F9FEE701000000F84D0000D3
:401E800008B5104A104B1A60104A136843F40073136000230AE0032B03D80D4A52F8231000E00C490C4A42F8231001332F2BF2D90A4B1A780A4B1A70074A0A4B1A60FFF72D
:401EC00009FF08BD0004FA050CED00E014ED00E000000000F51D00000080FF1FBC760040C080FF1F08ED00E008B501F0D9F80A4A137843F0200313700232137843F01003C7
:401F000013700132137843F01003137001F0CCF800F098FB08BD00BF9A640040014B1878704700BF6C640040014B1878704700BF6D640040034B1B7813F0040FFAD0024BCA
:401F4000188070476C6400404C64004008B501E00E4B1B880E4B1B7813F0200FF8D101F09FF80C4B1A7842F001021A701A7802F0FE021A7001331A7842F001021A701A783C
:401F800002F0FE021A7001F08FF808BD5C6400406D6400409C64004008B51722064B1A70FFF7D4FFFFF7BAFFFFF7BEFF0023034A13700132137008BD8A6400408C6400404F
:401FC00008B5054B1B7823B9FFF7E6FF0122024B1A70FFF789FF08BD0482FF1F024A137843F080031370704774650040024A137803F07F031370704774650040014B187056
:40200000704700BF85650040014B1878704700BF65650040014B1880704700BF486A0040014B188880B27047886A0040014B1880704700BF086A004008B501E0FFF7F0FFC2
:40204000FFF7E2FF10F0080FF8D108BD08B540F2E730FFF7DFFF40F2E730FFF7E7FF01F01FF8064A137843F01003137001F01CF8FFF7E2FF0120FFF7C1FF08BD9565004087
:4020800008B5054B1B7823B9FFF7E0FF0122024B1A70FFF7A3FF08BD0582FF1F014B1B68D864704708ED00E04001C0B2014B1870704700BF03E400E00822014B1A607047D1
:4020C00000E100E00822014B1A60704780E100E010B50446FFF7F6FF2046FFF7DFFF0720FFF7E2FFFFF7E8FF10BD00BF024A137843F080031370704776640040014B1870E7
:40210000704700BF87640040014B1878704700BF67640040014B1880704700BF4C680040014B188880B270478C680040014B1880704700BF0C68004008B501E0FFF7F0FFB9
:40214000FFF7E2FF10F0080FF8D108BD08B542F20F70FFF7DFFF42F20F70FFF7E7FF00F09FFF064A137843F01003137000F09CFFFFF7E2FF0120FFF7C1FF08BD97640040A5
:4021800008B5054B1B7823B9FFF7E0FF0122024B1A70FFF7ABFF08BD0682FF1F014B1B689864704708ED00E04001C0B2014B1870704700BF02E400E00422014B1A6070470C
:4021C00000E100E00422014B1A60704780E100E010B50446FFF7F6FF2046FFF7DFFF0720FFF7E2FFFFF7E8FF10BD00BF024A137843F080031370704777650040014B1870E8
:40220000704700BF87650040014B1878704700BF67650040014B1880704700BF4C6A0040014B188880B270478C6A0040014B1880704700BF0C6A004008B501E0FFF7F0FFB0
:40224000FFF7E2FF10F0080FF8D108BD08B542F20F70FFF7DFFF42F20F70FFF7E7FF00F01FFF064A137843F01003137000F01CFFFFF7E2FF0120FFF7C1FF08BD97650040A3
:4022800008B5054B1B7823B9FFF7E0FF0122024B1A70FFF7ABFF08BD0782FF1F014B1B681865704708ED00E04001C0B2014B1870704700BF04E400E01022014B1A6070477B
:4022C00000E100E01022014B1A60704780E100E010B50446FFF7F6FF2046FFF7DFFF0720FFF7E2FFFFF7E8FF10BD00BF08B50A280FD00C2802D0082806D102E04FF48052C0
:4023000009E04FF4807206E0002000F0C1F9002201E04FF480620021084B198042F2107303FB02F313F5806301D503F2FF73DB12034A13600022034B1A8008BD8C82FF1F20
:402340009082FF1F8E82FF1F10B500F0A9FE04461E4A137843F0010313701032137843F0010313701A3A137843F0010313701032137843F00103137002F5AA521232137843
:4023800043F0030313701822114B1A70013B1A7842F040021A701A7802F0FC021A70C822053B1A700222A3F597530C3B1A70094A137843F0080313700A2000F081F90122E8
:4023C000054B1A60204600F06FFE10BDAB43004006590040275B004080E200E010B504460A280DD00C2802D0082804D101E0C22207E0422205E0002000F04AF9C22200E07D
:402400008222034B1A702046FFF770FF10BD00BF0259004008B5102000F022F90621002000F06CF90749002000F054F9064A137843F0060313700C20FFF7D0FF0022034BF2
:402440001A8008BD11250000015900409482FF1F08B5054B1B7823B9FFF7DCFF0122024B1A70FFF771FF08BD0882FF1F024A137843F00103137070470059004010B5074BE7
:402480001B7813F0010401D10028F8D024B1012000F016F9014B1B78204610BD01590040034B188880B2034B1B88C01A00B27047A05B00408E82FF1F10B4124B1B881BB2D0
:4024C00033B1104B1B881BB203EB83035C0001E00D4B1C680D4B1988411A09B242F2107303FB01F2002903DD04EBD470401003E004EBD47040104042831893FBF4F000B2B6
:4025000010BC70478C82FF1F9082FF1F9482FF1F704700BF7222074B1A70202203331A7006229E331A70472210331A7000224F331A7070478864004010B500F0B1FD044629
:402540000A4A137843F0200313700332137843F010031370FD32137843F01003137000F089F8204600F0A0FD10BD00BF9864004008B5054B1B7823B9FFF7CCFF0122024BBE
:402580001A70FFF7D9FF08BD0982FF1F014B1878704700BF48640040044B1B7813F0200F01D0012070470020704700BF6B640040034B1B7813F0040FFAD1024B1870704767
:4025C000686500404865004038B5074B1B782BB938BDFFF7EDFF0134A4B201E005460024285D0028F5D138BD0982FF1F014B1B685866704708ED00E04001C0B2014B1870C8
:40260000704700BF09E400E04FF40072014B1A60704700BF00E100E04FF40072014B1A60704700BF80E100E010B50446FFF7F4FF2046FFF7DBFF0720FFF7DEFFFFF7E4FF72
:4026400010BD00BF054A137843F0010313701032137843F001031370704700BFA2430040034B1A7800F0F80010431870704700BF02410040054A137843F0020313701032A5
:40268000137843F002031370704700BFA243004001BE704710B5044605E0084B186800F0F7FCA4F50044B4F5004FF6D8034B586800FB04F000F0ECFC10BD00BFD480FF1FA3
:4026C00008B5034B1B7A00FB03F000F0E1FC08BDD480FF1F70B504460E46074B1D681F2802D90020FFF7D4FF04F01F04103455F8240045F8246070BD08ED00E038B50446DD
:402700000D46072902D90020FFF7C2FF1F2C02D90020FFF7BDFF04F01F0000F1604000F564406D01EDB2057038BD00BF10B5002404E02046FFF7C0FA0134E4B2012CF8D94D
:40274000FF22014B1A7010BDE480FF1F10B50446054B1878FF2801D0FFF7AEFA2046FFF79DFA014B1C7010BDE480FF1F014B1B685865704708ED00E04001C0B2014B1870D5
:40278000704700BF05E400E02022014B1A60704700E100E02022014B1A60704780E100E010B50446FFF7F6FF2046FFF7DFFF0720FFF7E2FFFFF7E8FF10BD00BF014B1870EB
:4027C000704700BF7264004038B50222114B1A7081220E3B1A70082202331A700F2511331D70002401331C704FF400420A4B1A6003212846FFF782FF08492846FFF76AFF93
:402800001022074B1A70074B1C70074B1C70074B1C7038BDD649004080E100E07D2800009682FF1F9A82FF1F9C82FF1F9882FF1F08B500F035FC064A137843F0040313705C
:402840001032137843F00403137000F02DFC08BDA543004008B5074B1B7823B9FFF7B4FF0122044B1A70FFF7E3FF4FF40042024B1A6008BD0B82FF1F00E100E038B5A54B73
:402880001C78A54B1B7813F0400F00F03A81E4B214F0010F00F01D819F4B1B78453B052B00F21481DFE813F006008200120112010600DF0004F0DF0504F00A04082C42D19A
:4028C000954B1B78DBB2452B35D1944B1B7813F0FF0F10D0924B1B681B78DBB2914A137004228C4B1A7001228F4B1A7046228A4B1A702C46EDE08D4B1B7813F0020F0DD0B1
:402900008B4A137843F00A0313706022824B1A704FF40042874B1A602C46DAE0864A137843F0100313701022844B1A700422023B1A702C46CDE00022764B1A704A22764B49
:402940001A702C46C5E00A2C2BD1794A137843F0A0031370754B1B7813F0020F14D06E4B1B7813F0080F01D0092300E00A23704A11780B4313706022674B1A704FF40042CB
:402980006C4B1A602C46A4E06B4A137843F0100313701022694B1A700422023B1A702C4697E00020FFF774FE2C4692E014F0020F36D15D4B1A78D2B2584B1B78DBB29A42BC
:4029C00010D2594A1378DBB255490968CB5CDBB254490B7004214F4B197013780133DBB2137076E0514B1B7813F0020F0CD0504A137843F00A0313706022474B1A704FF40A
:402A000000424C4B1A6064E04B4A137843F0100313701022494B1A700422023B1A7058E0424B1B7813F0020F0CD0414A137843F09A0313706022384B1A704FF400423D4B8C
:402A40001A6046E03C4A137843F01003137010223A4B1A700422023B1A70354A137843F09003137035E0364A1378DBB2354908682C490978C9B2C15413780133DBB213706B
:402A80001278D2B2304B1B78DBB29A4203D21022204B1A701DE0254B1B7813F0020F0CD0234A137843F00903137060221A4B1A704FF400421F4B1A600BE01F4A137843F0FF
:402AC000100313700022134B1A7002E00020FFF7DFFD14F0200F1CD00F4B1B7813F0080F01D0012300E00223114A11780B431370114A137803F0EF0313701022064B1A7032
:402B000038BD054B1B7813F0100F02D11022024B1A7038BDD74900409682FF1F9B82FF1FA082FF1FD84900409882FF1F9982FF1F9A82FF1F80E100E0D6490040D9490040AB
:402B40009C82FF1FA482FF1FA882FF1F1A4B1B78DBB2102B29D1194B1B7813F0080F26D14FF40042164B1A604000C0B229B140F001004922104B1A7002E045220E4B1A7032
:402B8000104B1870012201331A700F4B1B7813F0010FFAD00C4B1B7803F00A030A2B08D11022054B1A700320704702207047012070470020704700BF9682FF1FD9490040CA
:402BC00080E100E0D8490040D74900400A4B1B7813F0040F0ED01023074A13700421023A1170064A1370064B1B7813F0210FFAD00020704702207047D94900409682FF1F12
:402C0000D7490040114B1B7813F0040F1BD0104B18700422013B1A7046220E4B1A700E4B1B7813F0010FFAD00B4B1B7813F0020F04D16022074B1A70002070476022054B88
:402C40001A70032070470220704700BFD9490040D84900409682FF1FD7490040024A137843F080031370704773640040024A137803F07F031370704773640040014B1870B0
:402C8000704700BF83640040014B1878704700BF63640040014B1880704700BF44680040014B188880B2704784680040014B1880704700BF0468004008B501E0FFF7F0FF4E
:402CC000FFF7E2FF10F0080FF8D108BD08B540F2E730FFF7DFFF40F2E730FFF7E7FF00F0DFF9064A137843F01003137000F0DCF9FFF7E2FF0020FFF7C1FF08BD936400407F
:402D000008B5054B1B7823B9FFF7E0FF0122024B1A70FFF7A3FF08BD0C82FF1F014B1B681866704708ED00E04001C0B2014B1870704700BF08E400E04FF48072014B1A60A2
:402D4000704700BF00E100E04FF48072014B1A60704700BF80E100E010B50446FFF7F4FF2046FFF7DBFF0020FFF7DEFFFFF7E4FF10BD00BF024A137843F08003137070471D
:402D800070640040024A137803F07F031370704770640040014B1870704700BF81640040014B1878704700BF61640040014B1880704700BF40680040014B188880B2704788
:402DC00080680040014B1880704700BF0068004008B501E0FFF7F0FFFFF7E2FF10F0080FF8D108BD08B5A520FFF7E0FFA520FFF7E9FF00F055F9064A137843F010031370CE
:402E000000F052F9FFF7E4FF0020FFF7C3FF08BD9164004008B5054B1B7823B9FFF7E2FF0122024B1A70FFF7A5FF08BD0D82FF1F014B1B68D865704708ED00E04001C0B208
:402E4000014B1870704700BF07E400E08022014B1A60704700E100E08022014B1A60704780E100E010B50446FFF7F6FF2046FFF7DFFF0220FFF7E2FFFFF7E8FF10BD00BF67
:402E8000024A137843F08003137070477B650040014B1870704700BF8B650040014B1878704700BF6B650040014B1880704700BF546A0040014B188880B27047946A0040E4
:402EC000014B1880704700BF146A004008B501E0FFF7F0FFFFF7E2FF10F0080FF8D108BD08B542F20F70FFF7DFFF42F20F70FFF7E7FF00F0D5F8064A137843F01003137087
:402F000000F0D2F8FFF7E2FF0120FFF7C1FF08BD9B65004008B5054B1B7823B9FFF7E0FF0122024B1A70FFF7ABFF08BD0E82FF1F014B1B685864704708ED00E04001C0B2FC
:402F4000014B1870704700BF01E400E00222014B1A60704700E100E00222014B1A60704780E100E010B50446FFF7F6FF2046FFF7DFFF0720FFF7E2FFFFF7E8FF10BD00BF63
:402F8000014B1B689865704708ED00E04001C0B2014B1870704700BF06E400E04022014B1A60704700E100E04022014B1A60704780E100E010B50446FFF7F6FF2046FFF7DC
:402FC000DFFF0520FFF7E2FFFFF7E8FF10BD00BF024A137843F080031370704775640040024A137803F07F031370704775640040014B1870704700BF85640040014B1878C0
:40300000704700BF65640040014B1880704700BF48680040014B188880B2704788680040014B1880704700BF0868004008B501E0FFF7F0FFFFF7E2FF10F0080FF8D108BDB9
:4030400008B542F20F70FFF7DFFF42F20F70FFF7E7FF00F025F8064A137843F01003137000F022F8FFF7E2FF0120FFF7C1FF08BD9564004008B5054B1B7823B9FFF7E0FFC5
:403080000122024B1A70FFF7A3FF08BD0F82FF1F0230800803D000BF01380046FCD17047EFF3108072B6704780F31088704700BF81F0004102E000BF83F0004330B54FEAC2
:4030C00041044FEA430594EA050F08BF90EA020F1FBF54EA000C55EA020C7FEA645C7FEA655C00F0E2804FEA5454D4EB5555B8BF6D420CDD2C4480EA020281EA030382EAF8
:40310000000083EA010180EA020281EA0303362D88BF30BD11F0004F4FEA01314FF4801C4CEA113102D0404261EB410113F0004F4FEA03334CEA133302D0524263EB43037F
:4031400094EA050F00F0A780A4F10104D5F1200E0DDB02FA0EFC22FA05F2801841F1000103FA0EF2801843FA05F359410EE0A5F120050EF1200E012A03FA0EFC28BF4CF0BD
:40318000020C43FA05F3C01851EBE37101F0004507D54FF0000EDCF1000C7EEB00006EEB0101B1F5801F1BD3B1F5001F0CD349085FEA30004FEA3C0C04F101044FEA44527D
:4031C00012F5800F80F09A80BCF1004F08BF5FEA500C50F1000041EB045141EA050130BD5FEA4C0C404141EB010111F4801FA4F10104E9D191F0000F04BF01460020B1FABA
:4032000081F308BF2033A3F10B03B3F120020CDA0C3208DD02F1140CC2F10C0201FA0CF021FA02F10CE002F11402D8BFC2F1200C01FA02F120FA0CFCDCBF41EA0C01904098
:40324000E41AA2BF01EB0451294330BD6FEA04041F3C1CDA0C340EDC04F11404C4F1200220FA04F001FA02F340EA030021FA04F345EA030130BDC4F10C04C4F1200220FA82
:4032800002F001FA04F340EA0300294630BD21FA04F0294630BD94F0000F83F4801306BF81F480110134013D4EE77FEA645C18BF7FEA655C29D094EA050F08BF90EA020F1F
:4032C00005D054EA000C04BF1946104630BD91EA030F1EBF0021002030BD5FEA545C05D14000494128BF41F0004130BD14F580043CBF01F5801130BD01F0004545F0FE412D
:4033000041F470014FF0000030BD7FEA645C1ABF194610467FEA655C1CBF0B46024650EA013406BF52EA033591EA030F41F4002130BD00BF90F0000F04BF0021704730B520
:403340004FF4806404F132044FF000054FF0000150E700BF90F0000F04BF0021704730B54FF4806404F1320410F0004548BF40424FF000013EE700BF42004FEAE2014FEA97
:4033800031014FEA02701FBF12F07F4393F07F4F81F06051704792F0000F14BF93F07F4F704730B54FF4607401F0004521F0004120E700BF50EA010208BF704730B54FF0CF
:4033C00000050AE050EA010208BF704730B511F0004502D5404261EB41014FF4806404F132045FEA915C3FF4DCAE4FF003025FEADC0C18BF03325FEADC0C18BF033202EB21
:40340000DC02C2F1200300FA03FC20FA02F001FA03FE40EA0E0021FA02F11444C1E600BF70B54FF0FF0C4CF4E06C1CEA11541DBF1CEA135594EA0C0F95EA0C0F00F0DEF82A
:403440002C4481EA030621EA4C5123EA4C5350EA013518BF52EA033541F4801143F4801338D0A0FB02CE4FF00005E1FB02E506F00042E0FB03E54FF00006E1FB03569CF04E
:40348000000F18BF4EF0010EA4F1FF04B6F5007F64F5407404D25FEA4E0E6D4146EB060642EAC62141EA55514FEAC52040EA5E504FEACE2EB4F1FD0C88BFBCF5E06F1ED8AA
:4034C000BEF1004F08BF5FEA500E50F1000041EB045170BD06F0004646EA010140EA020081EA0301B4EB5C04C2BFD4EB0C0541EA045170BD41F480114FF0000E013C00F328
:40350000AB8014F1360FDEBF002001F0004170BDC4F10004203C35DA0C341BDC04F11404C4F1200500FA05F320FA04F001FA05F240EA020001F0004221F0004110EBD370D7
:4035400021FA04F642EB06015EEA430E08BF20EAD37070BDC4F10C04C4F1200500FA04F320FA05F001FA04F240EA020001F0004110EBD37041F100015EEA430E08BF20EA5F
:40358000D37070BDC4F1200500FA05F24EEA020E20FA04F301FA05F243EA020321FA04F001F0004121FA04F220EA020000EBD3705EEA430E08BF20EAD37070BD94F0000F5A
:4035C0000FD101F00046400041EB010111F4801F08BF013CF7D041EA060195F0000F18BF704703F00046520043EB030313F4801F08BF013DF7D043EA0603704794EA0C0FCC
:403600000CEA135518BF95EA0C0F0CD050EA410618BF52EA4306D1D181EA030101F000414FF0000070BD50EA410606BF1046194652EA430619D094EA0C0F02D150EA01360D
:4036400013D195EA0C0F05D152EA03361CBF104619460AD181EA030101F0004141F0FE4141F470014FF0000070BD41F0FE4141F4780170BD70B54FF0FF0C4CF4E06C1CEAA7
:4036800011541DBF1CEA135594EA0C0F95EA0C0F00F0A7F8A4EB050481EA030E52EA03354FEA013100F088804FEA03334FF0805545EA131343EA12634FEA022245EA111582
:4036C00045EA10654FEA00260EF000419D4208BF964244F1FD0404F5407402D25B084FEA3202B61A65EB03055B084FEA32024FF480104FF4002CB6EB020E75EB030E22BF46
:40370000B61A754640EA0C005B084FEA3202B6EB020E75EB030E22BFB61A754640EA5C005B084FEA3202B6EB020E75EB030E22BFB61A754640EA9C005B084FEA3202B6EB4F
:40374000020E75EB030E22BFB61A754640EADC0055EA060E18D04FEA051545EA16754FEA06164FEAC30343EA52734FEAC2025FEA1C1CC0D111F4801F0BD141EA00014FF0CE
:4037800000004FF0004CB6E711F4801F04BF01430020B4F1FD0C88BFBCF5E06F3FF6AFAEB5EB030C04BFB6EB020C5FEA500C50F1000041EB045170BD0EF0004E4EEA113114
:4037C00014EB5C04C2BFD4EB0C0541EA045170BD41F480114FF0000E013C90E645EA060E8DE60CEA135594EA0C0F08BF95EA0C0F3FF43BAF94EA0C0F0AD150EA01347FF425
:4038000034AF95EA0C0F7FF425AF104619462CE795EA0C0F06D152EA03353FF4FDAE1046194622E750EA410618BF52EA43067FF4C5AE50EA41047FF40DAF52EA43057FF413
:40384000EBAE12E74FF0FF3C06E000BF4FF0010C02E000BF4FF0010C4DF804CD4FEA410C7FEA6C5C4FEA430C18BF7FEA6C5C1BD001B050EA410C0CBF52EA430C91EA030FFB
:4038800002BF90EA020F0020704710F1000F91EA030F58BF994208BF90422CBFD8176FEAE37040F0010070474FEA410C7FEA6C5C02D150EA013C07D14FEA430C7FEA6C5CBD
:4038C000D6D152EA033CD3D05DF8040B704700BF8446104662468C461946634600E000BF01B5FFF7B7FF002848BF10F1000F01BD4DF808EDFFF7F4FF0CBF012000205DF805
:4039000008FB00BF4DF808EDFFF7EAFF34BF012000205DF808FB00BF4DF808EDFFF7E0FF94BF012000205DF808FB00BF4DF808EDFFF7CEFF94BF012000205DF808FB00BFFF
:403940004DF808EDFFF7C4FF34BF012000205DF808FB00BF4FEA410212F5001215D211D56FF47873B3EB625212D94FEAC12343F0004343EA505311F0004F23FA02F018BF83
:40398000404270474FF00000704750EA013005D111F0004008BF6FF0004070474FF00000704700BF4FEA4102B2F1E04324BFB3F5001CDCF1FE5C0DD901F0004C4FEAC00256
:4039C0004CEA5070B2F1004F40EB830008BF20F00100704711F0804F21D113F13872BCBF01F00040704741F480114FEA5252C2F11802C2F1200C10FA0CF320FA02F018BF94
:403A000040F001004FEAC1234FEAD32303FA0CFC40EA0C0023FA02F34FEA4303CCE77FEA625307D150EA01331EBF4FF0FE4040F44000704701F0004040F0FE4040F40000CE
:403A4000704700BF80F0004002E000BF81F0004142001FBF5FEA410392EA030F7FEA226C7FEA236C6AD04FEA1262D2EB1363C1BFD218414048404140B8BF5B42192B88BFF6
:403A8000704710F0004F40F4000020F07F4018BF404211F0004F41F4000121F07F4118BF494292EA030F3FD0A2F1010241FA03FC10EB0C00C3F1200301FA03F100F000437E
:403AC00002D5494260EB4000B0F5000F13D3B0F1807F06D340084FEA310102F10102FE2A51D2B1F1004F40EBC25008BF20F0010040EA03007047490040EB000010F4000F61
:403B0000A2F10102EDD1B0FA80FCACF1080CB2EB0C0200FA0CF0AABF00EBC25052421843BCBFD0401843704792F0000F81F4000106BF80F400000132013BB5E74FEA4103FF
:403B40007FEA226C18BF7FEA236C21D092EA030F04D092F0000F08BF0846704790EA010F1CBF0020704712F07F4F04D1400028BF40F00040704712F100723CBF00F500003B
:403B8000704700F0004343F0FE4040F4000070477FEA226216BF08467FEA23630146420206BF5FEA412390EA010F40F4800070474FF0000304E000BF10F0004348BF40421D
:403BC0005FEA000C08BF704743F0964301464FF000001CE050EA010208BF70474FF000030AE000BF50EA010208BF704711F0004302D5404261EB41015FEA010C02BF8446F7
:403C00000146002043F0B64308BFA3F18053A3F50003BCFA8CF2083AA3EBC25310DB01FA02FC634400FA02FCC2F12002BCF1004F20FA02F243EB020008BF20F001007047EE
:403C400002F1200201FA02FCC2F1200250EA4C0021FA02F243EB020008BF20EADC7070474FF0FF0C1CEAD0521EBF1CEAD15392EA0C0F93EA0C0F6FD01A4480EA010C4002CA
:403C800018BF5FEA41211ED04FF0006343EA501043EA5111A0FB01310CF00040B1F5000F3EBF490041EAD3715B0040EA010062F17F02FD2A1DD8B3F1004F40EBC25008BFF6
:403CC00020F00100704790F0000F0CF0004C08BF49024CEA502040EA51207F3AC2BFD2F1FF0340EAC250704740F400004FF00003013A5DDC12F1190FDCBF00F00040704749
:403D0000C2F10002410021FA02F1C2F1200200FA02FC5FEA310040F1000053EA4C0308BF20EADC70704792F0000F00F0004C02BF400010F4000F013AF9D040EA0C0093F009
:403D4000000F01F0004C02BF490011F4000F013BF9D041EA0C018FE70CEAD15392EA0C0F18BF93EA0C0F0AD030F0004C18BF31F0004CD8D180EA010000F00040704790F001
:403D8000000F17BF90F0004F084691F0000F91F0004F14D092EA0C0F01D142020FD193EA0C0F03D14B0218BF084608D180EA010000F0004040F0FE4040F40000704740F055
:403DC000FE4040F4400070474FF0FF0C1CEAD0521EBF1CEAD15392EA0C0F93EA0C0F69D0A2EB030280EA010C49024FEA402037D04FF0805343EA111143EA10130CF0004098
:403E00008B4238BF5B0042F17D024FF4000C8B4224BF5B1A40EA0C00B3EB510F24BFA3EB510340EA5C00B3EB910F24BFA3EB910340EA9C00B3EBD10F24BFA3EBD10340EAC8
:403E4000DC001B0118BF5FEA1C1CE0D1FD2A3FF650AF8B4240EBC25008BF20F0010070470CF0004C4CEA50207F32C2BFD2F1FF0340EAC250704740F400004FF00003013AC4
:403E800037E792F0000F00F0004C02BF400010F4000F013AF9D040EA0C0093F0000F01F0004C02BF490011F4000F013BF9D041EA0C0195E70CEAD15392EA0C0F08D1420255
:403EC0007FF47DAF93EA0C0F7FF470AF084676E793EA0C0F04D14B023FF44CAF08466EE730F0004C18BF31F0004CCAD130F000427FF45CAF31F000437FF43CAF5FE700BFD1
:403F00004FF0FF3C06E000BF4FF0010C02E000BF4FF0010C4DF804CD4FEA40024FEA41037FEA226C18BF7FEA236C11D001B052EA530C18BF90EA010F58BFB2EB030088BFC9
:403F4000C81738BF6FEAE17018BF40F0010070477FEA226C02D15FEA402C05D17FEA236CE4D15FEA412CE1D05DF8040B704700BF844608466146FFE70FB5FFF7C9FF002870
:403F800048BF10F1000F0FBD4DF808EDFFF7F4FF0CBF012000205DF808FB00BF4DF808EDFFF7EAFF34BF012000205DF808FB00BF4DF808EDFFF7E0FF94BF012000205DF87C
:403FC00008FB00BF4DF808EDFFF7D2FF94BF012000205DF808FB00BF4DF808EDFFF7C8FF34BF012000205DF808FB00BF4FEA4002B2F1FE4F0FD34FF09E03B3EB12620DD9EC
:404000004FEA002343F0004310F0004F23FA02F018BF404270474FF00000704712F1610F01D1420205D110F0004008BF6FF0004070474FF000007047014B1868704700BF56
:404040004881FF1F0E4B70B51E460E4C0025E41AA410A54204D056F8253098470135F8E700F0B8FE084B094C1E46E41AA4100025A54204D056F8253098470135F8E770BDEC
:40408000E04D0000E04D0000E04D0000E84D000010B5431E0A44914204D011F8014B03F8014FF8E710BD03460244934202D003F8011BFAE7704700000CB430B5164B0C1EC8
:4040C0009DB01D6804DA8B232B604FF0FF301EE04FF40273ADF814300CBF234604F1FF33049307934FF6FF7302900690ADF81630209A21AB02A92846019300F095F8431C65
:40410000BCBF8B232B6014B1029B00221A701DB0BDE8304002B070474881FF1F0EB400B54FF402719CB0ADF814106FF00041049107914FF6FF711DAB02900690084853F83C
:40414000042BADF81610006802A9019300F06CF8029B00221A701CB05DF804EB03B070474881FF1F034613F8012B002AFBD1181A013870472DE9F0478E6882469E420C46CB
:40418000914698463ED88A8912F4906F3AD02568096902236F1A656905EB450595FBF3F57B1C43449D4238BF1D4653050FD5294600F040FB064698B13A462169FFF768FFBC
:4041C000A38923F4906343F08003A38113E02A4600F08EFB064670B92169504600F0DEFA0C23CAF80030A3894FF0FF3043F04003A381BDE8F08726613E4426604646656124
:40420000ED1BA560464528BF464649463246206800F0A8FAA36800209B1BA36023681E442660BDE8F08700002DE9F04F9DB003938B8980461C060D4616460DD50B695BB992
:40424000402100F0F7FA2860286118B90C23C8F80030CDE040236B610023099320238DF82930DFF89CB130238DF82A3037463C4614F8013B1BB9B7EB060910D003E0252B0A
:40428000F9D02746F3E74B46324629464046FFF771FF013000F0A780099B4B4409933B78002B00F0A08000234FF0FF3204930793059206938DF853301A93012605222178F5
:4042C0004E4800F041FA671C049B38B14B4A3C46801A06FA00F018430490EFE7D90644BF20228DF853201A0744BF2B228DF8532022782A2A03D0079A00210A200BE0039AD2
:40430000111D12680391002A10DA524243F00200079204900BE027463B780134303B092B03D800FB02320121F5E701B107923B782E2B1ED17B782A2B0AD1039B02371A1DD9
:404340001B680392002BB8BF4FF0FF33059310E0002319460593781C0A2407463A780130303A092A03D804FB01210123F5E703B1059103223978224800F0E6F940B1402338
:40438000CBEB000003FA00F0049B013718430490397806221B487E1C8DF8281000F0D4F988B1194B33B9039B073323F007030833039314E003AB00932A46144B04A94046BE
:4043C000AFF3008007E003AB00932A460F4B04A9404600F093F8B0F1FF3F824603D0099B5344099342E7AB895B0601D4099801E04FF0FF301DB0BDE8F08F00BF9E4D00008C
:40440000A44D0000A84D000000000000754100002DE9F04791461F460A698B6806469342B8BF1346C9F8003091F843200C46DDF8208012B10133C9F800302368990642BF49
:40444000D9F800300233C9F80030256815F0060510D104F1190A07E00123524639463046C04701301AD00135E368D9F800209B1A9D42F1DB94F843302268003318BF01233C
:4044800092060FD5E118302081F843005A1C94F845102244023382F8431003E04FF0FF30BDE8F08704F1430239463046C0470130F4D02268D9F80050E36802F00602042A06
:4044C00008BF5D1B2269A3680CBF25EAE57500259342C4BF9B1AED184FF000091A344D4509D00123224639463046C0470130D5D009F10109F3E70020BDE8F0872DE9F043BA
:4045000017460A7E85B06E2A984606460C460C9B01F1430E00F0AE8011D8632A22D009D8002A00F0BB80582A40F0CA8081F84520834955E0642A1ED0692A1CD0C0E0732A94
:4045400000F0B08009D86F2A2ED0702A40F0B8800A6842F020020A603EE0752A24D0782A3AD0ADE01A6801F14205111D1960136884F84230A8E021681A6811F0800F02D0C7
:40458000111D196008E011F0400F02F10401196002D0B2F9003000E01368002B3CDA2D225B4284F8432037E021681A6811F0800F02D0111D196007E011F0400F02F104013D
:4045C000196001D0138800E01368227E5C496F2A14BF0A2208221BE078225A4984F845202268186812F0800F00F104051D6003D1550601D5038800E00368D00744BF42F062
:40460000200222601BB9226822F0200222601022002084F8430001E049490A226568002DA56008DB206820F0040020602BB9002D7DD175460CE0002B79D07546B3FBF2F04F
:4046400002FB1033CB5C05F8013D03460028F5D1082A0BD12368DA0708D5236962689A42DEBF302305F8013C05F1FF35C5EB0E0323612EE008681A6810F0800F496903D02B
:40468000101D1860136808E010F0400F02F104001860136801D0198000E0196000232361754616E01A68111D1960156800216268284600F049F808B1401B6060636804E0EB
:4046C00004F1420584F8422001232361002384F84330CDF800803B4603AA21463046FFF797FE013002D14FF0FF3026E023692A4639463046C0470130F5D023689B0710D593
:40470000002504F1190907E001234A4639463046C0470130E7D00135E368039A9B1A9D42F2DBE068039B9842B8BF184605E00B7804F1420584F842308AE705B0BDE8F083DA
:40474000AF4D0000C04D000010B5C9B202449042034605D01C7801308C42F8D1184610BD002010BD884210B501EB020301D8421E0BE09842FBD28118D21AD34204D013F882
:40478000014D01F8014DF8E710BD994204D011F8014B02F8014FF8E710BD000038B50546002944D051F8043C0C1F002BB8BFE41800F0D4F81E4A1368114613B963601460FE
:4047C00030E0A3420DD92268A018834201BF18685B681218226063600C6023E0A24203D813465A68002AF9D118681918A1420BD12168014458188242196013D11068526827
:40480000014419605A600DE002D90C232B6009E021686018824201BF106852680918216062605C602846BDE8384000F098B838BD1482FF1F70B5CD1C25F0030508350C2DA9
:4048400038BF0C25002D064601DBA94202D90C23336046E000F082F8234B1C681A462146A1B10B685B1B0ED40B2B03D90B60CC18CD501EE08C420BBF63684B681360636005
:4048800018BF0C4615E00C464968E9E7174C23681BB9304600F052F820602946304600F04DF8431C18D0C41C24F00304A0420DD12560304600F053F804F10B00231D20F073
:4048C0000700C31A0ED05A42E25070BD211A304600F034F80130EBD10C233360304600F03EF8002070BD00BF1482FF1F1082FF1FF8B5074615460E4621B91146BDE8F840BC
:40490000FFF798BF1AB9FFF749FF2846F8BD00F027F885420ED929463846FFF78BFF044650B131462A46FFF7B3FB31463846FFF735FF01E03046F8BD2046F8BD38B5064C71
:404940000023054608462360FDF75CFA431C02D1236803B12B6038BDAC82FF1F7047704751F8040C0028BEBF091851F8043CC01804387047000000004D41494E2053544163
:4049800052540D0A000000004E534C202D2049444C450D0A00000000330000004E534C202D20474F494E475F49444C450D0A00004E534C202D204556414C554154494E47CC
:4049C0005F5745494748540D0A0000004E534C202D2052454144590D0A0000004E534C202D20434F55544E444F574E0D0A0000004E534C202D20434855470D0A00000000C9
:404A00004E534C202D2057494E4E45525F444F4E450D0A004E534C202D204556414C554154494E475F4E45575F5745494748540D0A0000004E534C202D204C4F5345525F9E
:404A4000444F4E450D0A00004E534C202D205745494748545F434F4E4649524D45440D0A000000004E534C202D2047414D455F4F5645520D0A0000004E534C202D204552B3
:404A8000525F5745494748540D0A00004E534C202D204552525F4E4F5F53544152540D0A000000004E534C202D204552525F46414C53455F53544152540D0A004E534C2005
:404AC0002D204552525F54494D454F55540D0A004E534C202D204552525F4E4F434855470D0A00004E534C202D2044454641554C540D0A004F4C202D2049444C450D0A00B3
:404B0000340000004F4C202D20474F494E475F49444C450D0A0000004F4C202D204556414C554154494E475F5745494748540D0A000000004F4C202D2052454144590D0A67
:404B4000000000004F4C202D20434F554E54444F574E0D0A000000004F4C202D20434855470D0A004F4C202D2057494E4E45525F444F4E450D0A00004F4C202D20455641B4
:404B80004C554154494E475F4E45575F5745494748540D0A000000004F4C202D2047414D455F4F5645520D0A000000004F4C202D204552525F5745494748540D0A00000057
:404BC0004F4C202D204552525F4E4F5F53544152540D0A004F4C202D204552525F46414C53455F53544152540D0A00004F4C202D204552525F54494D454F55540D0A000077
:404C00004F4C202D204552525F4E4F434855470D0A0000004F4C202D2044454641554C540D0A000043616C69627261746564205765696768742066726F6D20706C617965A3
:404C40007220313A202569200D0A00003500000043616C69627261746564205765696768742066726F6D20706C6179657220323A202569200D0A0000360000000D0A6461A6
:404C8000746120726561642066726F6D204C6F7365723A202575000043616C6962726174696E672057656967687453656E736F72730D0A0030000000256400005370696C39
:404CC0006C657220310000005469643A200000005370696C6C6572203200000025642C256473202020000000000000004000000014000000540000001B5B324B00000000CC
:404D00001B5B00003B000000660000001B5B39316D0000001B5B39326D0000001B5B39346D0000001B5B306D000000000D5100400D51004004800000C84900401900004FE5
:404D400000400C00205100405000000001400008800801400004000D0140000300140140000800400140000A004C0140000200500140200060520040640A00480600005158
:404D800001406C0A0048080000080140740A00488000800C0140F40A004880004300232D302B2000686C4C00656667454647003031323334353637383941424344454600F6
:404DC0003031323334353637383961626364656600000000F8B500BFF8BC08BC9E4670474D000000811E0000F8B500BFF8BC08BC9E46704729000000084E0000C880FF1F82
:404E00008800000060010000000000000000003FB082FF1F0000E02EC05D00001800000000366E01FF00000000000000000000000000000000000000000000000000000013
:404E400000000000000000009C4D00000000000000000000000000000000000000000000000000000000000000000000000000000000000000000000000000000000000049
:404E80000000000000000000E880FF1F000000000000000000000000000000000000000000000000000000000000000000000000000000000000000000000000000000006C
:404EC00000000000000000000000000000000000000000000000000000000000000000000000000000000000000000000000000000000000000000000000000000000000B2
:404F00000000000000000000000000000000000000000000000000000000000000000000000000000000000000000000000000000000000000000000000000000000000071
:404F40000000000000000000000000000000000000000000000000000000000000000000000000000000000000000000000000000000000000000000000000000000000031
:404F800000000000000000000000000000000000000000000000000000000000000000000000000000000000000000000000000000000000000000000000000000000000F1
:020000040003F7
:0200000480007A
:40000000024F004002520040076400400465004037000140190101403F02014022030140360401401E05014037060140130701400408014032090140490A0140430B0140E8
:40004000350C0140400D01403714014019150140361601401A1701405B18014040190140621A0140451B014006400140134101400E4201400743014005440140044501407E
:4000800009460140024701400748014007490140094C01400C4D01400850014001800A3600400140810D830D850D870D88728A178B38850D870D880F8B0D404349FF4AFFEF
:4000C0004BFF4F01501852805A045B045D225F016040624064406540668068806A806C806E8092019F01AA01AB01B001B301BE01C042C5ECC702C813C9FFCAFFCBFFCD83C3
:40010000CE03CF01D018D401D804D904DA04DB04DC20DD22DF01E040E240E440E540E680E880EA80EC80EE800D0216041E8027202F08378041024308450246044D044F01B7
:40014000560457085D045E805F0171027380C210C440CA20CC10D0A3D6D0080316031F012C012E022F013101320134023E14401449FF4AFF4BFF4F015018580459045A0450
:400180005B045C205D025F016040624064406540668068806A806C806E809201AE01B601BE40C014C5ECC720C823C9FFCAFFCBFFCD83CE03CF01D018D280D401D804DA0425
:4001C000DB04DD22DF01E040E240E440E540E680E880EA80EC80EE80052009020F201380154019401F2427402F0237804002410244024502478049065102530259466D4056
:40020000738081208B20AB20C040C228C481CA10CC10D099D60BE280E601EA04401349FF4AFF4BFF4F0150185A045D025F016040624064406540668068806A806C806E802E
:400240008A019F01AB01AE01B201B701BF40C012C5ECC702C813C9FFCAFFCBFFCD83CE03CF01D018D280D401D804D904DA04DB04DC02DD22DF01E040E240E440E540E680E8
:40028000E880EA80EC80EE80060417401E2026402F0837404348460447404D044F01560457085D045E805F0177408A10AB40B304B710C040C480CA20CC10D03AD6D0E288AC
:4002C000EA80EE0802011E013601404149FF4AFF4BFF4F015018528058045A045B045C025D225F016040624064406540668068806A806C806E8082019E01B601BE40C04114
:40030000C5ECC602C807C9FFCAFFCBFFCD83CE03CF01D018D401D804DA04DB04DD22DF01E040E240E440E540E680E880EA80EC80EE800240064009800D8019401F40418040
:4003400042804580464049055180594576C08740C018C281D099D60BBA08D804DC01DF010421050806060D020E220F0815C01640172818201B081C121D201F0125082613AC
:4003800027062C802D082E802F08351137043D403E2A4582468447044E024F0857205C106D106E186F01762A772897029F02A401A720C0F0C2F0C4F0CAF0CCE0CEF0D0F02C
:4003C000D210D620006801040408052206600704084C09260A930C850D190E620F02106012081322140D153F16F217401801192A1A021B551C401D261E882068212628689D
:4004000029102B682C202D042E402F22303C33073403357836C038023AA03B2056025724580459045B045F0183018C018E06940898039A0CA40DA602A701AE01B20EB301D4
:40044000B403B808BA30BF04D418D604D804D904DB04DD10DF01004001050208044008010A4A0B200E241008120113011508160118401A8A1D101E241F102004210422085F
:40048000250828092A022F20311032093340384039143A013C02450846205A805B805F02600C66206782680869156A506B4072037301874094409505965D9A019F80A608C6
:4004C000AA04AB01B35AB601C08FC26FC4ABCA4DCC0FCE8FD680D8B4EA10EE0802260503070C0A080D070F081507170818B01A4D1D0A1ED01F04281C2A612C852E28310E97
:400500003201340236FC37013B023E043F4040124106425049FF4AFF4BFF4C024E704F0C50045409580459045A045B045F0162C0644065016610671168C069016B116C4022
:400540006D016E406F01005001040220051108450A550E06108011011204130815101780181019821B501D101E021F082201274228453080322534023608374A38483920A3
:400580003B023C403E044040411042044310479049814A084B064C044D104E084F805120520553025D025F546120632164028340C057C2CFC4CECA0DCC5FCE5FD035D23CE7
:4005C000D6F0D81EEA040A0112013601404349FF4AFF4BFF4F015018528058045A045B045C025D225F016040624064406540668068806A806C806E809201AA01B001BE01F3
:40060000C042C5ECC702C813C9FFCAFFCBFFCD83CE03CF01D018D401D804DA04DB04DD22DF01E040E240E440E540E680E880EA80EC80EE80030809020D02160418021E804E
:4006400041024308450246044D05560457085D055E8071029402C002C218C440D0A3D6D0E602EA01EE02020112013401401449FF4AFF4BFF4F01501858045A045C025D02E2
:400680005F016040624064406540668068806A806C806E808201AE01B601BE40C041C5ECC602C807C9FFCAFFCBFFCD83CE03CF01D018D280D401D804DA04DB04DD22DF01BA
:4006C000E040E240E440E540E680E880EA80EC80EE80024006400D02138019401F1041024380464047804905524053805945710273808B109402B401C018C210C401D099E3
:40070000D60BE220EA400120020205030604070C09100A0411101401151019031A011B041C012103230426012705290A2A012B042F0830013110330F3606372039203B0828
:400740003E413F5040324104450C46B047E0482949FF4AFF4BFF4EF04F44500C5401580459045A045B045C105D115F0166C06A406B02880C8A038E0C94019501960699026E
:400780009C019E0EA101A208A603AB01B103B40FB902BA20C002C604C9FFCA07CBFFCC40CD20CEF0CF05D008D804D904DA04DC11DD01DF01E040E1A8E240E3200080012040
:4007C0000519084009040C500D080F0810A015041608180819201D801E8020802420250E26A0284029202C602D202E082F02302031083410360437213D093E1240044440F8
:400800004508460848204F085080551056025C085D015E805F209110921094019B019D19A204A582B080B120B240B548C073C2E5C46CCAF5CCE6CEE0D0E4D6F00203050816
:40084000090C0C090E101410160C1B041C0C1D0C1E1120102102241C2602270128142F01301F31013302350C39203F14401349FF4AFF4BFF4F015018580459045A045C21DF
:400880005D025F016040624064406540668068806A806C806E808002820C841485068623870188288A128B059302983E9F08A303A701A83EAB08AF06B00EB108B430B6015C
:4008C000B707BB80BF01C012C5ECC702C813C9FFCAFFCBFFCD83CE03CF01D018D280D401D804D904DA04DB04DC11DD22DF01E040E240E440E540E680E880EA80EC80EE80DE
:40090000008001020302051909800B100E08108011241302151019021C011D112004210823402440258029022A442C602F0A306031803742382839043B103D043F1043481E
:40094000460447404D014F04560457085C405D015F047640774085088740890890289110940595049C409D19A0E0A110A204A702A808AA80AE20C079C245C44ECAFBCC9CD9
:40098000CE66D03AD6D0E002EA013312350236203B40CCF0CE1031403304344037023B80630267088B0497409B049D02A620A702AB14CCF0CE10D640D880EAA03E10874042
:4009C000884097C09C409D02A620A702AB02AD40B301CE20E210EE908702961097409D02A620A702E210101014207102C40CDC0194209830A502A810032018209420983016
:400A0000A502A720AF20C008C6089830A50264108B4096109740A620B502D8808620A620AA10AC10E640EA80EE4012401320162078107C209830A502C40EDE031040722060
:400A40007640850288409A60A502AB20C408DC01DE04E201000708040A040C030E0110061A041C061030000040000000FFFF0FC0000000000008040004040000BF0C0000D6
:400A8000100F00F000C30300A7F3180C00824000000040003C1C82E30841000018FF00003C0081F3401C202C1F0F80C0800020280000050034020500010CE00009FFFFFFC3
:400AC00062A0F0410C0000000000021104040404111100010000000000004002001030100010101200000000000000000000000000000000008000203D07000802280D4248
:400B0000021804210DD430203D000005020508003D0500003D05000001000200000520000000000510FF0F002000100000000803000011004206500000BEF0CD3B0FFFFF7E
:400B40002300B00C040000004000000004040404000000010000C00040011011C00100114001400100000000000000000000000000000000006060006000840080004080E7
:400B8000B000B000000000001010000000000000000B0B00000000000E00180100000000000000000000000000000000000000000000000000000000000000000000000078
:400BC00000000000000000000000000000000000000000000000000000000000000000000000000000000000000000000000000000000000000000000000000000000000F5
:400C000000000000000000000000000000000000000000000000000000000000000000000000000000000000000000000000000000000000000000000000000000000000B4
:400C40000000000000000000000000000000000000000000000000000000000000000000000000000000000000000000000000000000000000000000000000000000000074
:400C80000000000000000000000000000000000000000000000000000000000000000000000000000000000000000000000000000000000000000000000000000000000034
:0200000490006A
:0400000000004005B7
:0200000490105A
:04000000BC90ACAF55
:0200000490303A
:02000000EE32DE
:0200000490402A
:4000000000000000000000000000000000000000000000000000000000000000000000000000000000000000000000000000000000000000000000000000000000000000C0
:400040000000000000000000000000000000000000000000000000000000000000000000000000000000000000000000000000000000000000000000000000000000000080
:400080000000000000000000000000000000000000000000000000000000000000000000000000000000000000000000000000000000000000000000000000000000000040
:4000C0000000000000000000000000000000000000000000000000000000000000000000000000000000000000000000000000000000000000000000000000000000000000
:0200000490501A
:0C00000000012E16106900012E37FE9B37
:00000001FF