:400000000080002011000000F50C0000F50C000008B5044B1A6803F53F5302331A6000F089FE00BFFA46004010B5054C237833B9044B13B10448AFF300800123237010BDEE
:400040008081FF1F000000002C3E0000084B10B51BB108490848AFF300800848036803B910BD074B002BFBD0BDE81040184700BF000000008481FF1F2C3E0000C880FF1FBE
:400080000000000000B5ADF6C45D62B601220DF5DC61142000F0F2FB02226946142000F0EDFB782000F024F84FF496721421642000F048F80DF5DC6000F02AFCFEE700BF8D
:4000C00008B501F045FF01464FF07E5002F048F8054901F091FF054901F08EFF02F052F980B200F095FE08BD00007A440000204110B504460E4800F07BFF0E4801F078F891
:400100000D4801F04DF80D4801F0F8F80C4801F01DF900F037FF00F0B1FE00F0C1FF01F017F801F0C3F82046FFF7CAFF10BD00BFE10300006507000079050000A10600005C
:40014000750A000038B50546144601EB8101480080B200F06FFF05EB8505680080B200F0C1FF04EB8404600080B201F069F838BD2DE9F04784B004460D46904699460E9E95
:40018000DDF83CA0002200234046494601F090FD68B1582303FB06F60AEB0604DDE90C0101F0A4FD60604AF80600A060E2E00022724B2046294601F085FD08B100240025D1
:4001C00000226F4B2046294601F020FC04460D4601F08CFD074601F089FA02460B462046294601F035F904460D4642464B460020644901F02DF902460B46DDE90C0101F0E5
:40020000DBFACDE90001CDE9024522462B464046494601F0D1FA02460B460020594901F017F902460B46DDE90C0101F0C5FA04460D46DDE902230020524901F009F9024695
:400240000B464046494601F0B7FA02460B4600204C4901F0FDF802460B46DDE90C0101F0ABFA042F24D8DFE807F0032D080D1800DDE90C45CDE90C0124E0DDE90045CDE957
:4002800000011FE022462B46DDE90045DDE90C01CDE90001CDE90C2314E0DDE90C23DDE90045CDE90C45CDE9002304460D4609E022462B46DDE90C45DDE90001CDE90C0117
:4002C000CDE900230022304B2046294601F074FA00222C4B01F0BCF804460D4600222A4BDDE90C0101F068FA0022264B01F0B0F8804689460022244BDDE9000101F05CFA5C
:400300000022204B01F0A4F8CDE90001002200232046294601F0C2FC08B100240025002200234046494601F0B9FC18B14FF000084FF0000900220023DDE9000101F0AEFC22
:4003400018B100220023CDE90023582303FB06F60AEB06074046494601F0C8FC78602046294601F0C3FC4AF80600DDE9000101F0BDFCB86004B0BDE8F08700BF0080764062
:4003800000004E400000F03F0000704070B50646436C012B04D1012000F038FF00251BE0022B1CD1002000F031FFF7E7582404FB0564208D00F0A0FDA08D00F09DFD208E8C
:4003C00000F09AFDA08E00F097FD208F00F094FDA08F00F091FD0135336C9D42E6DB70BD08B5074B186808B1FFF7D0FFC82000F053FD034B586808B1FFF7C8FF08BD00BF08
:400400009C81FF1FF0B591B0189D199C03940295DDE91667CDE90067FFF7AAFE582303FB05F3E518E1586868AA68002311E010F0800F06D0062610AC04EB830444F8306CCD
:4004400005E0042610AC04EB830444F8306C40000133072BEBDD059B9B01049803EB4023069803EBC00307980344AB62099B9B01089803EB40230A9803EBC0030B9803441C
:40048000EB62002311E011F0800F06D0062410A800EB830040F8304C05E0042410A800EB830040F8304C49000133072BEBDD059B9B01049903EB4123069903EBC1030799F7
:4004C0000B442B63099B9B01089903EB41230A9903EBC1030B990B446B63002311E012F0800F06D0062010A901EB830141F8300C05E0042010A901EB830141F8300C52009E
:400500000133072BEBDD059B9B01049A03EB4223069A03EBC203079A1344AB63099B9B01089A03EB42230A9A03EBC2030B9A1344EB6311B0F0BD00BF2DE9F04F85B08046B4
:40054000894692469B46DDE90E45109F00260AE003970296CDE9004552465B4640464946FFF750FF01363B6C9E42F1DB05B0BDE8F08F00BF00000000F0B585B0464B9B68CB
:40058000002B40D1444B1B68DA6C012A10D1D3E90667D3E904450293404B186801F0B8F8CDE9000132463B4620462946FFF7C4FF394B5B68DA6C012A10D1D3E90667D3E970
:4005C00004450293354B186801F0A2F8CDE9000132463B4620462946FFF7AEFF2F4C206801F096F82AA3D3E9002300F031FF01F0A5FB2060002101F09DFE002845D00122FE
:40060000254B9A6041E0012B3FD1234B1B68DA6C012A10D1D3E90667D3E9044502931F4B186801F075F8CDE9000132463B4620462946FFF781FF184B5B68DA6C012A10D132
:40064000D3E90667D3E904450293144B186801F05FF8CDE9000132463B4620462946FFF76BFF0E4C206801F053F809A3D3E9002300F0F0FE01F062FB20604FF07E5101F057
:400680004FFE10B10022044B9A6005B0F0BD00BF7B14AE47E17A843F9C81FF1FCC80FF1F30B585B02D4B1B681A6D012A27D12B4AD26812B1012A12D021E0D3E90645D3E957
:4006C000040102930022264BCDE9002322462B46FFF732FF214AD3680133D3600FE0D3E90645D3E90401029300220023CDE9002322462B46FFF720FF0022184BDA60174B6E
:400700005B681A6D012A27D1144AD26812B1012A12D021E0D3E90645D3E90401029300220F4BCDE9002322462B46FFF705FF0B4AD3680133D3600FE0D3E90645D3E90401B0
:40074000029300220023CDE9002322462B46FFF7F3FE0022014BDA6005B030BD9C81FF1F0000F03F2DE9F04385B0404B1A68936C23B93E494968896C002973D0012B08D14E
:40078000002000210292CDE9000102460B46FFF7D3FE364B5B689A6C012A08D1002000210293CDE9000102460B46FFF7C5FE2F4B1C6938E02D4B1B689A6C012A16D11D6C6D
:4007C000AC4201DB651B00E02546582202FB0532D2E90689D2E9040103930295D2E90867CDE9006742464B46FFF70CFE1F4B5B689A6C012A16D11D6CAC4201DB651B00E027
:400800002546582202FB0532D2E90689D2E9040103930295D2E90867CDE9006742464B46FFF7F0FD0134114B1A695B6913449C42C0DB0E4B1B684BB11B6C013B9A4201DA2B
:40084000013200E00022094B1A610BE0074B5B6843B11B6C013B9A4201DA013200E00022024B1A6105B0BDE8F08300BF9C81FF1F00238364C3640365704700BF30B585B019
:400880000D46012A02D10E4B196001E00C4B596028646A642846FFF7EBFF00240AE00020002103950294CDE9000102460B46FFF7A9FD01342B6C9C42F1DB05B030BD00BF3C
:4008C0009C81FF1F2DE9F04790469946DDE90867DDE90A45DDF830A00C4B58615046FFF7C7FF0123CAF84830002209E0582303FB02A3C3E90489C3E90667C3E90845013265
:40090000DAF840309A42F1DBBDE8F0879C81FF1F00B587B004900022064BCDE90223CDE900230022044B0320FFF7CCFF07B05DF804FB00BF0000F03F0040504000000000B1
:400940002DE9F04B84B080468B46FFF791FF5846FFF78EFF424B9C69042C76D8DFE804F003203A546E0000263E4FCDF808800FF2E809D9E90089CDE9008932463B46002035
:400980003949FFF7D9FDCDF808B0CDE9008932463B4600203449FFF7CFFD00F037FD55E00024304D0026314FCDF80880CDE9004522462B4630463946FFF7BEFDCDF808B0F1
:4009C000CDE9004522462B4630463946FFF7B4FD00243BE00024234D0026244FCDF80880CDE9004522462B4630463946FFF7A4FDCDF808B0CDE9004522462B463046394628
:400A0000FFF79AFD002421E00024164D0026184FCDF80880CDE9004522462B4630463946FFF78AFDCDF808B0CDE9004522462B4630463946FFF780FD002407E000F09CFC11
:400A40000022074B9A60012400E00024204604B0BDE8F08BAFF300808FC2F5285C8FEA3F9C81FF1F0000F03F000008400040504000005D4008B5044B9A6901329A615968E4
:400A80001868FFF75DFF08BD9C81FF1FFEE700BFF0B40022174611E050F82760F3B226F0FF0608E001EB420511F812406D78A5550132013BDBB2002BF4D10137172FEBD99A
:400AC000F0BC7047064B1B78DBB203F00701054A11701B09013213704422034B1A707047CF0100496E5800407658004008B50A46002101F0A4FC08BD38B509222F4B1A80AB
:400B000018232F4A137041F2BF222E490A8002310B7002310A8002310B7002310A8002310B7002310A8002310B7002310A80264A13700222254B1A7008224FF040231A7056
:400B4000032203F500731A70214B1B78DBB2214A13701022204B1A8041F25122023B1A80002419250CE01D4B1B7803F0010343EA440404F003044FF4F07000F055FC013D5B
:400B80000DB1032CEFD115B90320FFF77FFF144B4FF480721A8007221A70002211490A704820023108701A700222033B1A700E4A137843F03F03137038BD00BF8040004034
:400BC0008240004084400040964000400043004008010049A146004022420040254200400440004006400040A243004008B501F01BFC08BD38B572B6314A137843F0040384
:400C0000137000240CE02F4D630019194A0011462A44084691882858FFF768FF0134E4B2082CF0D900240CE02648A20011194B000344B3F84020D96B986BFFF7D7FF0134C6
:400C4000E4B2012CF0D920494FF09040FFF720FF1E4A137843F0020313701032137843F0020313701A4C237843F040032370A2F58632513A137843F0100313700822154965
:400C80001548FFF7B3FF082214491548FFF7AEFF144A137843F008031370134D61232B70FFF72AFFC1232B700122104B1A70FFF709FF0E2221460E48FFF798FF38BD00BFAD
:400CC000E8460040303E00006000004803500140A04300408C060048025100409406004812510040224300400048004004000840B043004008B501F06BFB03680C2B00D194
:400D0000FEE7FEE708B5094B1A681044084BC31A802B02DC054B186005E001F059FB0C2303604FF0FF32104608BD00BFD080FF1FD081FF1F08B5104E104D16E029686B68CC
:400D4000AC68002204E051F8040B43F8040B0432A242F8D1E868002203E0002143F8041B04328242F9D11035013E002EE6D101F035FBFFF787F9FEE701000000CC3F00004F
:400D800008B5104A104B1A60104A136843F40073136000230AE0032B03D80D4A52F8231000E00C490C4A42F8231001332F2BF2D90A4B1A780A4B1A70074A0A4B1A60FFF73E
:400DC00019FF08BD0004FA050CED00E014ED00E000000000F50C00000080FF1FBC760040C080FF1F08ED00E0024A137843F08003137070477B650040014B1870704700BFE4
:400E00008B650040014B1878704700BF6B650040014B1880704700BF546A0040014B188880B27047946A0040014B1880704700BF146A004008B501E0FFF7F0FFFFF7E2FF43
:400E400010F0080FF8D108BD08B540F2E730FFF7DFFF40F2E730FFF7E7FF00F0EDFA064A137843F01003137000F0EAFAFFF7E2FF0120FFF7C1FF08BD9B65004008B5054BBF
:400E80001B7823B9FFF7E0FF0122024B1A70FFF7ABFF08BDB881FF1F08B5034B1B7A00FB03F000F0C1FA08BDD480FF1F08B500F0C3FA0A4A137843F020031370A2F20112FF
:400EC000137843F010031370FE32137843F01003137000F0B5FA00F063F808BD97650040014B1878704700BF66640040014B1878704700BF64650040034B1B7813F0040F81
:400F0000FAD0024B18807047666400404665004008B501E00E4B1B880E4B1B7813F0200FF8D100F089FA0C4B1A7842F001021A701A7802F0FE021A7001331A7842F00102B1
:400F40001A701A7802F0FE021A7000F079FA08BD56650040646500409665004008B51722064B1A70FFF7D4FFFFF7BAFFFFF7BEFF0023034A1370FE32137008BD87650040DF
:400F80008664004008B5054B1B7823B9FFF7E6FF0122024B1A70FFF789FF08BDB981FF1F054A137843F0010313701032137843F001031370704700BFA2430040014B1B6896
:400FC0009864704708ED00E04001C0B2014B1870704700BF02E400E00422014B1A60704700E100E00422014B1A60704780E100E010B50446FFF7F6FF2046FFF7DFFF022008
:40100000FFF7E2FFFFF7E8FF10BD00BF024A137843F080031370704770640040014B1870704700BF81640040014B1878704700BF61640040014B1880704700BF406800408D
:40104000014B188880B2704780680040014B1880704700BF0068004008B501E0FFF7F0FFFFF7E2FF10F0080FF8D108BD08B542F20F70FFF7DFFF42F20F70FFF7E7FF00F0AF
:40108000DBF9064A137843F01003137000F0D8F9FFF7E2FF0120FFF7C1FF08BD9164004008B5054B1B7823B9FFF7E0FF0122024B1A70FFF7ABFF08BDBA81FF1F024A13786F
:4010C00043F080031370704776650040014B1870704700BF87640040014B1878704700BF67640040014B1880704700BF4C680040014B188880B270478C680040014B1880D8
:40110000704700BF0C68004008B501E0FFF7F0FFFFF7E2FF10F0080FF8D108BD08B542F20F70FFF7DFFF42F20F70FFF7E7FF00F083F9064A137843F01003137000F080F93A
:40114000FFF7E2FF0120FFF7C1FF08BD9764004008B5054B1B7823B9FFF7E0FF0122024B1A70FFF7ABFF08BDBB81FF1F014B1B685864704708ED00E04001C0B2014B187019
:40118000704700BF01E400E00222014B1A60704700E100E00222014B1A60704780E100E010B50446FFF7F6FF2046FFF7DFFF0720FFF7E2FFFFF7E8FF10BD00BF014B1B6846
:4011C000D864704708ED00E04001C0B2014B1870704700BF03E400E00822014B1A60704700E100E00822014B1A60704780E100E010B50446FFF7F6FF2046FFF7DFFF0720B8
:40120000FFF7E2FFFFF7E8FF10BD00BF014B1870704700BF73640040024A137843F080031370704772640040014B1870704700BF83640040014B1878704700BF6364004066
:40124000014B1880704700BF44680040014B188880B2704784680040014B1880704700BF0468004008B501E0FFF7F0FFFFF7E2FF10F0080FF8D108BD08B542F20F70FFF7BC
:40128000DFFF42F20F70FFF7E7FF00F0D5F8064A137843F01003137000F0D2F8FFF7E2FF0020FFF7C1FF08BD9364004008B5054B1B7823B9FFF7E0FF0122024B1A70FFF7BC
:4012C000ABFF08BDBC81FF1F014B1B681864704708ED00E04001C0B2014B1870704700BF00E400E00122014B1A60704700E100E00122014B1A60704780E100E010B504463B
:40130000FFF7F6FF2046FFF7DFFF0720FFF7E2FFFFF7E8FF10BD00BF014B1B681865704708ED00E04001C0B2014B1870704700BF04E400E01022014B1A60704700E100E014
:401340001022014B1A60704780E100E010B50446FFF7F6FF2046FFF7DFFF0720FFF7E2FFFFF7E8FF10BD00BF024A137843F080031370704775650040024A137803F07F03B5
:401380001370704775650040014B1870704700BF85650040014B1878704700BF65650040014B1880704700BF486A0040014B188880B27047886A0040014B1880704700BF5C
:4013C000086A004008B501E0FFF7F0FFFFF7E2FF10F0080FF8D108BD08B542F20F70FFF7DFFF42F20F70FFF7E7FF00F025F8064A137843F01003137000F022F8FFF7E2FFD7
:401400000020FFF7C1FF08BD9565004008B5054B1B7823B9FFF7E0FF0122024B1A70FFF7A3FF08BDBD81FF1F0230800803D000BF01380046FCD17047EFF3108072B6704733
:4014400080F31088704700BF81F0004102E000BF83F0004330B54FEA41044FEA430594EA050F08BF90EA020F1FBF54EA000C55EA020C7FEA645C7FEA655C00F0E2804FEAC7
:401480005454D4EB5555B8BF6D420CDD2C4480EA020281EA030382EA000083EA010180EA020281EA0303362D88BF30BD11F0004F4FEA01314FF4801C4CEA113102D0404206
:4014C00061EB410113F0004F4FEA03334CEA133302D0524263EB430394EA050F00F0A780A4F10104D5F1200E0DDB02FA0EFC22FA05F2801841F1000103FA0EF2801843FA52
:4015000005F359410EE0A5F120050EF1200E012A03FA0EFC28BF4CF0020C43FA05F3C01851EBE37101F0004507D54FF0000EDCF1000C7EEB00006EEB0101B1F5801F1BD314
:40154000B1F5001F0CD349085FEA30004FEA3C0C04F101044FEA445212F5800F80F09A80BCF1004F08BF5FEA500C50F1000041EB045141EA050130BD5FEA4C0C404141EBFD
:40158000010111F4801FA4F10104E9D191F0000F04BF01460020B1FA81F308BF2033A3F10B03B3F120020CDA0C3208DD02F1140CC2F10C0201FA0CF021FA02F10CE002F115
:4015C0001402D8BFC2F1200C01FA02F120FA0CFCDCBF41EA0C019040E41AA2BF01EB0451294330BD6FEA04041F3C1CDA0C340EDC04F11404C4F1200220FA04F001FA02F3F5
:4016000040EA030021FA04F345EA030130BDC4F10C04C4F1200220FA02F001FA04F340EA0300294630BD21FA04F0294630BD94F0000F83F4801306BF81F480110134013DE2
:401640004EE77FEA645C18BF7FEA655C29D094EA050F08BF90EA020F05D054EA000C04BF1946104630BD91EA030F1EBF0021002030BD5FEA545C05D14000494128BF41F061
:40168000004130BD14F580043CBF01F5801130BD01F0004545F0FE4141F470014FF0000030BD7FEA645C1ABF194610467FEA655C1CBF0B46024650EA013406BF52EA033587
:4016C00091EA030F41F4002130BD00BF90F0000F04BF0021704730B54FF4806404F132044FF000054FF0000150E700BF90F0000F04BF0021704730B54FF4806404F132041F
:4017000010F0004548BF40424FF000013EE700BF42004FEAE2014FEA31014FEA02701FBF12F07F4393F07F4F81F06051704792F0000F14BF93F07F4F704730B54FF460740F
:4017400001F0004521F0004120E700BF50EA010208BF704730B54FF000050AE050EA010208BF704730B511F0004502D5404261EB41014FF4806404F132045FEA915C3FF4C5
:40178000DCAE4FF003025FEADC0C18BF03325FEADC0C18BF033202EBDC02C2F1200300FA03FC20FA02F001FA03FE40EA0E0021FA02F11444C1E600BF70B54FF0FF0C4CF48C
:4017C000E06C1CEA11541DBF1CEA135594EA0C0F95EA0C0F00F0DEF82C4481EA030621EA4C5123EA4C5350EA013518BF52EA033541F4801143F4801338D0A0FB02CE4FF0BA
:401800000005E1FB02E506F00042E0FB03E54FF00006E1FB03569CF0000F18BF4EF0010EA4F1FF04B6F5007F64F5407404D25FEA4E0E6D4146EB060642EAC62141EA555193
:401840004FEAC52040EA5E504FEACE2EB4F1FD0C88BFBCF5E06F1ED8BEF1004F08BF5FEA500E50F1000041EB045170BD06F0004646EA010140EA020081EA0301B4EB5C04EF
:40188000C2BFD4EB0C0541EA045170BD41F480114FF0000E013C00F3AB8014F1360FDEBF002001F0004170BDC4F10004203C35DA0C341BDC04F11404C4F1200500FA05F322
:4018C00020FA04F001FA05F240EA020001F0004221F0004110EBD37021FA04F642EB06015EEA430E08BF20EAD37070BDC4F10C04C4F1200500FA04F320FA05F001FA04F246
:4019000040EA020001F0004110EBD37041F100015EEA430E08BF20EAD37070BDC4F1200500FA05F24EEA020E20FA04F301FA05F243EA020321FA04F001F0004121FA04F264
:4019400020EA020000EBD3705EEA430E08BF20EAD37070BD94F0000F0FD101F00046400041EB010111F4801F08BF013CF7D041EA060195F0000F18BF704703F000465200ED
:4019800043EB030313F4801F08BF013DF7D043EA0603704794EA0C0F0CEA135518BF95EA0C0F0CD050EA410618BF52EA4306D1D181EA030101F000414FF0000070BD50EA8A
:4019C000410606BF1046194652EA430619D094EA0C0F02D150EA013613D195EA0C0F05D152EA03361CBF104619460AD181EA030101F0004141F0FE4141F470014FF00000B1
:401A000070BD41F0FE4141F4780170BD70B54FF0FF0C4CF4E06C1CEA11541DBF1CEA135594EA0C0F95EA0C0F00F0A7F8A4EB050481EA030E52EA03354FEA013100F08880D1
:401A40004FEA03334FF0805545EA131343EA12634FEA022245EA111545EA10654FEA00260EF000419D4208BF964244F1FD0404F5407402D25B084FEA3202B61A65EB0305CB
:401A80005B084FEA32024FF480104FF4002CB6EB020E75EB030E22BFB61A754640EA0C005B084FEA3202B6EB020E75EB030E22BFB61A754640EA5C005B084FEA3202B6EBFB
:401AC000020E75EB030E22BFB61A754640EA9C005B084FEA3202B6EB020E75EB030E22BFB61A754640EADC0055EA060E18D04FEA051545EA16754FEA06164FEAC30343EA06
:401B000052734FEAC2025FEA1C1CC0D111F4801F0BD141EA00014FF000004FF0004CB6E711F4801F04BF01430020B4F1FD0C88BFBCF5E06F3FF6AFAEB5EB030C04BFB6EB59
:401B4000020C5FEA500C50F1000041EB045170BD0EF0004E4EEA113114EB5C04C2BFD4EB0C0541EA045170BD41F480114FF0000E013C90E645EA060E8DE60CEA135594EA48
:401B80000C0F08BF95EA0C0F3FF43BAF94EA0C0F0AD150EA01347FF434AF95EA0C0F7FF425AF104619462CE795EA0C0F06D152EA03353FF4FDAE1046194622E750EA4106A8
:401BC00018BF52EA43067FF4C5AE50EA41047FF40DAF52EA43057FF4EBAE12E74FF0FF3C06E000BF4FF0010C02E000BF4FF0010C4DF804CD4FEA410C7FEA6C5C4FEA430CBF
:401C000018BF7FEA6C5C1BD001B050EA410C0CBF52EA430C91EA030F02BF90EA020F0020704710F1000F91EA030F58BF994208BF90422CBFD8176FEAE37040F001007047DD
:401C40004FEA410C7FEA6C5C02D150EA013C07D14FEA430C7FEA6C5CD6D152EA033CD3D05DF8040B704700BF8446104662468C461946634600E000BF01B5FFF7B7FF002868
:401C800048BF10F1000F01BD4DF808EDFFF7F4FF0CBF012000205DF808FB00BF4DF808EDFFF7EAFF34BF012000205DF808FB00BF4DF808EDFFF7E0FF94BF012000205DF8AD
:401CC00008FB00BF4DF808EDFFF7CEFF94BF012000205DF808FB00BF4DF808EDFFF7C4FF34BF012000205DF808FB00BF4FEA410212F5001215D211D56FF47873B3EB62523A
:401D000012D94FEAC12343F0004343EA505311F0004F23FA02F018BF404270474FF00000704750EA013005D111F0004008BF6FF0004070474FF00000704700BF4FEA410220
:401D4000B2F1E04324BFB3F5001CDCF1FE5C0DD901F0004C4FEAC0024CEA5070B2F1004F40EB830008BF20F00100704711F0804F21D113F13872BCBF01F00040704741F484
:401D800080114FEA5252C2F11802C2F1200C10FA0CF320FA02F018BF40F001004FEAC1234FEAD32303FA0CFC40EA0C0023FA02F34FEA4303CCE77FEA625307D150EA0133BD
:401DC0001EBF4FF0FE4040F44000704701F0004040F0FE4040F40000704700BF80F0004002E000BF81F0004142001FBF5FEA410392EA030F7FEA226C7FEA236C6AD04FEA75
:401E00001262D2EB1363C1BFD218414048404140B8BF5B42192B88BF704710F0004F40F4000020F07F4018BF404211F0004F41F4000121F07F4118BF494292EA030F3FD0B0
:401E4000A2F1010241FA03FC10EB0C00C3F1200301FA03F100F0004302D5494260EB4000B0F5000F13D3B0F1807F06D340084FEA310102F10102FE2A51D2B1F1004F40EB82
:401E8000C25008BF20F0010040EA03007047490040EB000010F4000FA2F10102EDD1B0FA80FCACF1080CB2EB0C0200FA0CF0AABF00EBC25052421843BCBFD040184370470F
:401EC00092F0000F81F4000106BF80F400000132013BB5E74FEA41037FEA226C18BF7FEA236C21D092EA030F04D092F0000F08BF0846704790EA010F1CBF0020704712F066
:401F00007F4F04D1400028BF40F00040704712F100723CBF00F50000704700F0004343F0FE4040F4000070477FEA226216BF08467FEA23630146420206BF5FEA412390EA8F
:401F4000010F40F4800070474FF0000304E000BF10F0004348BF40425FEA000C08BF704743F0964301464FF000001CE050EA010208BF70474FF000030AE000BF50EA0102F1
:401F800008BF704711F0004302D5404261EB41015FEA010C02BF84460146002043F0B64308BFA3F18053A3F50003BCFA8CF2083AA3EBC25310DB01FA02FC634400FA02FC9F
:401FC000C2F12002BCF1004F20FA02F243EB020008BF20F00100704702F1200201FA02FCC2F1200250EA4C0021FA02F243EB020008BF20EADC7070474FF0FF0C1CEAD05255
:402000001EBF1CEAD15392EA0C0F93EA0C0F6FD01A4480EA010C400218BF5FEA41211ED04FF0006343EA501043EA5111A0FB01310CF00040B1F5000F3EBF490041EAD37173
:402040005B0040EA010062F17F02FD2A1DD8B3F1004F40EBC25008BF20F00100704790F0000F0CF0004C08BF49024CEA502040EA51207F3AC2BFD2F1FF0340EAC25070470F
:4020800040F400004FF00003013A5DDC12F1190FDCBF00F000407047C2F10002410021FA02F1C2F1200200FA02FC5FEA310040F1000053EA4C0308BF20EADC70704792F02B
:4020C000000F00F0004C02BF400010F4000F013AF9D040EA0C0093F0000F01F0004C02BF490011F4000F013BF9D041EA0C018FE70CEAD15392EA0C0F18BF93EA0C0F0AD0AD
:4021000030F0004C18BF31F0004CD8D180EA010000F00040704790F0000F17BF90F0004F084691F0000F91F0004F14D092EA0C0F01D142020FD193EA0C0F03D14B0218BF11
:40214000084608D180EA010000F0004040F0FE4040F40000704740F0FE4040F4400070474FF0FF0C1CEAD0521EBF1CEAD15392EA0C0F93EA0C0F69D0A2EB030280EA010CC1
:4021800049024FEA402037D04FF0805343EA111143EA10130CF000408B4238BF5B0042F17D024FF4000C8B4224BF5B1A40EA0C00B3EB510F24BFA3EB510340EA5C00B3EBE5
:4021C000910F24BFA3EB910340EA9C00B3EBD10F24BFA3EBD10340EADC001B0118BF5FEA1C1CE0D1FD2A3FF650AF8B4240EBC25008BF20F0010070470CF0004C4CEA5020A4
:402200007F32C2BFD2F1FF0340EAC250704740F400004FF00003013A37E792F0000F00F0004C02BF400010F4000F013AF9D040EA0C0093F0000F01F0004C02BF490011F4EC
:40224000000F013BF9D041EA0C0195E70CEAD15392EA0C0F08D142027FF47DAF93EA0C0F7FF470AF084676E793EA0C0F04D14B023FF44CAF08466EE730F0004C18BF31F065
:40228000004CCAD130F000427FF45CAF31F000437FF43CAF5FE700BF4FF0FF3C06E000BF4FF0010C02E000BF4FF0010C4DF804CD4FEA40024FEA41037FEA226C18BF7FEAF3
:4022C000236C11D001B052EA530C18BF90EA010F58BFB2EB030088BFC81738BF6FEAE17018BF40F0010070477FEA226C02D15FEA402C05D17FEA236CE4D15FEA412CE1D01B
:402300005DF8040B704700BF844608466146FFE70FB5FFF7C9FF002848BF10F1000F0FBD4DF808EDFFF7F4FF0CBF012000205DF808FB00BF4DF808EDFFF7EAFF34BF01201E
:4023400000205DF808FB00BF4DF808EDFFF7E0FF94BF012000205DF808FB00BF4DF808EDFFF7D2FF94BF012000205DF808FB00BF4DF808EDFFF7C8FF34BF012000205DF840
:4023800008FB00BF4FEA4002B2F1FE4F0FD34FF09E03B3EB12620DD94FEA002343F0004310F0004F23FA02F018BF404270474FF00000704712F1610F01D1420205D110F0A1
:4023C000004008BF6FF0004070474FF000007047014B1868704700BF4481FF1F0E4B70B51E460E4C0025E41AA410A54204D056F8253098470135F8E701F0D6FD084B094C94
:402400001E46E41AA4100025A54204D056F8253098470135F8E770BDB43F0000B43F0000B43F0000BC3F000010B5431E0A44914204D011F8014B03F8014FF8E710BD03465E
:402440000244934202D003F8011BFAE770472DE9F04788B0149F002B1E461299B8BF03F1004327F02007B6BF1E4600232D23462F1446109DDDF84CA00B7003D0452F03D143
:40248000013501E0032300E0022307AA049206AA03928DE828042246334600F0B9FB472F804602D1119BDB0728D5462F08EB050911D198F80030302B0AD100220023204695
:4024C0003146FFF7E1FB18B9C5F10105CAF80050DAF8003099440022002320463146FFF7D3FB08B9302202E0CDF81C9006E0079B994503D9591C07911A70F8E74046079BE9
:40250000159AC8EB0303136008B0BDE8F087034673B50029B8BF494203F8022BB4BF2D222B22092942701ADD0DF1070216460A2591FBF5F405FB1411092C01F1300102F8C0
:40254000011D2146F4DC3031541E02F8011CB4421A460AD214F8012B03F8012BF7E71A463024214402F8024B5970101A02B070BD2DE9F04F91B00C46DDF8688016461F4615
:40258000054601F0DDF803681846099300F0AAFA00230E93D8F800300A90073323F0070303F1080294F81890D4F800B0C8F80020D3E90023C4E91223D4F84CA0D4F84880C1
:4025C0002AF000430B934FF0FF32A74B40460B9901F016FCA0B94FF0FF32A34B40460B99FFF766FB60B90022002340465146FFF755FB10B12D2384F843309C4B9C4A0AE0A1
:40260000424653464046514601F0FAFB002800F09281984B984AB9F1470F8CBF90469846032323612BF0040323604FF0000A3DE0B9F1670F00F08A81B9F1470F00F08681C0
:4026400023600193636800210DF13302059002920093424653460691CDF81090CDF80CE02846FFF7F4FE09F0DF03472B804600F08481B9F1650F0D9900F28D8101394A46AE
:4026800004F150000D91FFF742FF0E9A82468318012A236100F37C812268D10700F178819DF8333013B12D2384F84330009733460FAA2146284600F09FF9013002D14FF0A6
:4026C000FF3096E123685A0501D4236965E0B9F1650F40F2D580D4E9120100220023FFF7D3FA78B30123654A31462846B8470130E5D00E9B0D9A9A420BDB2368D80708D407
:4027000023689B0740F111814FF0000804F1190906E10A9B099A31462846B8470130CED04FF0000804F11A090E9B013B9845E7DA01234A4631462846B8470130BFD008F136
:402740000108F1E70D9B002B29DC01234B4A31462846B8470130B2D00D9B23B90E9B13B92368D907CCD50A9B099A31462846B8470130A4D04FF0000904F11A0A0D9B5B42D4
:40278000994509DA0123524631462846B847013095D009F10109F1E70E9B4246A7E00E9AA36D9A42A8BF1A46002A914606DC4FF0000A29EAE97904F11A0B11E013463146B7
:4027C00042462846B8470130F1D178E701235A4631462846B84701303FF471AF0AF1010AA36DC9EB03029245F0DB08EB03090D9A0E9B9A420FDB2368DA070CD40E9B0D9A44
:402800009844C9EB08089B1A9845A8BF9846B8F1000F08DC0FE00A9B099A31462846B8470130EBD14BE743464A4631462846B84701303FF444AF4FF0000928EAE87804F148
:402840001A0A09E00123524631462846B84701303FF435AF09F101090D9A0E9B9B1AC8EB03039945EEDB4BE7FFFFEF7F7E3E0000823E0000863E00008A3E00008E3E000088
:402880000E9A012A01DCDB0738D50123424631462846B84701303FF412AF0A9B099A31462846B84701303FF40AAFD4E9120100220023FFF7E9F920B14FF0000804F11A095E
:4028C0000EE00E9B08F10102013B19E001234A4631462846B84701303FF4F1AE08F101080E9B013B9845F1DB534604F1500231462846B84701307FF403AFE0E64246012359
:4029000031462846B8470130EED1D8E601234A4631462846B84701303FF4D1AE08F10108E3680F9A9B1A9845F0DBE0680F9B9842B8BF18465DE062680EA8531C0DF1340E2A
:402940004BF480637FF474AE062201E012B90122626075E6002106910DF133018DE80C00236005904246CDF81090CDF80CE0029153462846FFF76BFD80460D9BD81C02DB34
:40298000626893421DDDA9F102095FFA89F970E60133236184E6B9F1660F14D10029636807DD216113B92268D2071DD501330B4419E013B92268D00701D5023313E001233C
:4029C00011E04FF067090D9B0E9A934205DB22682361D10708D5013305E0002BD4BFC3F102030123134423610D9B4FF0000AA36556E611B0BDE8F08F2DE9F04791461F463D
:402A00000A698B6806469342B8BF1346C9F8003091F843200C46DDF8208012B10133C9F800302368990642BFD9F800300233C9F80030256815F0060510D104F1190A07E0E4
:402A40000123524639463046C04701301AD00135E368D9F800209B1A9D42F1DB94F843302268003318BF012392060FD5E118302081F843005A1C94F845102244023382F80D
:402A8000431003E04FF0FF30BDE8F08704F1430239463046C0470130F4D02268D9F80050E36802F00602042A08BF5D1B2269A3680CBF25EAE57500259342C4BF9B1AED18CD
:402AC0004FF000091A344D4509D00123224639463046C0470130D5D009F10109F3E70020BDE8F087034613F8012B002AFBD1181A013870472DE9F74F03690C6980469C42E4
:402B00007FDC013C01F114074FEA840E00F1140606EB0E0357F82450019356F824300135B3FBF5F507EB0E09C5B34FF0000A3846B446D34650F8043B9AB205FB02A21B0C58
:402B40004FEA124A05FB03A392B2C2EB0B0BBCF800204FEA134A5A441FFA83FBDCF800308145CBEB134303EB224392B242EA03424FEA234B4CF8042BDCD256F80E306BB91E
:402B8000019B043B9E421A4602D3C8F8104005E01268043B002AF8D1013CF3E7404600F0E8FF00282BDB304601354FF0000E57F8042B036891B2C1EB0E0E120C99B27144D7
:402BC000C2EB134303EB214389B24FEA234EB94541EA034340F8043BE9D256F8242006EB840362B9043B9E421A4602D3C8F8104005E01268043B002AF8D1013CF3E728465B
:402C000000E0002003B0BDE8F08F0000000000002DE9F04F456A95B08246219CCDE9022345B9102000F090FDCAF82400456085600560C560DAF82430196859B15A680123D8
:402C400093404A608B60504600F0BBFDDAF8243000221A60039BA04A002BBDBF01232360039B0023BCBF23F000430393DDF80C80A8BF236028F000431B0D1B0593421DD13D
:402C800042F20F73209A1360029B43B9934A944BC8F31300002814BF1846104600E09048229B002B00F04685C37813B100F1080300E0C31C229A136000F03CBDDDE9024525
:402CC0000022002320462946FEF7DEFF074658B1209A01231360229B002B00F01E8581481860013800F026BD12AB019313AB009322462B46504600F0B7FFC8F30A56049013
:402D000056B1C5F3130343F07F51204641F44011A6F2FF3611971DE0139B129E1E4406F23243202B0ADD029A06F21240C3F1400322FA00F008FA03F3184304E0C3F120000A
:402D4000029B03FA00F0FEF7C1FC0123A1F1F871013E11930022644BFEF77AFB58A3D3E90023FEF729FD58A3D3E90023FEF772FB044630460D46FEF7B9FC55A3D3E9002315
:402D8000FEF71AFD02460B4620462946FEF762FB04460D46FEF7AAFF00228346002320462946FEF77BFF58B15846FEF79FFC02460B4620462946FEF767FF08B90BF1FF3BC3
:402DC000BBF1160F0DD8DDE90223484901EBCB01D1E90001FEF780FF30B10BF1FF3B002300E00123109300E01090129B9E1B731E079343BFC3F10008002307934FF0000806
:402E0000BBF1000F06DB079BCDF82CB05B440793002705E00023CBEB0808CBF100070B931E9B092B28D8052BC4BF043B1E931E9BC8BF0025A3F10203D8BF0125032B20D8B3
:402E4000DFE803F0060E0204012302E0012308E000230A931F9B002B1DDD9946059321E000230A931F9B0BEB030909F10103012B0593B8BF012315E0012500231E930A95EE
:402E800001E001230A934FF0FF390022CDF8149012231F9206E04FF001094B46CDF81490CDF87C90DAF8244000226260042101F114029A421CD86268490001326260F6E792
:402EC00061436F63A787D23FB3C8608B288AC63FFB799F501344D33F0000F07F903E0000993E00008F3E00000000F83FA83E00006168504600F030FCDAF8243020601B6892
:402F00000693059B0E2B00F25B81002D00F05881DDE90234BBF1000FCDE90E3430DD9F4A0BF00F034FEA2B1502EBC303E80618CBCDE908340CD5DDE90E01994B05F00F0517
:402F4000D3E90823FEF762FD0324CDE9020100E00224934E6DB1E90708D5DDE90801D6E90023FEF729FCCDE9080101346D100836F0E7DDE90823DDE90201FEF747FD20E020
:402F8000CBF1000505B3DDE90E01844B05F00F0203EBC203D3E90023FEF70EFCCDE902017F4E2D110023022455B1EA0705D5D6E90023FEF701FC013401236D100836F3E7BD
:402FC0001BB1CDE9020100E00224109BE3B1DDE902560022734B28463146FEF75FFE98B1059B8BB1B9F1000F40F3E6800BF1FF330893314600226C4B2846FEF7DDFB0134D2
:40300000CDE902014E4602E0059ECDF820B02046FEF76CFBDDE90223FEF7CEFB634B0022FEF718FAA1F1507304460C931D46D6B9DDE9020100225E4BFEF70AFA22460C9B1B
:40304000CDE90201FEF748FE002840F03F820C99224601F10043DDE90201FEF71FFE002840F02B82A8E00A9A4C4B711E002A49D003EBC103D3E9002300204E49FEF7C6FC8D
:4030800022462B46FEF7E4F9CDE90C01069CDDE90201FEF72BFE0546FEF728FB02460B46DDE90201FEF7D4F9DDE90C23303504F8015BCDE90201FEF7F1FD002840F01D834C
:4030C000DDE9022300203749FEF7C2F9DDE90C23FEF7E4FD002840F0D180069BE31AB3426ADADDE90C0100222F4BFEF765FB0022CDE90C01DDE902012B4BFEF75DFBCDE95F
:403100000201C4E703EBC1012246D1E900012B46FEF752FB069BCDE90C011D469C19DDE90201FEF7E3FD0646FEF7E0FA02460B46DDE90201FEF78CF9303605F8016BAC428D
:40314000CDE902014FF0000222D11A4BDDE90C01FEF780F902460B46DDE90201FEF7BCFD002840F08B80DDE90C2300201149FEF76FF902460B46DDE90201FEF78FFDD8B111
:4031800014F8013C621E302B40F0B7821446F7E7054BFEF711FBCDE90201C0E7A83E0000803F00000000F03F0000244000001C40000014400000E03FDDE90E34CDE902349E
:4031C000139B002B7CDBBBF10E0F79DCAB4B03EBCB03D3E900671F9B002B14DA059B002B11DC40F06C810022A54B30463946FEF7E3FADDE90223FEF765FD059D2E460028AB
:4032000040F05F8165E1069CDDE9028932463B4640464946FEF7FAFBFEF768FD0546FEF765FA32463B46FEF7C7FA0B46024649464046FEF70DF905F1300E069B04F801EB3F
:40324000C3EB040E059B73452DD102460B46FEF701F98046894602460B4630463946FEF71DFD78B942464B4630463946FEF70CFD002800F04482EB0704D440E2DDF820B0D2
:4032800000E01C4614F8012C631E392A07D1069A9A42F6D1069930220BF1010B0A701A7801321A702BE20022764BFEF785FA0022002380468946FEF7E7FC0028A6D01EE21E
:4032C0000A9A002A2BD01E9A012A0ADC119A12B103F2334302E0129BC3F136033D46444613E0059B5D1EAF42BFBF0B9BEA1B9B180B93059BB6BF2F467D1B0025002BA7BF89
:403300004446059BC3EB08040023079A01211A4450469844079200F0F3FA064602E03D4644460A9E5CB1079B002B08DDA342A8BF2346079AC3EB0808E41AD31A0793002F13
:403340001DDD0A9BABB18DB131462A46504600F071FB049A01460646504600F0DAFA04990890504600F02DFA089B04937A1B06D000E03A460499504600F05CFB0490012199
:40338000504600F0BDFA0B9B05465BB31A460146504600F04FFB1E9B0546012B18DC029B83B9039BC3F3130373B9039B23F000473F0D3F054FB1079B08F1010801330793CD
:4033C000012702E0002700E0029F0B9B73B100E000272B6905EB8303186900F044FAC0F1200004E01E9B012BD9DD0B9F0120079B184410F01F0008D0C0F12003042B02DD9F
:40340000C0F11C0002E006D018461C30079B8044034404440793B8F1000F05DD42460499504600F055FB0490079B002B05DD29461A46504600F04CFB0546109B23B329461F
:40344000049800F096FB00281EDA00230A220499504600F0CDF90A9B0BF1FF3B0490002B00F05F81314600230A22504600F0C0F9B9F1000F06463FDC3BE000BFA83E000088
:403480000000144000002440059B002B2BDC1E9B022B28DDDDF81490B9F1000F11D129464B460522504600F0A3F901460546049800F05FFB00280CDC03E0354600E000254F
:4034C0002E461F9B069C6FEA030B09E03546DDF820B0069B069A5C1C312313700BF1010B05960026F7E00A9BDDF8149023B9069CB2E01E9B022BCFDC002C05DD31462246B0
:40350000504600F0E5FA06469FB17168504600F023F90446326906F10C01023292000C30FEF782FF01222146504600F0D1FA059000E00596029B069F03F001030793294681
:403540000498FFF7D7FA3146044600F13008049800F00FFB059A02902946504600F025FBC36802463BB901460A90049800F001FB0A9A034600E00123114650460A9300F0E7
:4035800020F90A9B53B91E9A42B9079A32B9B8F1390F2AD0029B002B1CDC1DE0029A002A04DB1BD11E9ACAB9079ABAB9002B13DD01220499504600F08BFA2946049000F0A1
:4035C000D8FA002803DC07D118F0010F04D0B8F1390F0AD004F131087C1C0CE0002B07F101040BDDB8F1390F03D139233B70013756E008F1010887F800806CE0069B27460C
:40360000E31A4B4504F8018C3BD000230A220499504600F0EDF8059B04909E424FF00A024FF000033146504604D100F0E1F80646059084E700F0DCF8002306460A2205997D
:40364000504600F0D5F8059079E700230A220499504600F0CDF8049029460498FFF74AFA069B00F1300804F8018BE31A4B45ECDB069B0596B9F1010FACBF4B4401331F46C3
:40368000002601220499504600F022FA2946049000F06FFA002803DC15D118F0010F12D03C4614F8013C621E392B09D1069B934204D10BF1010B3123069A02E01446F0E75C
:4036C0000133137007E03C4614F8013C621E302B01D11446F8E72946504600F072F8059B6BB12EB19E4203D03146504600F069F80599504600F065F801E0DDF820B00499CC
:40370000504600F05EF80023209A23700BF101031360229B1BB11C6001E008480AE0069808E0B9F1000F3FF7E2AE1E9B022B7FF7DEAEB1E615B0BDE8F08F00BF8E3E0000B2
:40374000004870474881FF1F024B0146186800F0E7BA00BF4481FF1F70B5456A04460E463DB91020FFF7F0FF6062456085600560C560656AEB6843B1636ADB6853F8260032
:4037800078B1026843F8262017E021220421204600F0B8FA636AE860DB68002BECD1002070BD012101FA06F56A1D9200204600F0A9FA0028F3D04660856000230361C360B7
:4037C00070BD70B5446A06460D463CB91020FFF7BBFF7062446084600460C4603DB1736A6A68DB6853F82210296043F8225070BD2DE9F04106460C460D691F4601F1140EDF
:403800000023DEF80000013381B202FB0171000C0F0C02FB007089B201EB00419D424FEA10474EF8041BECDCD7B1A3689D4212DB616830460131FFF78FFF8046226904F187
:403840000C01023292000C30FEF7EEFD21463046FFF7B7FF444604EB850301355F6125612046BDE8F081030C1B0413B90004102300E0002310F07F4F04BF0002083310F0D5
:40388000704F04BF0001043310F0404F04BF80000233002803DB420003D5581C70471846704720207047036813F007020BD0D90722D49A074BBF5B089B08036003604CBF46
:4038C00001200220704799B209B91B0C102213F0FF0F04BF1B0A0832190704BF1B090432990704BF9B080232D90702D45B0805D0013203601046704700207047202070475F
:4039000010B50C460121FFF727FF01224461026110BD2DE9F74F14460A69236988469A42BEBF0B46A0461C46D8F81070D4F81090D8F80830D8F8041007EB09069E42C8BFB5
:403940000131FFF709FF00F114052B4605EB860C0022634502D243F8042BFAE704F1140208F1140102EB890301EB87070093009B0192934257D9B2F800B0BBF1000F23D057
:403980008946AE464FF0000859F8044BBEF800A0A3B20BFB03A34FEA144ADEF8004043444FEA14480BFB0A84F24604EB13449BB243EA04434F454FEA14484AF8043B01D9E6
:4039C000D646E1E7CEF80480019B0432B3F802A0BAF1000F21D02C4689462B684FF00008B9F800E0B4F802B09BB20AFB0EBEA346F04443EA08434BF8043B59F8043BB4F854
:403A000004E01B0C0AFB03E34F4503EB18434FEA134801D95C46E3E763600435A7E75CF8043D13B9013E002EF9DC066103B0BDE8F08F00002DE9F843154612F0030206466F
:403A40000F4607D0214C013A002354F82220FFF7CFFE0746AD1036D0746A3CB91020FFF773FE7062446084600460C460D6F82480D8F808404CB940F271213046FFF740FFA4
:403A800004460023C8F8080003604FF00008EB070AD5394622463046FFF73BFF814639463046FFF78EFE4F466D100CD0206808B10446ECE7224621463046FFF72AFF20605B
:403AC000C0F80080F4E73846BDE8F883703F00002DE9F0470C460746914626694FEA621A56444968A368751CAB4202DA01315B00FAE73846FFF730FE002380461A4600F165
:403B00001401534503DA41F823200133F9E72AEAEA73206901EB830319F01F0904F1140101EB800E14D0C9F1200C002208689A4600FA09F0024343F8042B51F8042B8E4521
:403B400022FA0CF2F2D8CAF8042042B1B51C06E0043B51F8042B8E4543F8042FF9D8013D3846C8F810502146FFF72BFE4046BDE8F08703690A6910B59B1A11D192001430F3
:403B8000143183180A4453F8044D52F8041D8C4202D007D3012010BD9842F4D3002010BD184610BD4FF0FF3010BD2DE9F8430C460746114620461546FFF7DBFF061E08D19F
:403BC00031463846FFF7C8FD012303614661BDE8F883BCBF23462C4638466168BABF1D4601260026FFF7B8FD2B69C660266905F1140904F1140101EB860709EB830800F106
:403C000014054FF0000C51F8042B59F8044B93B29C44A3B2240CC3EB0C03C4EB124202EB23429BB24FEA224CC84543EA02428E4645F8042BE7D8BE450ED25EF8041B8AB247
:403C40006244131403EB114392B242EA03424FEA234C45F8042BEEE755F8043D0BB9013EFAE70661BDE8F8832DE9F3411C4601219046089E099DFFF76FFDC4F31302C4F3C9
:403C80000A5407460CB142F480120192B8F1000F19D002A840F8088DFFF705FE009B48B1019AC0F1200102FA01F10B43C2407B61019200E07B61019B002B14BF02210121E7
:403CC000BB61396107E001A8FFF7EDFD019B01217B613961203034B1A4F2334404443460C0F1350009E0A0F2324007EB810330601869FFF7B8FDC0EB41102860384602B093
:403D0000BDE8F08138B502FB01F4214600F008F8054618B122460021FEF791FB284638BD70B5CD1C25F0030508350C2D38BF0C25002D064601DBA94202D90C23336046E0EA
:403D400000F05CF8234B1C681A462146A1B10B685B1B0ED40B2B03D90B60CC18CD501EE08C420BBF63684B681360636018BF0C4615E00C464968E9E7174C23681BB9304638
:403D800000F02CF820602946304600F027F8431C18D0C41C24F00304A0420DD12560304600F02DF804F10B00231D20F00700C31A0ED05A42E25070BD211A304600F00EF8B5
:403DC0000130EBD10C233360304600F018F8002070BD00BFC481FF1FC081FF1F38B5064C0023054608462360FCF78CFF431C02D1236803B12B6038BDC881FF1F704770470E
:403E00004FEA410C7FEA6C5C02D150EA013C0AD14FEA430C7FEA6C5C02D152EA033C02D14FF0000070474FF00100704700000000205100405000C05100401000F0510040FC
:403E4000100000000140800600070140000980140140800700400140000A004C014000020050014020000000800601408C0500488000001401400C06004880004300494ECA
:403E80004600696E66004E414E006E616E003000496E66696E697479004E614E00504F534958002E00000000000000000000F03F0000000000002440000000000000594001
:403EC0000000000000408F40000000000088C34000000000006AF8400000000080842E4100000000D01263410000000084D797410000000065CDCD41000000205FA00242B7
:403F0000000000E876483742000000A2941A6D42000040E59C30A2420000901EC4BCD64200003426F56B0C430080E03779C3414300A0D8855734764300C84E676DC1AB430E
:403F4000003D9160E458E143408CB5781DAF154450EFE2D6E41A4B4492D54D06CFF08044F64AE1C7022DB544B49DD9794378EA4405000000190000007D000000000000009D
:403F80000080E03779C34143176E05B5B5B89346F5F93FE9034F384D321D30F94877825A3CBF737FDD4F1575F8B500BFF8BC08BC9E4670474D000000810D0000F8B500BFBC
:403FC000F8BC08BC9E46704729000000E03F0000C880FF1FB80000005000000000000000000000000000803FD081FF1F0000C05D80BB000030000000006CDC0200000000F8
:40400000000000000000000000000000000000000000000000000000000000007C3E00000000000000000000000000000000000000000000000000000000000000000000C6
:4040400000000000000000000000000000000000000000000000000000000000E480FF1FA33E0000A43E0000A43E0000A43E0000A43E0000A43E0000A43E0000A43E0000AF
:40408000A43E0000A43E0000FFFFFFFFFFFFFFFFFFFFFFFFFFFF0000000000000000000000000000000000000000000000000000000000000000000000000000000000004A
:4040C00000000000000000000000000000000000000000000000000000000000000000000000000000000000000000000000000000000000000000000000000000000000C0
:40410000000000000000000000000000000000000000000000000000000000000000000000000000000000000000000000000000000000000000000000000000000000007F
:40414000000000000000000000000000000000000000000000000000000000000000000000000000000000000000000000000000000000000000000000000000000000003F
:4041800000000000000000000000000000000000000000000000000000000000000000000000000000000000000000000000000000000000000000000000000000000000FF
:020000040003F7
:0200000480007A
:400000000152004003640040036500403700014017010140520201402B030140070501401D06014035070140211401403F1501405916014038170140361A01401B1B014088
:40004000094001400B4101400442014002430140024801400549014006500140025101400040810D830D870D850D87178B0D13011F013101405149FF4AFF4BFF4F015018D3
:40008000528059045A045B045C505D555F016040624064406540668068806A806C806E8092019E01B001BE01C051C5ECC602C807C9FFCAFFCBFFCD83CE03CF01D018D40175
:4000C000D804DA04DB04DD55DF01E040E240E440E540E680E880EA80EC80EE800C020D801E802102300231804180458048024C024D044F0155805D045E805F01700287014C
:40010000C290CC09D018D218D6D002011A013001401249FF4AFF4BFF4F015018528058045A045B045C035D335F016040624064406540668068806A806C806E80803282441D
:40014000840D850188028A0D8E808F0190809412966898D09A209B029C0D9F02A00DA431A642A80DAC0DAF01B102B20FB301B470B680BA28BE40BF05C012C5ECC620C80B02
:40018000C9FFCAFFCBFFCD83CE03CF01D018D401D804D904DA04DB04DD33DF01E040E240E440E540E680E880EA80EC80EE8000400104024003080740080109080A450D20C4
:4001C0001151121018041A041B881F012390280131203340384441204340452047404906512059065B806A40774087808F01A701AD02C01FC24FC40FCA08CC0CCE0AD03CF8
:40020000D60BE2409440955596019E50A508A701AF1014021601240226012803300136023E41404549FF4AFF4BFF4F015018540958045A045B045D015F01604062406440A5
:400240006540668068806A806C806E800080011409200A510D08114112081308152816101A401D401E8021212224235028102A523110328434103620395542804680490635
:400280004A024E02520259065B805C205E805F05654078407A029440955596019E50A508A701C007C22FC46FCA0FCC0ECE0FD081D218D6FBD8109E01AE01B001B601BE0101
:4002C000C054C5ECC720C823C9FFCAFFCBFFCD83CE03CF01D018D280D401D804DA04DB04DC02DD22DF01E040E240E440E540E680E880EA80EC80EE80004001140380090830
:400300000A450F02110112091308178018401B901E801F40214C22852A263299395541044220430244024501460148014A024D084E024F01550157035D085E805F016002C3
:4003400062206320740177808740915592659440958896089A079B08A228A680AC40AE04C00FC28FC48FCA07CC0FCE0FD081D218D6D0D80EE20140234106425049FF4AFF94
:400380004BFF4C024E704F0C500452805A045B045D105F0162C0644065016610671168C069016B116C406D016E406F0181A882018588872089A88F0891209388950D97123D
:4003C000990F9B309E019F40A1A8A520A701A905AB22AF40B001B140B303B53CB780B920BB0CBF41C026C103C240C5BEC6F0C7DCC83BC90FCAFFCBFFCC23CEB0CF0CD004BA
:40040000D602D728D804D904DA04DB04DC01DF01E2C0E440E501E610E711E8C0E901EB11EC40ED01EE40EF01010208401B0121382218238928282A86304031103204330191
:4004400039954008411542104528484049104A084B044E044F405225631069556A406B0172037502768085208640910293509440957D9611970598409C209D109EC29F887C
:40048000A440A508A688A701C008C201CA0FCC0FCE0FD067D234D802405149FF4AFF4BFF4F0150185A045D045F016040624064406540668068806A806C806E8083019E011F
:4004C000A201A301B001B701BE01C041C5ECC602C807C9FFCAFFCBFFCD83CE03CF01D018D280D401D804D904DA04DB04DC40DD44DF01E040E240E440E540E680E880EA8093
:40050000EC80EE800D8016401E8024012F803C0241804580464048014D044F01558057805D045E805F01740176408001C280C410CA80CE80D098D208D6D032103304350815
:4005400037803B108508CCF0CE10E6105E01630287018E10962097109F04AF80D6C0E610EA4097109F04AE01EA1097109F0497109F048304871097109F04E290002B0829D0
:400580000A0310171A071C1000FF010300440000054400000544000080002044D40020000702080D0015052A0500000405440000181021202807423800130520FF40000FBD
:4005C0000030000000000328000000004500000000EC002023FFFFFF00830301180000000100000004040404001100014000400040408000800080008000800000000000ED
:40060000000000000000000000000000000E08000102000C010E0000000CD002004001001C82607D001126AA01080012010E000084042808B06F4C9000000100FCE000074A
:40064000010002180002008000001000540000000000000000FFFFFF0000000118000000400000000404040400020001400040004040800080008000800080000000000090
:4006800000000000000000000000000000C0C000C0000000000B0B0000000000000000000000000000000000000000000000000000000000000000000000000000000000E4
:4006C00000000000000000000000000000000000000000000000000000000000000000000000000000000000000000000000000000000000000000000000000000000000FA
:4007000000000000000000000000000000000000000000000000000000000000000000000000000000000000000000000000000000000000000000000000000000000000B9
:400740000000000000000000000000000000000000000000000000000000000000000000000000000000000000000000000000000000000000000000000000000000000079
:400780000000000000000000000000000000000000000000000000000000000000000000000000000000000000000000000000000000000000000000000000000000000039
:0200000490006A
:0400000000004005B7
:0200000490105A
:04000000BC90ACAF55
:0200000490303A
:02000000DB68BB
:0200000490402A
:4000000000000000000000000000000000000000000000000000000000000000000000000000000000000000000000000000000000000000000000000000000000000000C0
:400040000000000000000000000000000000000000000000000000000000000000000000000000000000000000000000000000000000000000000000000000000000000080
:400080000000000000000000000000000000000000000000000000000000000000000000000000000000000000000000000000000000000000000000000000000000000040
:4000C0000000000000000000000000000000000000000000000000000000000000000000000000000000000000000000000000000000000000000000000000000000000000
:0200000490501A
:0C00000000012E16106900012E31EBD11A
:00000001FF