:400000000080002011000000E90C0000E90C000008B5044B1A6803F53F5302331A6000F083FE00BFFA46004010B5054C237833B9044B13B10448AFF300800123237010BD0C
:400040008881FF1F00000000D8410000084B10B51BB108490848AFF300800848036803B910BD074B002BFBD0BDE81040184700BF000000008C81FF1FD8410000C880FF1F50
:400080000000000000B5ADF6C45D62B601220DF5DC61142000F0BEFB02226946142000F0B9FB782000F0DAFB4FF496721421642000F01EF80DF5DC6000F034FCFEE700BF5C
:4000C00008B502F031F901464FF07E5002F034FA054902F07DF9054902F07AF902F03EFB80B200F097FE08BD00007A440000204138B50546144601EB8101480080B200F01A
:400100009BFF05EB8505680080B200F0EDFF04EB8404600080B201F095F838BD000000002DE9F04F83B08046894614461D460E9E0F9F0022764BDDE90C0101F0A3FF18B173
:400140000022734BCDE90C23002200232046294601F084FF58B1582303FB06F6BC19DDE90C0101F0AFFF6060B851A060C7E022462B46DDE90C0101F0F5FC04460D460022AA
:40018000644B4046494601F017FECDE9000100224FF0804301F0ACF900225F4B01F02EFB024621F0004300205B4901F027FB02460B462046294601F0D5FC8046894622467E
:4001C0002B46DDE90C0101F019FB82468B46DDE9000101F077FF042824D8DFE800F0032A0E151E0042464B46A046A94614461D4600220023CDE900231FE0CDE900894FF05C
:4002000000084FF0000918E0CDE9004544464D464FF000084FF000090FE0CDE90045002400250AE0CDE90089A046A9460024002503E000220023CDE9002352465B46404695
:40024000494601F0DDFA30A3D3E9002301F08AFC01F0FEF88046894652465B462046294601F0CEFA28A3D3E9002301F07BFC01F0EFF804460D4652465B46DDE9000101F043
:40028000BFFA21A3D3E9002301F06CFC01F0E0F8CDE90001002200234046494601F0D4FE18B14FF000084FF00009002200232046294601F0C9FE08B100240025002200237B
:4002C000DDE9000101F0C0FE18B100220023CDE90023582303FB06F607EB060A2046294601F0F0FECAF804004046494601F0EAFEB851DDE9000101F0E5FECAF8080003B0A1
:40030000BDE8F08FAFF300800000000000E06F400000E03F00004E400000F03F70B50646436C012B04D1012000F072FF00251BE0022B1CD1002000F06BFFF7E7582404FB5C
:400340000564208D00F0DAFDA08D00F0D7FD208E00F0D4FDA08E00F0D1FD208F00F0CEFDA08F00F0CBFD0135336C9D42E6DB70BD08B500F03BFD094B186808B1FFF7CEFF2C
:40038000642000F08BFD054B586808B1FFF7C6FF642000F083FD00F073FD08BDA481FF1FF0B591B0189D199C03940295DDE91667CDE90067FFF7B4FE582303FB05F3E5186D
:4003C000E1586868AA68002311E010F0800F06D0062610AC04EB830444F8306C05E0042610AC04EB830444F8306C40000133072BEBDD059B9B01049803EB4023069803EBF7
:40040000C00307980344AB62099B9B01089803EB40230A9803EBC0030B980344EB62002311E011F0800F06D0062410A800EB830040F8304C05E0042410A800EB830040F862
:40044000304C49000133072BEBDD059B9B01049903EB4123069903EBC10307990B442B63099B9B01089903EB41230A9903EBC1030B990B446B63002311E012F0800F06D0CC
:40048000062010A901EB830141F8300C05E0042010A901EB830141F8300C52000133072BEBDD059B9B01049A03EB4223069A03EBC203079A1344AB63099B9B01089A03EBFB
:4004C00042230A9A03EBC2030B9A1344EB6311B0F0BD00BF2DE9F04F85B08046894692469B46DDE90E45109F00260AE003970296CDE9004552465B4640464946FFF750FF59
:4005000001363B6C9E42F1DB05B0BDE8F08F00BFF0B585B0464B9B68002B40D1444B1B68DA6C012A10D1D3E90667D3E904450293404B186801F0C2FACDE9000132463B4660
:4005400020462946FFF7C6FF394B5B68DA6C012A10D1D3E90667D3E904450293354B186801F0ACFACDE9000132463B4620462946FFF7B0FF2F4C206801F0A0FA2AA3D3E9B7
:40058000002301F03BF901F0C5FD2060002102F0BDF8002845D00122254B9A6041E0012B3FD1234B1B68DA6C012A10D1D3E90667D3E9044502931F4B186801F07FFACDE9C1
:4005C000000132463B4620462946FFF783FF184B5B68DA6C012A10D1D3E90667D3E904450293144B186801F069FACDE9000132463B4620462946FFF76DFF0E4C206801F08C
:400600005DFA09A3D3E9002301F0FAF801F082FD20604FF07C5102F06FF810B10022044B9A6005B0F0BD00BF7B14AE47E17A843FA481FF1FCC80FF1F30B585B02B4BDB6831
:4006400013B1012B29D04FE0284B1B681A6D012A0CD1D3E90645D3E9040102930022244BCDE9002322462B46FFF734FF1F4B5B681A6D012A0CD1D3E90645D3E904010293FB
:4006800000221B4BCDE9002322462B46FFF722FF164AD3680133D36026E0144B1B681A6D012A0CD1D3E90645D3E90401029300220023CDE9002322462B46FFF70BFF0B4BC6
:4006C0005B681A6D012A0CD1D3E90645D3E90401029300220023CDE9002322462B46FFF7F9FE0022014BDA6005B030BDA481FF1F0000F03F2DE9F04385B0404B1A68936C21
:4007000023B93E494968896C002973D0012B08D1002000210292CDE9000102460B46FFF7D9FE364B5B689A6C012A08D1002000210293CDE9000102460B46FFF7CBFE2F4BA0
:400740001C6938E02D4B1B689A6C012A16D11D6CAC4201DB651B00E02546582202FB0532D2E90689D2E9040103930295D2E90867CDE9006742464B46FFF712FE1F4B5B6833
:400780009A6C012A16D11D6CAC4201DB651B00E02546582202FB0532D2E90689D2E9040103930295D2E90867CDE9006742464B46FFF7F6FD0134114B1A695B6913449C42C8
:4007C000C0DB0E4B1B684BB11B6C013B9A4201DA013200E00022094B1A610BE0074B5B6843B11B6C013B9A4201DA013200E00022024B1A6105B0BDE8F08300BFA481FF1FCE
:4008000010B5044600F0BAFD0023A364E364236510BD00BF30B585B00D46012A02D10E4B196001E00C4B596028646A642846FFF7E7FF00240AE00020002103950294CDE978
:40084000000102460B46FFF7ABFD01342B6C9C42F1DB05B030BD00BFA481FF1F38B50546164800F0C7FB164800F0C4FC154800F099FC154800F044FD144800F069FD144C4E
:400880002068FFF7BDFF6068FFF7BAFF0023636123614FF07C510F4A1160A360A361E36000F072FB00F0ECFA00F0FCFB00F052FC00F0FEFC2846FFF703FC38BD71030000EE
:4008C000F50600001105000039060000950A0000A481FF1FCC80FF1F2DE9F04790469946DDE90867DDE90A45DDF830A00C4B58615046FFF785FF0123CAF84830002209E0E2
:40090000582303FB02A3C3E90489C3E90667C3E908450132DAF840309A42F1DBBDE8F087A481FF1F00B587B004900022064BCDE90223CDE900230022044B0320FFF7CCFFD6
:4009400007B05DF804FB00BF0000F03F004050402DE9F04784B080468A46494B9B69052B00F28480DFE803F0030C2A435C7DFFF747FF5046FFF744FF00F04AFD00F0DCFCC0
:400980000026404F0024404DCDF808800FF2E809D9E90089CDE9008932463B4620462946FFF798FDCDF808A0CDE9008932463B4620462946FFF78EFD002058E00024314DBA
:4009C0000026324F0290CDE9004522462B4630463946FFF77FFDCDF808A0CDE9004522462B4630463946FFF775FD00203FE00024244D0026254F0290CDE9004522462B4611
:400A000030463946FFF766FDCDF808A0CDE9004522462B4630463946FFF75CFD002026E00024184D00261A4F0290CDE9004522462B4630463946FFF74DFDCDF808A0CDE9E7
:400A4000004522462B4630463946FFF743FD00F095FC00F077FC0A4A936901339361002005E00022064B9A61012000E0002004B0BDE8F087AFF300808FC2F5285C8FEA3FC9
:400A8000A481FF1F0000F03F000008400040504000005D4008B5044B9A6901329A6159681868FFF755FF08BDA481FF1FFEE700BFF0B40022174611E050F82760F3B226F0FD
:400AC000FF0608E001EB420511F812406D78A5550132013BDBB2002BF4D10137182FEBD9F0BC7047064B1B78DBB203F00701054A11701B09013213704422034B1A707047FF
:400B0000CF0100496E5800407658004008B50A46002101F080FE08BD38B50922274B1A801823274A137041F2BF2102321180023213700222234B1A7008224FF040231A70D2
:400B4000032203F500731A701F4B1B78DBB21F4A137010221E4B1A8041F25122023B1A80002419250CE01B4B1B7803F0010343EA440404F003044FF4F07000F059FC013D5F
:400B80000DB1032CEFD115B90320FFF78FFF124B4FF480721A8007221A7000220F490A704820023108701A700222033B1A700C4A137843F00303137038BD00BF8040004066
:400BC000824000400043004008010049A146004022420040254200400440004006400040A243004008B501F00BFE08BD38B572B6304A137843F00403137000240CE02E4D9F
:400C0000630019194A0011462A44084691882858FFF77CFF0134E4B2082CF0D900240BE02549A3001819420088188022C16B806BFFF7D8FF0134E4B2002CF1D01F494FF0D8
:400C40009040FFF735FF1E4A137843F0020313701032137843F0020313701A4C237843F040032370A2F58632513A137843F010031370082214491548FFF7B4FF08221449F8
:400C80001448FFF7AFFF144A137843F008031370124D61232B70FFF73FFFC1232B7001220F4B1A70FFF71EFF0E2221460D48FFF799FF38BDE8460040E04100006400004895
:400CC00003500140A04300405C060048025100406406004812510040224300400048004004000840B043004008B501F05DFD03680C2B00D1FEE7FEE708B5094B1A681044D3
:400D0000084BC31A802B02DC054B186005E001F04BFD0C2303604FF0FF32104608BD00BFD080FF1FD881FF1F08B5104E104D16E029686B68AC68002204E051F8040B43F8D4
:400D4000040B0432A242F8D1E868002203E0002143F8041B04328242F9D11035013E002EE6D101F027FDFFF78DF9FEE7010000009443000008B5104A104B1A60104A136875
:400D800043F40073136000230AE0032B03D80D4A52F8231000E00C490C4A42F8231001332F2BF2D90A4B1A780A4B1A70074A0A4B1A60FFF71BFF08BD0004FA050CED00E044
:400DC00014ED00E000000000E90C00000080FF1FBC760040C080FF1F08ED00E0024A137843F080031370704775650040024A137803F07F031370704775650040014B187085
:400E0000704700BF85650040014B1878704700BF65650040014B1880704700BF486A0040014B188880B27047886A0040014B1880704700BF086A004008B501E0FFF7F0FFD4
:400E4000FFF7E2FF10F0080FF8D108BD08B540F2E730FFF7DFFF40F2E730FFF7E7FF00F0EFFA064A137843F01003137000F0ECFAFFF7E2FF0120FFF7C1FF08BD95650040F7
:400E800008B5054B1B7823B9FFF7E0FF0122024B1A70FFF7A3FF08BDC081FF1F08B5034B1B7A00FB03F000F0C3FA08BDD480FF1F08B500F0C5FA0A4A137843F02003137095
:400EC000023A137843F010031370023A137843F01003137000F0B8FA00F064F808BD00BF94640040014B1878704700BF62640040014B1878704700BF60640040034B1B7899
:400F000013F0040FFAD0024B18807047626400404064004008B501E00E4B1B880E4B1B7813F0200FF8D100F08BFA0C4B1A7842F001021A701A7802F0FE021A7001331A78D9
:400F400042F001021A701A7802F0FE021A7000F07BFA08BD50640040606400409064004008B51722064B1A70FFF7D4FFFFF7BAFFFFF7BEFF0023034A1370023A137008BDDB
:400F8000846400408264004008B5054B1B7823B9FFF7E6FF0122024B1A70FFF789FF08BDC181FF1F054A137843F0010313701032137843F001031370704700BFA243004039
:400FC000014B1B689864704708ED00E04001C0B2014B1870704700BF02E400E00422014B1A60704700E100E00422014B1A60704780E100E010B50446FFF7F6FF2046FFF739
:40100000DFFF0220FFF7E2FFFFF7E8FF10BD00BF024A137843F080031370704777640040014B1870704700BF87640040014B1878704700BF67640040014B1880704700BF62
:401040004C680040014B188880B270478C680040014B1880704700BF0C68004008B501E0FFF7F0FFFFF7E2FF10F0080FF8D108BD08B542F20F70FFF7DFFF42F20F70FFF779
:40108000E7FF00F0DDF9064A137843F01003137000F0DAF9FFF7E2FF0120FFF7C1FF08BD9764004008B5054B1B7823B9FFF7E0FF0122024B1A70FFF7ABFF08BDC281FF1F5E
:4010C000024A137843F080031370704777650040014B1870704700BF87650040014B1878704700BF67650040014B1880704700BF4C6A0040014B188880B270478C6A0040DE
:40110000014B1880704700BF0C6A004008B501E0FFF7F0FFFFF7E2FF10F0080FF8D108BD08B542F20F70FFF7DFFF42F20F70FFF7E7FF00F085F9064A137843F010031370BB
:4011400000F082F9FFF7E2FF0120FFF7C1FF08BD9765004008B5054B1B7823B9FFF7E0FF0122024B1A70FFF7ABFF08BDC381FF1F014B1B685864704708ED00E04001C0B279
:40118000014B1870704700BF01E400E00222014B1A60704700E100E00222014B1A60704780E100E010B50446FFF7F6FF2046FFF7DFFF0720FFF7E2FFFFF7E8FF10BD00BF41
:4011C000014B1B68D864704708ED00E04001C0B2014B1870704700BF03E400E00822014B1A60704700E100E00822014B1A60704780E100E010B50446FFF7F6FF2046FFF7EE
:40120000DFFF0720FFF7E2FFFFF7E8FF10BD00BF014B1870704700BF73640040024A137843F08003137070477A650040014B1870704700BF8B650040014B1878704700BF56
:401240006B650040014B1880704700BF546A0040014B188880B27047946A0040014B1880704700BF146A004008B501E0FFF7F0FFFFF7E2FF10F0080FF8D108BD08B542F2EB
:401280000F70FFF7DFFF42F20F70FFF7E7FF00F0D7F8064A137843F01003137000F0D4F8FFF7E2FF0120FFF7C1FF08BD9B65004008B5054B1B7823B9FFF7E0FF0122024BB9
:4012C0001A70FFF7ABFF08BDC481FF1F014B1B681864704708ED00E04001C0B2014B1870704700BF00E400E00122014B1A60704700E100E00122014B1A60704780E100E0C2
:4013000010B50446FFF7F6FF2046FFF7DFFF0720FFF7E2FFFFF7E8FF10BD00BF014B1B681865704708ED00E04001C0B2014B1870704700BF04E400E01022014B1A607047C6
:4013400000E100E01022014B1A60704780E100E010B50446FFF7F6FF2046FFF7DFFF0720FFF7E2FFFFF7E8FF10BD00BF024A137843F080031370704775640040024A13786A
:4013800003F07F031370704775640040014B1870704700BF85640040014B1878704700BF65640040014B1880704700BF48680040014B188880B2704788680040014B188064
:4013C000704700BF0868004008B501E0FFF7F0FFFFF7E2FF10F0080FF8D108BD08B542F20F70FFF7DFFF42F20F70FFF7E7FF00F027F8064A137843F01003137000F024F836
:40140000FFF7E2FF0120FFF7C1FF08BD9564004008B5054B1B7823B9FFF7E0FF0122024B1A70FFF7A3FF08BDC581FF1F000000000230800803D000BF01380046FCD17047A5
:40144000EFF3108072B6704780F31088704700BFF8B5C1F30A56A6F2FF35132D0A460B460446864611DC002D2EDB0F461F4929410A4225D04FF400232B413B4423EA010329
:401480000026194634462046F8BD332D05DDB5F5806F1FD011462046F8BDA6F213464FF0FF3121FA06F63042F4D00122C5F1330502FA05F52D1828BF9B1825EA0606E0E761
:4014C0000028D7D11146E6E7013501F0004307D00026D6E702460B4600F092F90446D2E743F07F5343F440130026CAE7FFFF0F002DE9F04F8BB01D4680468946144600F078
:4015000059F82A4B064693F900A00F46BAF1FF3F2FD022462B462046294600F0BDFD40BB42464B464046494600F0B6FD834600BB002200232046294600F07CFDC8B11C4A26
:401540000123CDE90289CDE90445CDF820B001920093BAF1000F11D1CDE90689684600F047F9B0B1089BDBB9DDE906010BB0BDE8F08F304639460BB0BDE8F08F0022002330
:401580001046194600F018FCBAF1020FCDE90601E4D101F009F921230360089B002BE3D001F002F9089B0360DEE700BFE480FF1F244200002DE9F84F23F0004952EA0906C7
:4015C00020D001F00046834F81EA0608B84519DC57421743DFF814B249EAD7775F45944610D8C8451D4682460446964612DC0FDB90420DD30ED1784BF60F03EBC60393E84F
:40160000030005E000F0AEFA02460B4600F0D4FBBDE8F88FB8F5801F0EDAB8F1000F40F09C80BAF1000F53466C4909DD5B00002B01F1FF31FADC03E04FEA2851A1F2FF31AA
:40164000B9F5801F0EDAB9F1000F40F09F80BCF1000F6346614F09DD5B00002B07F1FF37FADC03E04FEA2957A7F2FF375C4B994256DBC8F3130343F48013594A97425EDB3A
:40168000C5F3130545F48015C91B07E052EA000313D0C30F03EB420344000139CEEB04005A1B89B1744538BF02F1FF32002AEDDAE20F02EB43036400EFE7474BF60F03EB08
:4016C000C60696E80300A3E71546744538BF02F1FF35002DB4BF1D46CEEB040455EA0403EBD0404A954208DCE30F03EB4505954207F1FF374FEA4404F6DD394B9F424EDAC7
:40170000374AD21B142A54DCC2F12003D44005FA03F3234345FA02F242EA0601184677E72F4C641A1F2C2BDCC4F1200308FA04F82AFA03F343EA08030AFA04F49DE7284803
:40174000C01B1F2815DCC0F1200209FA00F52CFA02F215430CFA00FE96E74FEAC823002B1F497FF76DAF5B00002B01F1FF31FADC66E71D4D4FF0000EED1B0CFA05F583E75B
:40178000194B00245B1A0AFA03F376E7144F4FEAC9235B00002B07F1FF37FADC66E7A5F580152E4307F2FF3746EA0753204619462EE71F2A07DCC2F12003D4409D4045EA21
:4017C00004033246A8E7084B3246DB1B45FA03F3A2E700BFFFFFEF7F30420000EDFBFFFF02FCFFFFFFFF0F00E2FBFFFF0000F07F0020704781F0004102E000BF83F00043A6
:4018000030B54FEA41044FEA430594EA050F08BF90EA020F1FBF54EA000C55EA020C7FEA645C7FEA655C00F0E2804FEA5454D4EB5555B8BF6D420CDD2C4480EA020281EA24
:40184000030382EA000083EA010180EA020281EA0303362D88BF30BD11F0004F4FEA01314FF4801C4CEA113102D0404261EB410113F0004F4FEA03334CEA133302D052427A
:4018800063EB430394EA050F00F0A780A4F10104D5F1200E0DDB02FA0EFC22FA05F2801841F1000103FA0EF2801843FA05F359410EE0A5F120050EF1200E012A03FA0EFC25
:4018C00028BF4CF0020C43FA05F3C01851EBE37101F0004507D54FF0000EDCF1000C7EEB00006EEB0101B1F5801F1BD3B1F5001F0CD349085FEA30004FEA3C0C04F1010402
:401900004FEA445212F5800F80F09A80BCF1004F08BF5FEA500C50F1000041EB045141EA050130BD5FEA4C0C404141EB010111F4801FA4F10104E9D191F0000F04BF01468E
:401940000020B1FA81F308BF2033A3F10B03B3F120020CDA0C3208DD02F1140CC2F10C0201FA0CF021FA02F10CE002F11402D8BFC2F1200C01FA02F120FA0CFCDCBF41EA83
:401980000C019040E41AA2BF01EB0451294330BD6FEA04041F3C1CDA0C340EDC04F11404C4F1200220FA04F001FA02F340EA030021FA04F345EA030130BDC4F10C04C4F1BA
:4019C000200220FA02F001FA04F340EA0300294630BD21FA04F0294630BD94F0000F83F4801306BF81F480110134013D4EE77FEA645C18BF7FEA655C29D094EA050F08BF47
:401A000090EA020F05D054EA000C04BF1946104630BD91EA030F1EBF0021002030BD5FEA545C05D14000494128BF41F0004130BD14F580043CBF01F5801130BD01F00045EE
:401A400045F0FE4141F470014FF0000030BD7FEA645C1ABF194610467FEA655C1CBF0B46024650EA013406BF52EA033591EA030F41F4002130BD00BF90F0000F04BF002121
:401A8000704730B54FF4806404F132044FF000054FF0000150E700BF90F0000F04BF0021704730B54FF4806404F1320410F0004548BF40424FF000013EE700BF42004FEAF0
:401AC000E2014FEA31014FEA02701FBF12F07F4393F07F4F81F06051704792F0000F14BF93F07F4F704730B54FF4607401F0004521F0004120E700BF50EA010208BF7047B0
:401B000030B54FF000050AE050EA010208BF704730B511F0004502D5404261EB41014FF4806404F132045FEA915C3FF4DCAE4FF003025FEADC0C18BF03325FEADC0C18BFF7
:401B4000033202EBDC02C2F1200300FA03FC20FA02F001FA03FE40EA0E0021FA02F11444C1E600BF70B54FF0FF0C4CF4E06C1CEA11541DBF1CEA135594EA0C0F95EA0C0FA7
:401B800000F0DEF82C4481EA030621EA4C5123EA4C5350EA013518BF52EA033541F4801143F4801338D0A0FB02CE4FF00005E1FB02E506F00042E0FB03E54FF00006E1FB46
:401BC00003569CF0000F18BF4EF0010EA4F1FF04B6F5007F64F5407404D25FEA4E0E6D4146EB060642EAC62141EA55514FEAC52040EA5E504FEACE2EB4F1FD0C88BFBCF5E3
:401C0000E06F1ED8BEF1004F08BF5FEA500E50F1000041EB045170BD06F0004646EA010140EA020081EA0301B4EB5C04C2BFD4EB0C0541EA045170BD41F480114FF0000EEB
:401C4000013C00F3AB8014F1360FDEBF002001F0004170BDC4F10004203C35DA0C341BDC04F11404C4F1200500FA05F320FA04F001FA05F240EA020001F0004221F00041BE
:401C800010EBD37021FA04F642EB06015EEA430E08BF20EAD37070BDC4F10C04C4F1200500FA04F320FA05F001FA04F240EA020001F0004110EBD37041F100015EEA430ECB
:401CC00008BF20EAD37070BDC4F1200500FA05F24EEA020E20FA04F301FA05F243EA020321FA04F001F0004121FA04F220EA020000EBD3705EEA430E08BF20EAD37070BDF5
:401D000094F0000F0FD101F00046400041EB010111F4801F08BF013CF7D041EA060195F0000F18BF704703F00046520043EB030313F4801F08BF013DF7D043EA06037047AA
:401D400094EA0C0F0CEA135518BF95EA0C0F0CD050EA410618BF52EA4306D1D181EA030101F000414FF0000070BD50EA410606BF1046194652EA430619D094EA0C0F02D1BE
:401D800050EA013613D195EA0C0F05D152EA03361CBF104619460AD181EA030101F0004141F0FE4141F470014FF0000070BD41F0FE4141F4780170BD70B54FF0FF0C4CF461
:401DC000E06C1CEA11541DBF1CEA135594EA0C0F95EA0C0F00F0A7F8A4EB050481EA030E52EA03354FEA013100F088804FEA03334FF0805545EA131343EA12634FEA02225E
:401E000045EA111545EA10654FEA00260EF000419D4208BF964244F1FD0404F5407402D25B084FEA3202B61A65EB03055B084FEA32024FF480104FF4002CB6EB020E75EBBB
:401E4000030E22BFB61A754640EA0C005B084FEA3202B6EB020E75EB030E22BFB61A754640EA5C005B084FEA3202B6EB020E75EB030E22BFB61A754640EA9C005B084FEA0B
:401E80003202B6EB020E75EB030E22BFB61A754640EADC0055EA060E18D04FEA051545EA16754FEA06164FEAC30343EA52734FEAC2025FEA1C1CC0D111F4801F0BD141EA12
:401EC00000014FF000004FF0004CB6E711F4801F04BF01430020B4F1FD0C88BFBCF5E06F3FF6AFAEB5EB030C04BFB6EB020C5FEA500C50F1000041EB045170BD0EF0004E27
:401F00004EEA113114EB5C04C2BFD4EB0C0541EA045170BD41F480114FF0000E013C90E645EA060E8DE60CEA135594EA0C0F08BF95EA0C0F3FF43BAF94EA0C0F0AD150EA2B
:401F400001347FF434AF95EA0C0F7FF425AF104619462CE795EA0C0F06D152EA03353FF4FDAE1046194622E750EA410618BF52EA43067FF4C5AE50EA41047FF40DAF52EAFF
:401F800043057FF4EBAE12E74FF0FF3C06E000BF4FF0010C02E000BF4FF0010C4DF804CD4FEA410C7FEA6C5C4FEA430C18BF7FEA6C5C1BD001B050EA410C0CBF52EA430CA6
:401FC00091EA030F02BF90EA020F0020704710F1000F91EA030F58BF994208BF90422CBFD8176FEAE37040F0010070474FEA410C7FEA6C5C02D150EA013C07D14FEA430C3A
:402000007FEA6C5CD6D152EA033CD3D05DF8040B704700BF8446104662468C461946634600E000BF01B5FFF7B7FF002848BF10F1000F01BD4DF808EDFFF7F4FF0CBF012021
:4020400000205DF808FB00BF4DF808EDFFF7EAFF34BF012000205DF808FB00BF4DF808EDFFF7E0FF94BF012000205DF808FB00BF4DF808EDFFF7CEFF94BF012000205DF825
:4020800008FB00BF4DF808EDFFF7C4FF34BF012000205DF808FB00BF4FEA410C7FEA6C5C02D150EA013C0AD14FEA430C7FEA6C5C02D152EA033C02D14FF0000070474FF035
:4020C000010070474FEA410212F5001215D211D56FF47873B3EB625212D94FEAC12343F0004343EA505311F0004F23FA02F018BF404270474FF00000704750EA013005D132
:4021000011F0004008BF6FF0004070474FF00000704700BF4FEA4102B2F1E04324BFB3F5001CDCF1FE5C0DD901F0004C4FEAC0024CEA5070B2F1004F40EB830008BF20F0F1
:402140000100704711F0804F21D113F13872BCBF01F00040704741F480114FEA5252C2F11802C2F1200C10FA0CF320FA02F018BF40F001004FEAC1234FEAD32303FA0CFC17
:4021800040EA0C0023FA02F34FEA4303CCE77FEA625307D150EA01331EBF4FF0FE4040F44000704701F0004040F0FE4040F40000704700BF80F0004002E000BF81F0004170
:4021C00042001FBF5FEA410392EA030F7FEA226C7FEA236C6AD04FEA1262D2EB1363C1BFD218414048404140B8BF5B42192B88BF704710F0004F40F4000020F07F4018BF28
:40220000404211F0004F41F4000121F07F4118BF494292EA030F3FD0A2F1010241FA03FC10EB0C00C3F1200301FA03F100F0004302D5494260EB4000B0F5000F13D3B0F1CE
:40224000807F06D340084FEA310102F10102FE2A51D2B1F1004F40EBC25008BF20F0010040EA03007047490040EB000010F4000FA2F10102EDD1B0FA80FCACF1080CB2EB59
:402280000C0200FA0CF0AABF00EBC25052421843BCBFD0401843704792F0000F81F4000106BF80F400000132013BB5E74FEA41037FEA226C18BF7FEA236C21D092EA030F1B
:4022C00004D092F0000F08BF0846704790EA010F1CBF0020704712F07F4F04D1400028BF40F00040704712F100723CBF00F50000704700F0004343F0FE4040F400007047D3
:402300007FEA226216BF08467FEA23630146420206BF5FEA412390EA010F40F4800070474FF0000304E000BF10F0004348BF40425FEA000C08BF704743F0964301464FF096
:4023400000001CE050EA010208BF70474FF000030AE000BF50EA010208BF704711F0004302D5404261EB41015FEA010C02BF84460146002043F0B64308BFA3F18053A3F59B
:402380000003BCFA8CF2083AA3EBC25310DB01FA02FC634400FA02FCC2F12002BCF1004F20FA02F243EB020008BF20F00100704702F1200201FA02FCC2F1200250EA4C0077
:4023C00021FA02F243EB020008BF20EADC7070474FF0FF0C1CEAD0521EBF1CEAD15392EA0C0F93EA0C0F6FD01A4480EA010C400218BF5FEA41211ED04FF0006343EA50102D
:4024000043EA5111A0FB01310CF00040B1F5000F3EBF490041EAD3715B0040EA010062F17F02FD2A1DD8B3F1004F40EBC25008BF20F00100704790F0000F0CF0004C08BFC7
:4024400049024CEA502040EA51207F3AC2BFD2F1FF0340EAC250704740F400004FF00003013A5DDC12F1190FDCBF00F000407047C2F10002410021FA02F1C2F1200200FA74
:4024800002FC5FEA310040F1000053EA4C0308BF20EADC70704792F0000F00F0004C02BF400010F4000F013AF9D040EA0C0093F0000F01F0004C02BF490011F4000F013BCF
:4024C000F9D041EA0C018FE70CEAD15392EA0C0F18BF93EA0C0F0AD030F0004C18BF31F0004CD8D180EA010000F00040704790F0000F17BF90F0004F084691F0000F91F02D
:40250000004F14D092EA0C0F01D142020FD193EA0C0F03D14B0218BF084608D180EA010000F0004040F0FE4040F40000704740F0FE4040F4400070474FF0FF0C1CEAD05225
:402540001EBF1CEAD15392EA0C0F93EA0C0F69D0A2EB030280EA010C49024FEA402037D04FF0805343EA111143EA10130CF000408B4238BF5B0042F17D024FF4000C8B421E
:4025800024BF5B1A40EA0C00B3EB510F24BFA3EB510340EA5C00B3EB910F24BFA3EB910340EA9C00B3EBD10F24BFA3EBD10340EADC001B0118BF5FEA1C1CE0D1FD2A3FF6F1
:4025C00050AF8B4240EBC25008BF20F0010070470CF0004C4CEA50207F32C2BFD2F1FF0340EAC250704740F400004FF00003013A37E792F0000F00F0004C02BF400010F4CA
:40260000000F013AF9D040EA0C0093F0000F01F0004C02BF490011F4000F013BF9D041EA0C0195E70CEAD15392EA0C0F08D142027FF47DAF93EA0C0F7FF470AF084676E769
:4026400093EA0C0F04D14B023FF44CAF08466EE730F0004C18BF31F0004CCAD130F000427FF45CAF31F000437FF43CAF5FE700BF4FF0FF3C06E000BF4FF0010C02E000BFD1
:402680004FF0010C4DF804CD4FEA40024FEA41037FEA226C18BF7FEA236C11D001B052EA530C18BF90EA010F58BFB2EB030088BFC81738BF6FEAE17018BF40F0010070472F
:4026C0007FEA226C02D15FEA402C05D17FEA236CE4D15FEA412CE1D05DF8040B704700BF844608466146FFE70FB5FFF7C9FF002848BF10F1000F0FBD4DF808EDFFF7F4FF42
:402700000CBF012000205DF808FB00BF4DF808EDFFF7EAFF34BF012000205DF808FB00BF4DF808EDFFF7E0FF94BF012000205DF808FB00BF4DF808EDFFF7D2FF94BF0120E3
:4027400000205DF808FB00BF4DF808EDFFF7C8FF34BF012000205DF808FB00BF4FEA4002B2F1FE4F0FD34FF09E03B3EB12620DD94FEA002343F0004310F0004F23FA02F08B
:4027800018BF404270474FF00000704712F1610F01D1420205D110F0004008BF6FF0004070474FF000007047014B1868704700BF4881FF1F0E4B70B51E460E4C0025E41AD9
:4027C000A410A54204D056F8253098470135F8E701F0CEFD084B094C1E46E41AA4100025A54204D056F8253098470135F8E770BD7C4300007C4300007C43000084430000B1
:4028000010B5431E0A44914204D011F8014B03F8014FF8E710BD03460244934202D003F8011BFAE770472DE9F04788B0149F002B1E461299B8BF03F1004327F02007B6BF79
:402840001E4600232D23462F1446109DDDF84CA00B7003D0452F03D1013501E0032300E0022307AA049206AA03928DE828042246334600F0B9FB472F804602D1119BDB071D
:4028800028D5462F08EB050911D198F80030302B0AD10022002320463146FFF7CBFB18B9C5F10105CAF80050DAF8003099440022002320463146FFF7BDFB08B9302202E0AC
:4028C000CDF81C9006E0079B994503D9591C07911A70F8E74046079B159AC8EB0303136008B0BDE8F087034673B50029B8BF494203F8022BB4BF2D222B22092942701ADD2A
:402900000DF1070216460A2591FBF5F405FB1411092C01F1300102F8011D2146F4DC3031541E02F8011CB4421A460AD214F8012B03F8012BF7E71A463024214402F8024B0B
:402940005970101A02B070BD2DE9F04F91B00C46DDF8688016461F46054601F0DDF803681846099300F0AAFA00230E93D8F800300A90073323F0070303F1080294F818902E
:40298000D4F800B0C8F80020D3E90023C4E91223D4F84CA0D4F848802AF000430B934FF0FF32A74B40460B99FFF776FBA0B94FF0FF32A34B40460B99FFF750FB60B9002263
:4029C000002340465146FFF73FFB10B12D2384F843309C4B9C4A0AE04246534640465146FFF75AFB002800F09281984B984AB9F1470F8CBF90469846032323612BF004036C
:402A000023604FF0000A3DE0B9F1670F00F08A81B9F1470F00F0868123600193636800210DF13302059002920093424653460691CDF81090CDF80CE02846FFF7F4FE09F08C
:402A4000DF03472B804600F08481B9F1650F0D9900F28D8101394A4604F150000D91FFF742FF0E9A82468318012A236100F37C812268D10700F178819DF8333013B12D239D
:402A800084F84330009733460FAA2146284600F09FF9013002D14FF0FF3096E123685A0501D4236965E0B9F1650F40F2D580D4E9120100220023FFF7BDFA78B30123654A23
:402AC00031462846B8470130E5D00E9B0D9A9A420BDB2368D80708D423689B0740F111814FF0000804F1190906E10A9B099A31462846B8470130CED04FF0000804F11A0925
:402B00000E9B013B9845E7DA01234A4631462846B8470130BFD008F10108F1E70D9B002B29DC01234B4A31462846B8470130B2D00D9B23B90E9B13B92368D907CCD50A9B0E
:402B4000099A31462846B8470130A4D04FF0000904F11A0A0D9B5B42994509DA0123524631462846B847013095D009F10109F1E70E9B4246A7E00E9AA36D9A42A8BF1A469D
:402B8000002A914606DC4FF0000A29EAE97904F11A0B11E01346314642462846B8470130F1D178E701235A4631462846B84701303FF471AF0AF1010AA36DC9EB0302924580
:402BC000F0DB08EB03090D9A0E9B9A420FDB2368DA070CD40E9B0D9A9844C9EB08089B1A9845A8BF9846B8F1000F08DC0FE00A9B099A31462846B8470130EBD14BE7434683
:402C00004A4631462846B84701303FF444AF4FF0000928EAE87804F11A0A09E00123524631462846B84701303FF435AF09F101090D9A0E9B9B1AC8EB03039945EEDB4BE78A
:402C4000FFFFEF7F42420000464200004A4200004E420000524200000E9A012A01DCDB0738D50123424631462846B84701303FF412AF0A9B099A31462846B84701303FF448
:402C80000AAFD4E9120100220023FFF7D3F920B14FF0000804F11A090EE00E9B08F10102013B19E001234A4631462846B84701303FF4F1AE08F101080E9B013B9845F1DB61
:402CC000534604F1500231462846B84701307FF403AFE0E64246012331462846B8470130EED1D8E601234A4631462846B84701303FF4D1AE08F10108E3680F9A9B1A9845B3
:402D0000F0DBE0680F9B9842B8BF18465DE062680EA8531C0DF1340E4BF480637FF474AE062201E012B90122626075E6002106910DF133018DE80C00236005904246CDF820
:402D40001090CDF80CE0029153462846FFF76BFD80460D9BD81C02DB626893421DDDA9F102095FFA89F970E60133236184E6B9F1660F14D10029636807DD216113B9226886
:402D8000D2071DD501330B4419E013B92268D00701D5023313E0012311E04FF067090D9B0E9A934205DB22682361D10708D5013305E0002BD4BFC3F1020301231344236186
:402DC0000D9B4FF0000AA36556E611B0BDE8F08F2DE9F04791461F460A698B6806469342B8BF1346C9F8003091F843200C46DDF8208012B10133C9F800302368990642BF22
:402E0000D9F800300233C9F80030256815F0060510D104F1190A07E00123524639463046C04701301AD00135E368D9F800209B1A9D42F1DB94F843302268003318BF012392
:402E400092060FD5E118302081F843005A1C94F845102244023382F8431003E04FF0FF30BDE8F08704F1430239463046C0470130F4D02268D9F80050E36802F00602042A5C
:402E800008BF5D1B2269A3680CBF25EAE57500259342C4BF9B1AED184FF000091A344D4509D00123224639463046C0470130D5D009F10109F3E70020BDE8F087034613F805
:402EC000012B002AFBD1181A013870472DE9F74F03690C6980469C427FDC013C01F114074FEA840E00F1140606EB0E0357F82450019356F824300135B3FBF5F507EB0E0960
:402F0000C5B34FF0000A3846B446D34650F8043B9AB205FB02A21B0C4FEA124A05FB03A392B2C2EB0B0BBCF800204FEA134A5A441FFA83FBDCF800308145CBEB134303EBFC
:402F4000224392B242EA03424FEA234B4CF8042BDCD256F80E306BB9019B043B9E421A4602D3C8F8104005E01268043B002AF8D1013CF3E7404600F0E8FF00282BDB304616
:402F800001354FF0000E57F8042B036891B2C1EB0E0E120C99B27144C2EB134303EB214389B24FEA234EB94541EA034340F8043BE9D256F8242006EB840362B9043B9E425D
:402FC0001A4602D3C8F8104005E01268043B002AF8D1013CF3E7284600E0002003B0BDE8F08F0000000000002DE9F04F456A95B08246219CCDE9022345B9102000F090FD4B
:40300000CAF82400456085600560C560DAF82430196859B15A68012393404A608B60504600F0BBFDDAF8243000221A60039BA04A002BBDBF01232360039B0023BCBF23F072
:4030400000430393DDF80C80A8BF236028F000431B0D1B0593421DD142F20F73209A1360029B43B9934A944BC8F31300002814BF1846104600E09048229B002B00F04685B6
:40308000C37813B100F1080300E0C31C229A136000F03CBDDDE902450022002320462946FEF7C8FF074658B1209A01231360229B002B00F01E8581481860013800F026BDEC
:4030C00012AB019313AB009322462B46504600F0B7FFC8F30A56049056B1C5F3130343F07F51204641F44011A6F2FF3611971DE0139B129E1E4406F23243202B0ADD029A39
:4031000006F21240C3F1400322FA00F008FA03F3184304E0C3F12000029B03FA00F0FEF7ABFC0123A1F1F871013E11930022644BFEF764FB58A3D3E90023FEF713FD58A310
:40314000D3E90023FEF75CFB044630460D46FEF7A3FC55A3D3E90023FEF704FD02460B4620462946FEF74CFB04460D46FEF7AAFF00228346002320462946FEF765FF58B186
:403180005846FEF789FC02460B4620462946FEF751FF08B90BF1FF3BBBF1160F0DD8DDE90223484901EBCB01D1E90001FEF76AFF30B10BF1FF3B002300E00123109300E089
:4031C0001090129B9E1B731E079343BFC3F10008002307934FF00008BBF1000F06DB079BCDF82CB05B440793002705E00023CBEB0808CBF100070B931E9B092B28D8052B51
:40320000C4BF043B1E931E9BC8BF0025A3F10203D8BF0125032B20D8DFE803F0060E0204012302E0012308E000230A931F9B002B1DDD9946059321E000230A931F9B0BEBCD
:40324000030909F10103012B0593B8BF012315E0012500231E930A9501E001230A934FF0FF390022CDF8149012231F9206E04FF001094B46CDF81490CDF87C90DAF824409D
:4032800000226260042101F114029A421CD86268490001326260F6E761436F63A787D23FB3C8608B288AC63FFB799F501344D33F0000F07F544200005D4200005342000071
:4032C0000000F83F704200006168504600F030FCDAF8243020601B680693059B0E2B00F25B81002D00F05881DDE90234BBF1000FCDE90E3430DD9F4A0BF00F034FEA2B15E0
:4033000002EBC303E80618CBCDE908340CD5DDE90E01994B05F00F05D3E90823FEF74CFD0324CDE9020100E00224934E6DB1E90708D5DDE90801D6E90023FEF713FCCDE932
:40334000080101346D100836F0E7DDE90823DDE90201FEF731FD20E0CBF1000505B3DDE90E01844B05F00F0203EBC203D3E90023FEF7F8FBCDE902017F4E2D1100230224F6
:4033800055B1EA0705D5D6E90023FEF7EBFB013401236D100836F3E71BB1CDE9020100E00224109BE3B1DDE902560022734B28463146FEF749FE98B1059B8BB1B9F1000FCA
:4033C00040F3E6800BF1FF330893314600226C4B2846FEF7C7FB0134CDE902014E4602E0059ECDF820B02046FEF756FBDDE90223FEF7B8FB634B0022FEF702FAA1F1507305
:4034000004460C931D46D6B9DDE9020100225E4BFEF7F4F922460C9BCDE90201FEF732FE002840F03F820C99224601F10043DDE90201FEF709FE002840F02B82A8E00A9AFD
:403440004C4B711E002A49D003EBC103D3E9002300204E49FEF7B0FC22462B46FEF7CEF9CDE90C01069CDDE90201FEF72BFE0546FEF712FB02460B46DDE90201FEF7BEF9BE
:40348000DDE90C23303504F8015BCDE90201FEF7DBFD002840F01D83DDE9022300203749FEF7ACF9DDE90C23FEF7CEFD002840F0D180069BE31AB3426ADADDE90C0100228D
:4034C0002F4BFEF74FFB0022CDE90C01DDE902012B4BFEF747FBCDE90201C4E703EBC1012246D1E900012B46FEF73CFB069BCDE90C011D469C19DDE90201FEF7E3FD06467E
:40350000FEF7CAFA02460B46DDE90201FEF776F9303605F8016BAC42CDE902014FF0000222D11A4BDDE90C01FEF76AF902460B46DDE90201FEF7A6FD002840F08B80DDE9AF
:403540000C2300201149FEF759F902460B46DDE90201FEF779FDD8B114F8013C621E302B40F0B7821446F7E7054BFEF7FBFACDE90201C0E770420000484300000000F03F3A
:403580000000244000001C40000014400000E03FDDE90E34CDE90234139B002B7CDBBBF10E0F79DCAB4B03EBCB03D3E900671F9B002B14DA059B002B11DC40F06C810022F7
:4035C000A54B30463946FEF7CDFADDE90223FEF74FFD059D2E46002840F05F8165E1069CDDE9028932463B4640464946FEF7E4FBFEF768FD0546FEF74FFA32463B46FEF7C4
:40360000B1FA0B46024649464046FEF7F7F805F1300E069B04F801EBC3EB040E059B73452DD102460B46FEF7EBF88046894602460B4630463946FEF707FD78B942464B46A3
:4036400030463946FEF7F6FC002800F04482EB0704D440E2DDF820B000E01C4614F8012C631E392A07D1069A9A42F6D1069930220BF1010B0A701A7801321A702BE2002294
:40368000764BFEF76FFA0022002380468946FEF7D1FC0028A6D01EE20A9A002A2BD01E9A012A0ADC119A12B103F2334302E0129BC3F136033D46444613E0059B5D1EAF42BE
:4036C000BFBF0B9BEA1B9B180B93059BB6BF2F467D1B0025002BA7BF4446059BC3EB08040023079A01211A4450469844079200F0F3FA064602E03D4644460A9E5CB1079BD6
:40370000002B08DDA342A8BF2346079AC3EB0808E41AD31A0793002F1DDD0A9BABB18DB131462A46504600F071FB049A01460646504600F0DAFA04990890504600F02DFA32
:40374000089B04937A1B06D000E03A460499504600F05CFB04900121504600F0BDFA0B9B05465BB31A460146504600F04FFB1E9B0546012B18DC029B83B9039BC3F31303FA
:4037800073B9039B23F000473F0D3F054FB1079B08F1010801330793012702E0002700E0029F0B9B73B100E000272B6905EB8303186900F044FAC0F1200004E01E9B012B0D
:4037C000D9DD0B9F0120079B184410F01F0008D0C0F12003042B02DDC0F11C0002E006D018461C30079B8044034404440793B8F1000F05DD42460499504600F055FB04908A
:40380000079B002B05DD29461A46504600F04CFB0546109B23B32946049800F096FB00281EDA00230A220499504600F0CDF90A9B0BF1FF3B0490002B00F05F813146002389
:403840000A22504600F0C0F9B9F1000F06463FDC3BE000BF704200000000144000002440059B002B2BDC1E9B022B28DDDDF81490B9F1000F11D129464B460522504600F0FB
:40388000A3F901460546049800F05FFB00280CDC03E0354600E000252E461F9B069C6FEA030B09E03546DDF820B0069B069A5C1C312313700BF1010B05960026F7E00A9B6C
:4038C000DDF8149023B9069CB2E01E9B022BCFDC002C05DD31462246504600F0E5FA06469FB17168504600F023F90446326906F10C01023292000C30FEF782FF012221465A
:40390000504600F0D1FA059000E00596029B069F03F00103079329460498FFF7D7FA3146044600F13008049800F00FFB059A02902946504600F025FBC36802463BB901460D
:403940000A90049800F001FB0A9A034600E00123114650460A9300F020F90A9B53B91E9A42B9079A32B9B8F1390F2AD0029B002B1CDC1DE0029A002A04DB1BD11E9ACAB93D
:40398000079ABAB9002B13DD01220499504600F08BFA2946049000F0D8FA002803DC07D118F0010F04D0B8F1390F0AD004F131087C1C0CE0002B07F101040BDDB8F1390FFF
:4039C00003D139233B70013756E008F1010887F800806CE0069B2746E31A4B4504F8018C3BD000230A220499504600F0EDF8059B04909E424FF00A024FF0000331465046FD
:403A000004D100F0E1F80646059084E700F0DCF8002306460A220599504600F0D5F8059079E700230A220499504600F0CDF8049029460498FFF74AFA069B00F1300804F881
:403A4000018BE31A4B45ECDB069B0596B9F1010FACBF4B4401331F46002601220499504600F022FA2946049000F06FFA002803DC15D118F0010F12D03C4614F8013C621EC7
:403A8000392B09D1069B934204D10BF1010B3123069A02E01446F0E70133137007E03C4614F8013C621E302B01D11446F8E72946504600F072F8059B6BB12EB19E4203D072
:403AC0003146504600F069F80599504600F065F801E0DDF820B00499504600F05EF80023209A23700BF101031360229B1BB11C6001E008480AE0069808E0B9F1000F3FF770
:403B0000E2AE1E9B022B7FF7DEAEB1E615B0BDE8F08F00BF52420000004870474C81FF1F024B0146186800F0E7BA00BF4881FF1F70B5456A04460E463DB91020FFF7F0FF88
:403B40006062456085600560C560656AEB6843B1636ADB6853F8260078B1026843F8262017E021220421204600F0B8FA636AE860DB68002BECD1002070BD012101FA06F5B8
:403B80006A1D9200204600F0A9FA0028F3D04660856000230361C36070BD70B5446A06460D463CB91020FFF7BBFF7062446084600460C4603DB1736A6A68DB6853F8221020
:403BC000296043F8225070BD2DE9F04106460C460D691F4601F1140E0023DEF80000013381B202FB0171000C0F0C02FB007089B201EB00419D424FEA10474EF8041BECDC27
:403C0000D7B1A3689D4212DB616830460131FFF78FFF8046226904F10C01023292000C30FEF7EEFD21463046FFF7B7FF444604EB850301355F6125612046BDE8F081030C6A
:403C40001B0413B90004102300E0002310F07F4F04BF0002083310F0704F04BF0001043310F0404F04BF80000233002803DB420003D5581C704718467047202070470368CE
:403C800013F007020BD0D90722D49A074BBF5B089B08036003604CBF01200220704799B209B91B0C102213F0FF0F04BF1B0A0832190704BF1B090432990704BF9B080232BB
:403CC000D90702D45B0805D00132036010467047002070472020704710B50C460121FFF727FF01224461026110BD2DE9F74F14460A69236988469A42BEBF0B46A0461C46A3
:403D0000D8F81070D4F81090D8F80830D8F8041007EB09069E42C8BF0131FFF709FF00F114052B4605EB860C0022634502D243F8042BFAE704F1140208F1140102EB8903CB
:403D400001EB87070093009B0192934257D9B2F800B0BBF1000F23D08946AE464FF0000859F8044BBEF800A0A3B20BFB03A34FEA144ADEF8004043444FEA14480BFB0A849D
:403D8000F24604EB13449BB243EA04434F454FEA14484AF8043B01D9D646E1E7CEF80480019B0432B3F802A0BAF1000F21D02C4689462B684FF00008B9F800E0B4F802B03E
:403DC0009BB20AFB0EBEA346F04443EA08434BF8043B59F8043BB4F804E01B0C0AFB03E34F4503EB18434FEA134801D95C46E3E763600435A7E75CF8043D13B9013E002E4D
:403E0000F9DC066103B0BDE8F08F00002DE9F843154612F0030206460F4607D0214C013A002354F82220FFF7CFFE0746AD1036D0746A3CB91020FFF773FE70624460846054
:403E40000460C460D6F82480D8F808404CB940F271213046FFF740FF04460023C8F8080003604FF00008EB070AD5394622463046FFF73BFF814639463046FFF78EFE4F46AC
:403E80006D100CD0206808B10446ECE7224621463046FFF72AFF2060C0F80080F4E73846BDE8F883384300002DE9F0470C460746914626694FEA621A56444968A368751C4D
:403EC000AB4202DA01315B00FAE73846FFF730FE002380461A4600F11401534503DA41F823200133F9E72AEAEA73206901EB830319F01F0904F1140101EB800E14D0C9F1D6
:403F0000200C002208689A4600FA09F0024343F8042B51F8042B8E4522FA0CF2F2D8CAF8042042B1B51C06E0043B51F8042B8E4543F8042FF9D8013D3846C8F81050214676
:403F4000FFF72BFE4046BDE8F08703690A6910B59B1A11D192001430143183180A4453F8044D52F8041D8C4202D007D3012010BD9842F4D3002010BD184610BD4FF0FF30AB
:403F800010BD2DE9F8430C460746114620461546FFF7DBFF061E08D131463846FFF7C8FD012303614661BDE8F883BCBF23462C4638466168BABF1D4601260026FFF7B8FDEF
:403FC0002B69C660266905F1140904F1140101EB860709EB830800F114054FF0000C51F8042B59F8044B93B29C44A3B2240CC3EB0C03C4EB124202EB23429BB24FEA224C46
:40400000C84543EA02428E4645F8042BE7D8BE450ED25EF8041B8AB26244131403EB114392B242EA03424FEA234C45F8042BEEE755F8043D0BB9013EFAE70661BDE8F883C9
:404040002DE9F3411C4601219046089E099DFFF76FFDC4F31302C4F30A5407460CB142F480120192B8F1000F19D002A840F8088DFFF705FE009B48B1019AC0F1200102FA9A
:4040800001F10B43C2407B61019200E07B61019B002B14BF02210121BB61396107E001A8FFF7EDFD019B01217B613961203034B1A4F2334404443460C0F1350009E0A0F2DB
:4040C000324007EB810330601869FFF7B8FDC0EB41102860384602B0BDE8F08138B502FB01F4214600F008F8054618B122460021FEF791FB284638BD70B5CD1C25F0030570
:4041000008350C2D38BF0C25002D064601DBA94202D90C23336046E000F05CF8234B1C681A462146A1B10B685B1B0ED40B2B03D90B60CC18CD501EE08C420BBF63684B6832
:404140001360636018BF0C4615E00C464968E9E7174C23681BB9304600F02CF820602946304600F027F8431C18D0C41C24F00304A0420DD12560304600F02DF804F10B0046
:40418000231D20F00700C31A0ED05A42E25070BD211A304600F00EF80130EBD10C233360304600F018F8002070BD00BFCC81FF1FC881FF1F38B5064C0023054608462360CA
:4041C000FCF79AFD431C02D1236803B12B6038BDD081FF1F704770470000000000000000205100405000C05100401000F0510040100000000140800000010140000F00144E
:404200000140000800400140000A004C01400002005001402000000080000140DC05004880000000666D6F64000000000000000000000000000000000000000000000080DA
:404240004300494E4600696E66004E414E006E616E003000496E66696E697479004E614E00504F534958002E0000000000000000000000000000F03F0000000000002440FC
:4042800000000000000059400000000000408F40000000000088C34000000000006AF8400000000080842E4100000000D01263410000000084D797410000000065CDCD41BD
:4042C000000000205FA00242000000E876483742000000A2941A6D42000040E59C30A2420000901EC4BCD64200003426F56B0C430080E03779C3414300A0D8855734764381
:4043000000C84E676DC1AB43003D9160E458E143408CB5781DAF154450EFE2D6E41A4B4492D54D06CFF08044F64AE1C7022DB544B49DD9794378EA440500000019000000BD
:404340007D000000000000000080E03779C34143176E05B5B5B89346F5F93FE9034F384D321D30F94877825A3CBF737FDD4F1575F8B500BFF8BC08BC9E4670474D00000075
:40438000750D0000F8B500BFF8BC08BC9E46704729000000A8430000C880FF1FC00000005000000000000000000000000000003FD881FF1F0000C05D80BB00003000000034
:4043C000006CDC02010000000000000000000000000000000000000000000000000000000000000000000000404200000000000000000000000000000000000000000000F0
:4044000000000000000000000000000000000000000000000000000000000000000000000000000000000000E880FF1F6742000068420000684200006842000068420000A5
:404440006842000068420000684200006842000068420000FFFFFFFFFFFFFFFFFFFFFFFFFFFF000000000000000000000000000000000000000000000000000000000000F8
:4044800000000000000000000000000000000000000000000000000000000000000000000000000000000000000000000000000000000000000000000000000000000000FC
:4044C00000000000000000000000000000000000000000000000000000000000000000000000000000000000000000000000000000000000000000000000000000000000BC
:40450000000000000000000000000000000000000000000000000000000000000000000000000000000000000000000000000000000000000000000000000000000000007B
:40454000000000000000000000000000000000000000000000000000000000000000000000000000000000000000000000000000000000000000000000000000000000003B
:020000040003F7
:0200000480007A
:40000000025200400364004003650040230001402E0101404C02014041030140450401402F0501403606014016070140361401401B1501403616014015170140371A014093
:40004000181B01400640014009410140054201400243014004480140084901400650014002510140008001408417850D870D850D870D8B0D08010C01120118011C012E01D4
:4000800032013E0440324104421049FF4AFF4BFF4C024E704F0C5004544058045A045B045F0162C0644065016610671168C069016B116C406D016E406F01008003040444F0
:4000C000068007040A850D080E0510021542170819041C041DA81E401F0424402512268227482D402E042F84368237043C843D203E01404041A8440445AA4D08542256A0F9
:4001000057856104630AC0F3C2EBC4B1CAF0CCD0CEF0D0FFD80E00D401440220042805950642072A08050B040C070D440E08118713381418151016211720180519021B0D61
:400140001C0520052193232024802544262029442A052E052F4430FF31803330350F37403A033B283F415409580459045B045F0180318242830184D08620880D8C0D900DFC
:40018000930194329644980D9C029E0DA280A40DA501A812AA68AC80B080B470B501B60FBAA0BE01BF10D804D904DB04DF010080036404440501070409080A860D080E0574
:4001C0001006110113081542162017101A021B221D01211024012520262527102B202D402E163002362639013C843D203E015C215D085E406402680282108C028E01904481
:40020000924095429685982499089A229B409F04A020A11AA202A440A820AB80AE02AF04C0FFC2EFC4FFCAF2CCE1CEF1D6F0D8100268045806260E04100E12301301144233
:4002400016142301261330013501367E405149FF4AFF4BFF4F01501856025724580459045A045B045C105D015F016040624064406540668068806A806C806E809201A201F2
:40028000B001BE01C045C5ECC602C807C9FFCAFFCBFFCD83CE03CF01D018D280D401D804DA04DB04DD11DF01E040E240E440E540E680E880EA80EC80EE8000450101090AC8
:4002C0000F801020164018411E8022102B8030024380464048024D084F8157C05D085E805F016120684069426A946B047201740276409004954396B59F0CA020A12AA440C0
:40030000AF02B110C00DC21CC414CA01CC01D088D218D6D0D804EE20020112013401401449FF4AFF4BFF4F01501858045A045C015D015F01604062406440654066806880FE
:400340006A806C806E809201AE01B601BE40C014C5ECC720C823C9FFCAFFCBFFCD83CE03CF01D018D280D401D804DA04DB04DD11DF01E040E240E440E540E680E880EA80E6
:40038000EC80EE80078009020D02138019401F20400241024402450247804905510259457380AE01AF08C010C218C401D099D60B405249FF4AFF4BFF4F0150185A045D018C
:4003C0005F016040624064406540668068806A806C806E808B0192019A01AF01B001B301BE01C052C5ECC620C80BC9FFCAFFCBFFCD83CE03CF01D018D280D401D804D90462
:40040000DA04DB04DC10DD11DF01E040E240E440E540E680E880EA80EC80EE800C020D201E8027202C023E204120452048024C024D044F01552056205D045E805F017402FD
:400440008320AB80C250CA10CE20D024D218D6D0E602020112013601401449FF4AFF4BFF4F01501858045A045C015D015F016040624064406540668068806A806C806E8042
:400480009201AE01B601BE40C014C5ECC720C823C9FFCAFFCBFFCD83CE03CF01D018D280D401D804DA04DB04DD11DF01E040E240E440E540E680E880EA80EC80EE80078008
:4004C00009020D02138019401F80400241024402450247804905510259457380AF20C010C218C401D099D60B22012E013601405449FF4AFF4BFF4F015018528058045A0488
:400500005B045C015D115F016040624064406540668068806A806C806E809301AF01B101BF01C054C5ECC602C807C9FFCAFFCBFFCD83CE03CF01D018D401D904DA04DB045F
:40054000DD11DF01E040E240E440E540E680E880EA80EC80EE8010821A0227802E8035014280468048024C024D014F04548056805D015F84700271018601C409CA10CC80CD
:40058000D081D218D6D03220330436143840CCF0CE105E016202804094409F04A634D680D840E6209F04A634AE01B202EA109F04A6349F04A624AE10EE10830486209F04DD
:4005C000A620AA04E280E640EE20000308010A0310021A021C0200FF01030000200E01000F82707DA80800120D0E5200006F0090450E220088002000A8400000A8040008F5
:400600000002080C001100AA200C880240073C00031880E0088030200000010032041000000EBCDF3D0FFFFF2300B00C040000000000000004040400000000010000C00073
:4006400040011011C0010011400140010000000000000000000000000000000000C0C000C0000000000B0B000000000000000000000000000000000000000000000000006E
:40068000000000000000000000000000000000000000000000000000000000000000000000000000000000000000000000000000000000000000000000000000000000003A
:4006C00000000000000000000000000000000000000000000000000000000000000000000000000000000000000000000000000000000000000000000000000000000000FA
:4007000000000000000000000000000000000000000000000000000000000000000000000000000000000000000000000000000000000000000000000000000000000000B9
:400740000000000000000000000000000000000000000000000000000000000000000000000000000000000000000000000000000000000000000000000000000000000079
:0200000490006A
:0400000000004005B7
:0200000490105A
:04000000BC90ACAF55
:0200000490303A
:020000007A592B
:0200000490402A
:4000000000000000000000000000000000000000000000000000000000000000000000000000000000000000000000000000000000000000000000000000000000000000C0
:400040000000000000000000000000000000000000000000000000000000000000000000000000000000000000000000000000000000000000000000000000000000000080
:400080000000000000000000000000000000000000000000000000000000000000000000000000000000000000000000000000000000000000000000000000000000000040
:4000C0000000000000000000000000000000000000000000000000000000000000000000000000000000000000000000000000000000000000000000000000000000000000
:0200000490501A
:0C00000000012E16106900012E338AC288
:00000001FF